:040000008031C8285B
:1000060008007E14803120007F08F1000B1D1C289B
:100016005D085E0403191328FF30DD07FF30DE3D5F
:100026005108520403191B28FF30D107FF30D23D77
:100036000B11911CC42859085A04031926280130AB
:10004600D9020030DA3B5F08600403192E2801301C
:10005600DF020030E03B57085804031997280130A7
:10006600D7020030D83BA12822008D178C17F43018
:100076002000D7000130D80002305328F430D700D2
:100086000130D80022008E170330922822008E13EA
:100096002000D301D401F430D7000130D800043059
:1000A600F000700895280130D3070030D43D1F308A
:1000B60054024130031953020318E401101E901E26
:1000C6006F2801302100E2070030E33D0530F000E3
:1000D60070082000E40072282100E201E3012000FC
:1000E600101E901A83280130D5070030D63D013006
:1000F6005602913003195502031C8528E401852810
:10010600D501D6010130D7000030D800A128220041
:100116008D138C13A12822008D138C130630F0004A
:1001260070082000E400A128640884000730040257
:100136000318A12888310435003E820020004D08AE
:100146004E040319AB280130CD020030CE3BAD285A
:1001560022008E1220006D086E040319B7280130A4
:10016600ED020030EE3BBB28E830ED000330EE0038
:100176005B085C040319C3280130DB020030DC3B5A
:1001860091107108FF007E1009008031CA28FA011B
:10019600FB01493084000030850024309E319126D1
:1001A6008031C83084000030850026309E3191268B
:1001B60080317E3084009E3085006D3086000030B0
:1001C600870003309E318B26803142308400943084
:1001D6008500A03086000030870028309E318B26AF
:1001E6008031773084009F308500203086000130D2
:1001F600870018309E318B267E1020008631F82E1F
:1002060078081F392000A0002008EC007908A1001A
:100216007808A0000530A200210DA10CA00CA20BAD
:100226000F2920080F39A3002308EA007908A10046
:100236007808A0000930A200210DA10CA00CA20B89
:100246001F2920080F39A3002308E9007908A10017
:100256007808A0000D30A200210DA10CA00CA20B65
:100266002F2920080739A3002308EB006B0869072C
:100276006A0709076C07A0002008EC006C08A000BC
:10028600A1012008F2002108F3006730F4000030D5
:10029600F5009F318F27813172082000A200730874
:1002A600A3000A30A400230DA30CA20CA40B56290C
:1002B6002208A5002508FB000A30A0002008F2004D
:1002C6007B089E31CC268131FF3A013E20006C0727
:1002D600A1002108EC000330A0002008F2006A0803
:1002E6009E31CC2681312000A1000930A2002208CF
:1002F600F2006B089E31CC26813120002107690768
:100306007B07A3002308EA006A08A000A1012008D1
:10031600F2002108F3006730F4000030F5009F3149
:100326008F27813172082000A2007308A3000A30CB
:10033600A400230DA30CA20CA40B9C292208A50043
:100346002508FB000A30A0002008F2007B089E3139
:10035600CC268131FF3A013E20006A07A100210820
:10036600EA000530A0002008F20069089E31CC267C
:10037600813120006B077B07A1002108E90069088D
:10038600A000A1012008F2002108F3006730F40064
:100396000030F5009F318F27813172082000A200BE
:1003A6007308A3000A30A400230DA30CA20CA40B0F
:1003B600D7292208A5002508FB000A30A00020083E
:1003C600F2007B089E31CC268131FF3A013E2000A7
:1003D6006907A1002108E9006B08A0000230A035DA
:1003E600FF3E031DF22920357B07A1002108EB0003
:1003F6006B08A000A1012008F2002108F3001A30C2
:10040600F4000030F5009F318F27813173082000FA
:10041600A2002208FB000A30A0002008F2007B0898
:100426009E31CC26FF3A013E20006B07A100210831
:10043600EB0008002000E701E22A2900110820004D
:10044600A9002908B500941A202AE601E701E70A5F
:10045600E22A2808E0002708DF0001309F31E12763
:1004660082312000A9002908B5007A187A2A0230BC
:10047600B32A1E30DF000030E00001309F31E12753
:1004860082312000A9002908B6007A187A2A03309A
:10049600B32A1E30DF000030E00001309F31E12733
:1004A60082312000A9002908B7007A187A2A043078
:1004B600B32A1E30DF000030E00001309F31E12713
:1004C60082312000A9002908B3007A187A2A05305B
:1004D600B32A1E30DF000030E00001309F31E127F3
:1004E60082312000A9002908B4007A1C7D2AE60181
:1004F600E60AB22A0630B32A3408A900AA0133084C
:10050600AB00AC012B08AC00AB0129082B04AF00F3
:100516002A082C04B000B801B9013708A900AA01BD
:1005260035083607AB00AC01AC0D29082B07AD002A
:100536002A082C3DAE0038082D07B80039082E3D94
:10054600B90039083006031DAA2A38082F06031DEC
:10055600AE2A0730B32A0230A9002908E60008307F
:10056600A9002908E700E22A3708A900AA013608E7
:10057600AB00AC012B08AC00AB0129082B04B10081
:100586002A082C04B2003208A8003108A700080087
:100596006603031DD22AEE30A0009130DA2A02301B
:1005A60020006606031DE22A1930A0009130A10042
:1005B600F330A2009330A3009531942582312000B8
:1005C60067088400093004020318E22A98310435CA
:1005D600003E8200E22A20002408AA002508AB007B
:1005E6002608AC0003102B0D2C0DAD002D08AE0017
:1005F6002E08031D052B0030A4000030A500003096
:10060600A60008002708AA002808AB002908AC00A5
:1006160003102B0D2C0DAD002D08B3003308031D60
:100626001B2B0030A4000030A5000030A6000800F7
:1006360033087B3EAA002A08AE072408AA0025082C
:10064600AB002608AC001030AC36AB0CAA0C890BFC
:10065600272B2A08AD002D08B3002708AA00280872
:10066600AB002908AC001030AC36AB0CAA0C890BD9
:10067600372B2A08AD002D08B3068030AA002A08B9
:10068600B305A517A817FF30A705FF30A80500304A
:10069600A9050030AF000030B0000030B1000730CF
:1006A600AA002A08B200241C5E2B2708AF072808D8
:1006B600B03D2908B13D0130A636A50CA40C890B26
:1006C6005F2B0130A735A80DA90D890B652B0130CD
:1006D600B202031D562B0930AA002A08B200241CB8
:1006E6007A2B2708AF072808B03D2908B13D01300D
:1006F600A636A50CA40C890B7B2B0130B136B00CA9
:10070600AF0C890B812B0130B202031D722B2F080F
:10071600F2003008F3003108F4002E08AA002A0877
:10072600F5003308AB002B08F60087317F277208E7
:100736002000A4007308A5007408A6000800200085
:10074600C600C60BA42B043094319D248331F430AB
:100756002000CD000130CE0022008E166E30F6004D
:100766009030F7000230F8009030F9009F314827AA
:10077600833125000C19CB2BD730F6009030F700CB
:100786009430F8009330F9009F3148278331D72BF6
:100796006E30F6009030F7000230F8009030F90025
:1007A6009F3148278331D62BCE30F6009030F700A4
:1007B600F230F8009330F9009F3148278331220048
:1007C6008F1604302000C8000C30C7003530C60034
:1007D600C60BEB2BC70BEB2BC80BEB2B0032220007
:1007E6000F1629302000C8009630C700A630C60074
:1007F600C60BFB2BC70BFB2BC80BFB2B0030943116
:100806009D2483310B302000C8002630C700663097
:10081600C600C60B0C2CC70B0C2CC80B0C2C0032BC
:100826001E30F6000030F70088310F2083310B3080
:100836002000C8002630C7006630C600C60B212C33
:10084600C70B212CC80B212C003220000C1C2D2C90
:100856008C18372CDD30A0009330A100FC30A200AC
:100866009230A3009531942585315D2D9F31C527A2
:10087600843173082000CA007208C90061309F31B4
:10088600C527843173082000CA007208C9004A08C7
:10089600A7004908A6000130A8000030A900AA0157
:1008A600AA0AAB01AB0A9631F42684310330200044
:1008B600C8000830C7007830C600C60B602CC70BCE
:1008C600602CC80B602C412C05306406031D762C69
:1008D600CC30A0009230A100D730A2009330A30004
:1008E600953194258431063020006406031D672C5B
:1008F600CC30F6009230F700F430F8009330F9006F
:100906009F314827843115302000C8004B30C7007E
:10091600D130C600C60B8D2CC70B8D2CC80B8D2C69
:1009260000009E31B42684319E31A92684310730D9
:100936002000C8001730C7006F30C600C60BA12CB8
:10094600C70BA12CC80BA12C00008030F30000308F
:10095600F400803095310C258431E8302000A70062
:100966000330A80082311D22843120002808CC00E3
:100976002708CB0002304C026F3003194B02031CD0
:10098600CE2C4030A0009230A1009D30A2009330C2
:10099600A300953194258531E72D2808CC0027083A
:1009A600CB00CB1EE12CDD30A0009330A100083037
:1009B600A2009330A30095319425843127008D1130
:1009C6008C1734302000C700F130C600C60BE92C66
:1009D600C70BE92C00329430F3000030F400943059
:1009E60095310C258431E8302000A7000330A8009B
:1009F60082311D22843120002808CC002708CB0034
:100A06004B1C102DDD30A0009330A1000A30A2004F
:100A16009230A30095319425843127008C1334300D
:100A26002000C700F130C600C60B172DC70B172DC7
:100A360000320230F3000030F400863095310C2588
:100A46008431E8302000A7000330A80082311D223F
:100A5600843120002808CC002708CB003430C7009A
:100A6600F130C600C60B352DC70B352D003294303C
:100A7600F3000030F400943095310C258431E830D1
:100A86002000A7000330A80082311D2284312000F7
:100A96002808CC002708CB00CB1C5B2DDD30A0003E
:100AA6009330A1001830A2009230A300953194250E
:100AB60088316F283E30F6009330F7006630F80034
:100AC6009330F9009F3148278531003020004A02D3
:100AD600153003194902031C7B2D6630A0009330A4
:100AE600A1009D30A2009330A30095319425853155
:100AF6002630F6009230F700F330F8009330F90014
:100B06009F314827853169309F31C5278531730864
:100B16002000CA007208C90002304A028030031958
:100B260049020318A12DEC30A0009030A100C83076
:100B3600A2009330A3009531942585319A30F600B2
:100B46009130F700F330F8009330F9009F314827D1
:100B560085315D309F31C527853173082000CA0075
:100B66007208C90002304A021530031949020318F7
:100B7600C72DB430A0009230A100C830A200933037
:100B8600A300953194258531023020004A024F306A
:100B960003194902031CDA2DB430A0009230A100DB
:100BA6009D30A2009330A3009531942585318E3077
:100BB600F6009230F700F330F8009330F9009F31D9
:100BC600482761308431392C023020004C0229300C
:100BD60003194B020318FA2D4030A0009230A100F1
:100BE600C830A2009330A3009531942585312200A8
:100BF6000D170D1605302000C8000F30C700F43061
:100C0600C600C60B042EC70B042EC80B042E753067
:100C16009F31C527853173082000CA007208C900B4
:100C260002304A02873003194902031C252E1F3061
:100C3600A0009330A1007E30A2009030A300953131
:100C460094258531023020004A026A300319490290
:100C56000318382E1F30A0009330A1003730A200B1
:100C66009130A30095319425853122000D130D1284
:100C760005302000C8000F30C700F430C600C60B90
:100C8600422EC70B422EC80B422E8130F300003095
:100C9600F400813095310C258531E8302000A7001D
:100CA6000330A80082311D22853120002808CC009F
:100CB6002708CB0002304C02053003194B02031CF7
:100CC6006E2E7930A0009330A1009D30A2009330A3
:100CD600A3009531942596316F2E27000D16073007
:100CE6002000C8001730C7006F30C600C60B792E2B
:100CF600C70B792EC80B792E00008530F300003023
:100D0600F400853095310C258631E8302000A700A7
:100D16000330A80082311D22863120002808CC002D
:100D26002708CB0000304C021D3003194B02031C70
:100D3600A72E0A30A0009130A100D030A200933037
:100D4600A300953194258631003020004C021230E4
:100D560003194B020318BA2E0A30A0009130A100E5
:100D6600E930A2009330A3009531942586312700FF
:100D76000D12C030F6009330F700C430F800913001
:100D8600F9009F31482786319430F3000030F40093
:100D9600943095310C258631E8302000A7000330C9
:100DA600A80082311D22863120002808CC002708A1
:100DB600CB004B18E92EDD30A0009330A1000A309D
:100DC600A2009230A3009531942586312000CB18DD
:100DD600F62EDD30A0009330A1001830A20092302C
:100DE600A300953194259531EA2D7A30210099009A
:100DF600D0309500200095010B118B160B30210089
:100E06008C000F308D001A308E008F308F00F63038
:100E160090002B3026008C00E6308D0020008C01DF
:100E26008D018E0140308F00900125008C018D01CF
:100E360024008D018F01900123008C010C308D0060
:100E46000F308F0006309000013028008C008D0195
:100E5600043094319D2486319E319E2686319F3101
:100E66000527863106302000C6004608E4008C12AD
:100E7600C830F2000030F3008031032086312000B4
:100E86008C169F315F27863138302000C600460811
:100E9600F300083095314C2586318130F6009230CA
:100EA600F7003B30F8009030F9009F314827863133
:100EB60020000C168B170330C8000830C7007830A6
:100EC600C600C60B642FC70B642FC80B642FAA304D
:100ED600F200AA30F3009431D02486318530200008
:100EE600C600C60B742F5530F2005530F30094310E
:100EF600D02485308331A22B75080319872F7408F7
:100F060073047204031D982F0030F2000030F300C2
:100F16000030F40008000130F7007708F5070130CB
:100F2600F436F30CF20C890B932FFE30740503197B
:100F3600B12F8E2F0130F7007708F5070130F20741
:100F4600003003180130F307003003180130F407AE
:100F56000130F436F30CF20C890BAC2FFF3074051C
:100F66000319BE2F9D2F0130F5020130F235F30D26
:100F7600F40D890BB92FF31BC42F02307502031829
:100F8600B62F7518CC2FFF30F2057F30F305FF30F2
:100F9600F4050310F50C7508F700F801F901103097
:100FA600F735F80DF90D890BD32F7708F204780879
:100FB600F3047908F404760803190800F417080006
:100FC600F5009E31812687315C309E31BF26873100
:100FD60000309E31BF26873175089E31BF26873186
:100FE6009E31862687316830F400E430F300F30B37
:100FF600FA2FF40BFA2F0000080080318E2880317A
:10100600372880314128803149288031562880315F
:061016008A288031A128A8
:10101E0000302000A3000030A2000030A1000030FC
:10102E00A00052280030A3000030A2000030A10022
:10103E002C3050280030A3000030A2000030A10058
:10104E00463050280030A3000030A2000030A1002E
:10105E00513050280030A3000030A2000030A10013
:10106E005D3050280030A3000030A2000030A100F7
:10107E00623050280030A3000030A2000030A100E2
:10108E00653050280030A3000030A2000030A100CF
:10109E000030A0006B287708003A0319572849281A
:1010AE0076080C3A031919281C3A03192128033A19
:1010BE00031929280B3A03193128043A0319392840
:1010CE00023A03194128492820088731E3270800EE
:1010DE000130F3000030F400863095310C25883154
:1010EE00E8302000A7000330A80082311D2288318D
:1010FE0020002808CC002708CB003430C700F13080
:10110E00C600C60B8828C70B88280032E330F600CD
:10111E009330F7005230F8009330F9009F31482792
:10112E00883134302000C700F130C600C60B9D2830
:10113E00C70B9D2800329430F3000030F400943039
:10114E0095310C258831E8302000A7000330A80027
:10115E0082311D22883120002808CC002708CB00C0
:10116E004B1998283430C700F130C600C60BBD2885
:10117E00C70BBD2800329430F3000030F4009430D9
:10118E0095310C258831E8302000A7000330A800E7
:10119E0082311D22883120002808CC002708CB0080
:1011AE004B1DB928E330F6009330F700B430F80049
:1011BE009030F9009F314827883134302000C70025
:1011CE00F130C600C60BE928C70BE928003294306F
:1011DE00F3000030F400943095310C258831E8305E
:1011EE002000A7000330A80082311D228831200084
:1011FE002808CC002708CB00CB19E4283430C700D0
:10120E00F130C600C60B0929C70B092900329430EC
:10121E00F3000030F400943095310C258831E8301D
:10122E002000A7000330A80082311D228831200043
:10123E002808CC002708CB00CB1D05293330F6003B
:10124E009230F700AE30F8009030F9009F31482709
:10125E00883134302000C700F130C600C60B352966
:10126E00C70B352900320230F3000030F40087300E
:10127E0095310C258831E8302000A7000330A800F6
:10128E0082311D22883120002808CC002708CB008F
:10129E003430C700F130C600C60B5329C70B532993
:1012AE0000320230F3000030F400883095310C2506
:1012BE008831E8302000A7000330A80082311D22BB
:1012CE00883120002808CC002708CB003430C70016
:1012DE00F130C600C60B7129C70B712900320230DE
:1012EE00F3000030F400893095310C258831E83058
:1012FE002000A7000330A80082311D228831200073
:10130E002808CC002708CB003430C700F130C600C7
:10131E00C60B8F29C70B8F2900320230F300003025
:10132E00F4008A3095310C258831E8302000A70072
:10133E000330A80082311D22883120002808CC00FD
:10134E002708CB003430C700F130C600C60BAD29DC
:10135E00C70BAD2900320230F3000030F4008F309D
:10136E0095310C258831E8302000A7000330A80005
:10137E0082311D22883120002808CC002708CB009E
:10138E003430C700F130C600C60BCB29C70BCB29B2
:10139E0000320230F3000030F400903095310C250D
:1013AE008831E8302000A7000330A80082311D22CA
:1013BE00883120002808CC002708CB003430C70025
:1013CE00F130C600C60BE929C70BE92900320230FD
:1013DE00F3000030F400913095310C258831E8305F
:1013EE002000A7000330A80082311D228831200082
:1013FE002808CC002708CB003430C700F130C600D7
:10140E00C60B072AC70B072A00329430F3000030B0
:10141E00F400943095310C258831E8302000A70077
:10142E000330A80082311D22883120002808CC000C
:10143E002708CB00CB19032A3430C700F130C60081
:10144E00C60B272AC70B272A00329430F300003030
:10145E00F400943095310C258831E8302000A70037
:10146E000330A80082311D22883120002808CC00CC
:10147E002708CB00CB1D232A7E30F6009130F700D3
:10148E00AE30F8009030F9009F3148278831343063
:10149E002000C700F130C600C60B532AC70B532AD3
:1014AE0000320130F3000030F400873095310C2506
:1014BE008831E8302000A7000330A80082311D22B9
:1014CE00883120002808CC002708CB003430C70014
:1014DE00F130C600C60B712AC70B712A00320130DB
:1014EE00F3000030F400883095310C258831E83057
:1014FE002000A7000330A80082311D228831200071
:10150E002808CC002708CB003430C700F130C600C5
:10151E00C60B8F2AC70B8F2A00320130F300003022
:10152E00F400893095310C258831E8302000A70071
:10153E000330A80082311D22883120002808CC00FB
:10154E002708CB003430C700F130C600C60BAD2AD9
:10155E00C70BAD2A00320130F3000030F4008A30A0
:10156E0095310C258831E8302000A7000330A80003
:10157E0082311D22883120002808CC002708CB009C
:10158E003430C700F130C600C60BCB2AC70BCB2AAE
:10159E0000320130F3000030F4008F3095310C250D
:1015AE008831E8302000A7000330A80082311D22C8
:1015BE00883120002808CC002708CB003430C70023
:1015CE00F130C600C60BE92AC70BE92A00320130FA
:1015DE00F3000030F400903095310C258831E8305E
:1015EE002000A7000330A80082311D228831200080
:1015FE002808CC002708CB003430C700F130C600D5
:10160E00C60B072BC70B072B00320130F30000303F
:10161E00F400913095310C258831E8302000A70078
:10162E000330A80082311D22883120002808CC000A
:10163E002708CB003430C700F130C600C60B252B6F
:10164E00C70B252B00329430F3000030F400943099
:10165E0095310C258831E8302000A7000330A80012
:10166E0082311D22883120002808CC002708CB00AB
:10167E00CB19212B3430C700F130C600C60B452BD9
:10168E00C70B452B00329430F3000030F400943039
:10169E0095310C258831E8302000A7000330A800D2
:1016AE0082311D22883120002808CC002708CB006B
:1016BE00CB1D412B7030F6009330F700AE30F800A2
:1016CE009030F9009F314827883134302000C70010
:1016DE00F130C600C60B712BC70B712B00320230D6
:1016EE00F3000030F4008C3095310C258831E83051
:1016FE002000A7000330A80082311D22883120006F
:10170E002808CC002708CB003430C700F130C600C3
:10171E00C60B8F2BC70B8F2B00329430F30000308B
:10172E00F400943095310C258831E8302000A70064
:10173E000330A80082311D22883120002808CC00F9
:10174E002708CB00CB198B2B3430C700F130C600E5
:10175E00C60BAF2BC70BAF2B00329430F30000300B
:10176E00F400943095310C258831E8302000A70024
:10177E000330A80082311D22883120002808CC00B9
:10178E002708CB00CB1DAB2B3430C700F130C60081
:10179E00C60BCF2BC70BCF2B00320130F30000301E
:1017AE00F4008C3095310C258831E8302000A700EC
:1017BE000330A80082311D22883120002808CC0079
:1017CE002708CB002A30F6009330F700AE30F80031
:1017DE009030F9009F314827883134302000C700FF
:1017EE00F130C600C60BF92BC70BF92B0032943023
:1017FE00F3000030F400943095310C258831E83038
:10180E002000A7000330A80082311D22883120005D
:10181E002808CC002708CB00CB19F42B3430C70096
:10182E00F130C600C60B192CC70B192C00329430A0
:10183E00F3000030F400943095310C258831E830F7
:10184E002000A7000330A80082311D22883120001D
:10185E002808CC002708CB00CB1D152CC030F60075
:10186E009330F7004D30F8009230F9009F31482741
:10187E00883134302000C700F130C600C60B452C2D
:10188E00C70B452C00320230F3000030F4008D30CF
:10189E0095310C258831E8302000A7000330A800D0
:1018AE0082311D22883120002808CC002708CB0069
:1018BE002930C8009630C700A630C600C60B652C6E
:1018CE00C70B652CC80B652C8130F3000030F4007B
:1018DE00813095310C258831E8302000A700033087
:1018EE00A80082311D22883120002808CC0027084C
:1018FE00CB0001304C025F3003194B02031C922CBB
:10190E00DD30A0009330A100DD30A2009030A300A6
:10191E0095319425883134302000C700F130C6004F
:10192E00C60B972CC70B972C00320130F3000030FA
:10193E00F4008D3095310C258831E8302000A70059
:10194E000330A80082311D22883120002808CC00E7
:10195E002708CB00C030F6009330F700D230F800E5
:10196E009130F9009F314827883134302000C7006C
:10197E00F130C600C60BC12CC70BC12C003284300F
:10198E00F3000030F400843095310C258831E830B6
:10199E002000A7000330A80082311D2288312000CC
:1019AE002808CC002708CB0000304C020430031965
:1019BE004B02031CED2CD830A0009230A100E03079
:1019CE00A2009130A3009531942588313430200047
:1019DE00C700F130C600C60BF22CC70BF22C00323A
:1019EE000230F3000030F400923095310C2588312E
:1019FE00E8302000A7000330A80082311D22883174
:101A0E0020002808CC002708CB000B30C800263059
:101A1E00C7006630C600C60B122DC70B122DC80BA1
:101A2E00122D00328430F3000030F40084309531F2
:101A3E000C258831E8302000A7000330A800823141
:101A4E001D22883120002808CC002708CB0000304A
:101A5E004C02033003194B02031C402DD830A0005A
:101A6E009230A100E030A2009130A3009531942570
:101A7E00883134302000C700F130C600C60B452D2A
:101A8E00C70B452D0032FE30F3000030F4008E30CF
:101A9E0095310C258831E8302000A7000330A800CE
:101AAE0082311D22883120002808CC002708CB0067
:101ABE001530C8004B30C700D130C600C60B652D9F
:101ACE00C70B652DC80B652D00008430F300003068
:101ADE00F400843095310C258831E8302000A700C1
:101AEE000330A80082311D22883120002808CC0046
:101AFE002708CB0000304C02023003194B020318AA
:101B0E00932DD830A0009230A1007430A2009230F4
:101B1E00A30095319425883120000C1C8C18A22D21
:101B2E00D830A0009230A1005430A2009130A30012
:101B3E0095319425883120000C1C8C1CB12DD83089
:101B4E00A0009230A1006230A2009130A300953126
:101B5E009425883120000C188C1CC02DD830A00084
:101B6E009230A1007030A2009130A30095319425DF
:101B7E00883134302000C700F130C600C60BC52DA9
:101B8E00C70BC52D00320130F3000030F400923047
:101B9E0095310C258831E8302000A7000330A800CD
:101BAE0082311D22883120002808CC002708CB0066
:101BBE000330C8000830C7007830C600C60BE52DCC
:101BCE00C70BE52DC80BE52D0230F3000030F400F5
:101BDE00933095310C258831E8302000A700033072
:101BEE00A80082311D22883120002808CC00270849
:101BFE00CB000630C8001330C700B130C600C60B8C
:101C0E00062EC70B062EC80B062E003220000C1C0B
:101C1E008C181C2ED830A0009230A1005430A20097
:101C2E009130A30095319425883120000C188C1822
:101C3E002B2ED830A0009230A1006230A20091303D
:101C4E00A30095319425883120000C188C1C3A2E57
:101C5E00D830A0009230A1007030A2009130A300C5
:101C6E0095319425883134302000C700F130C600FC
:101C7E00C60B3F2EC70B3F2E00320030F300F40090
:101C8E008E3095310C258831E8302000A7000330C6
:101C9E00A80082311D22883120002808CC00270898
:101CAE00CB000330C8000830C7007830C600C60B22
:101CBE005E2EC70B5E2EC80B5E2E0130F300003079
:101CCE00F400923095310C258831E8302000A700C1
:101CDE000330A80082311D22883120002808CC0054
:101CEE002708CB00C030F6009330F7004830F800DC
:101CFE009330F9009F314827883127000C160B309E
:101D0E002000C8002630C7006630C600C60B8D2ED8
:101D1E00C70B8D2EC80B8D2E0032FC30F300003019
:101D2E00F400FC3095310C258831D0302000A7000E
:101D3E000730A80082311D22883120002808CC00EF
:101D4E002708CB004B034C04031DB82E8230A00095
:101D5E009330A100F430A2009130A3009531942568
:101D6E00883127000C128E30F6009030F700F330D9
:101D7E00F8009330F9009F314827883122000D1763
:101D8E000D1604302000C8000C30C7003530C600D8
:101D9E00C60BCF2EC70BCF2EC80BCF2E00327530F1
:101DAE009F31C527883173082000CA007208C90008
:101DBE0002304A02823003194902031CF12E1F30F1
:101DCE00A0009330A1007E30A2009030A300953188
:101DDE0094258831023020004A026A3003194902E4
:101DEE000318042F1F30A0009330A1003730A2003B
:101DFE009130A300953194258831FE302C009A0045
:101E0E00B8302000D9000B30DA00200059085A04EF
:101E1E0003194E2F94316A24883120004308CA00DA
:101E2E004208C90001304A02F53003194902031C69
:101E3E002E2F2C009A01E4302000A0009230A10039
:101E4E00B630A2009130A300953194258831200040
:101E5E004A08A7004908A6000130A8000030A900D2
:101E6E000830C6004608AA00AB01AB0A9631F4262C
:101E7E00883103302000C8000830C7007830C60013
:101E8E00C60B472FC70B472FC80B472F0C2F003001
:101E9E004A02C830031949020318632F2C009A0115
:101EAE00E4302000A0009230A1009B30A2009230BE
:101EBE00A3009531942588312C009A01033020001F
:101ECE00C8000830C7007830C600C60B6C2FC70B91
:101EDE006C2FC80B6C2F22000D120D17093020002D
:101EEE00C8001E30C700EB30C600C60B7C2FC70BD8
:101EFE007C2FC80B7C2F000034302000C700F1303F
:101F0E00C600C60B882FC70B882F003229009513E9
:101F1E0006302000C7003030C600C60B942FC70B0A
:101F2E00942F000029009517FD30F3000030F400C7
:101F3E00FD3095310C258831E8302000A7000330A4
:101F4E00A80082311D22883120002808CC002708E5
:101F5E00CB000B30C8002630C7006630C600C60B5B
:101F6E00B62FC70BB62FC80BB62F00325C30F6005B
:101F7E009330F700F330F8009330F9009F31482783
:101F8E008831043094319D248831F4302000CD0006
:101F9E000130CE0022008E168E1AD32F053020006F
:101FAE00C8000F30C700F430C600C60BDC2FC70BBD
:101FBE00DC2FC80BDC2FF4302000CD000130CE001A
:101FCE0022008E168E1AE92F05302000C8000F3021
:101FDE00C700F430C600C60BF22FC70BF22FC80B8A
:101FEE00F22FE8302000CD000330CE0022008E16F6
:101FFE00FF2F0F3400342D343E34203449346E34E8
:10200E00733465347234743420345034433442346F
:10201E00203426342034533474346134723474349E
:10202E0000344434433442344134203452346F3417
:10203E006C346C342D347534703420345034613437
:10204E0073347334003449346E34733465347234FB
:10205E00743420344E3465347734203442346F3443
:10206E0061347234643400345434653473347434EB
:10207E002D344A34693467347C34533474346134C7
:10208E0072347434753470340034543468346534B6
:10209E006E342034503472346534733473342034D7
:1020AE0053347434613472347434003420347434E0
:1020BE006F34203472346534733474346134723452
:1020CE0074342034743465347334743400344434CA
:1020DE00433442344134203452346F346C346C34D3
:1020EE002D3475347034203454344A34003456341C
:1020FE006F346C3474346134673465342034743422
:10210E006F342034483469346734683400345434BE
:10211E0065347334743469346E3467342034433424
:10212E0068346134723467346534723400344D343B
:10213E0065346D345F3443346F34703469346534D0
:10214E007234203450346134733473340034503468
:10215E007234653473347334203444346F347734CA
:10216E006E34203442347534743474340034423452
:10217E00753474347434203444346F3477346E349C
:10218E00203449346E347034753474340034503421
:10219E006F3477346534723469346E346734203476
:1021AE0042346F34613472346434003443346834EE
:1021BE006134723467346534203444346934733492
:1021CE00613462346C346534003456343134203426
:1021DE0056346F346C3474346134673465342D3452
:1021EE004A3469346734003443346F346E346434A3
:1021FE006F343334203454346534733474346A3465
:10220E006934673400344234653461346D342034BB
:10221E0049346E3470347534743420344534723429
:10222E007234003443346F346D346D3473345F3430
:10223E0044346134743461345F34453472347234EE
:10224E0000344D346534613473347534723469340A
:10225E006E346734203433342E34333476340034D1
:10226E0056346F346C3474346134673465342034CE
:10227E0074346F3420344C346F347734003450342B
:10228E0072346F346734723461346D346D34693442
:10229E006E3467342E342E34003443346934723441
:1022AE006334753469347434203445347234723482
:1022BE002034313400344334693472346334753429
:1022CE0069347434203445347234723420343234E8
:1022DE00003443346934723463347534693474347D
:1022EE002034453472347234203433340034413463
:1022FE006C346C3420344C34653464347334203490
:10230E004F34663466343F3400342D343E3420343A
:10231E0049346E347334653472347434203450342A
:10232E004334423400344D3465346134733475347F
:10233E00723469346E346734203432343434563463
:10234E0000342034523465346D346F347634653451
:10235E00203462346F346134723464340034433464
:10236E00753472347234203474346F346F342034D4
:10237E006834693467346834003441346C346C34F6
:10238E00203469346F34273473342034683469341C
:10239E006734683400344D346F3474346F347234AF
:1023AE00203443346934723463347534693474348C
:1023BE00003443346934723463347534693474349C
:1023CE002034533468346F347234743400344334EC
:1023DE006F346D346D3473342034543469346D3449
:1023EE0065346F3475347434003442347534743457
:1023FE007434203455347034203449346E3470348F
:10240E0075347434003445346E3463346F3464344C
:10241E0065347234203449346E3470347534743407
:10242E0000344534633461346E342034523478349D
:10243E00203449346E3470347534743400344D3471
:10244E006534613473347534723469346E34673480
:10245E00203456343134003441346C346C342034EE
:10246E004C3465346434733420344F346E343F341A
:10247E00003456343134203456346F346C34743462
:10248E00613467346534203462340034423461344C
:10249E007434743465347234793420344434693489
:1024AE007334633400344E346F34743420347234E5
:1024BE0065346C346534613473346534643400349B
:1024CE0033342E3433345634203456346F346C3423
:1024DE00743461346734653400344334693472348F
:1024EE00633475346934743420344F347034653445
:1024FE006E34003444344334423441342034523444
:10250E006F346C346C342D347534703400344D3477
:10251E006534613473347534723469346E346734AF
:10252E002034353476340034433475347234723496
:10253E00203474346F346F3420346C346F34773409
:10254E00003450347234653473347334203453345D
:10255E0054344134523454340034323434345634D6
:10256E00203456346F346C347434613467346534CB
:10257E000034523458343334203454346534733484
:10258E0074346A34693467340034503472346F34BE
:10259E006734723461346D346D3469346E3467343B
:1025AE0000344534723472346F34723420344D3406
:1025BE006F3474346F34723400344334683461349D
:1025CE007234673465347234203445347234723464
:1025DE00003443346F346E3464346F343334203407
:1025EE00503461347334733400344D346F34743476
:1025FE006F3472342034533468346F34723474341C
:10260E0000344C3469346D346934743420344934B4
:10261E006E3470347534743400343534563420349A
:10262E0056346F346C34743461346734653400342A
:10263E00433468346134723467346534203445343D
:10264E00723472340034423475347A347A3420342D
:10265E004F34663466343F340034323434345634B6
:10266E002034533445344E345334453400344D34D1
:10267E006534613473347534723469346E3467344E
:10268E0000345234783420345334793473347434FF
:10269E0065346D340034553470342034423475341E
:1026AE00743474346F346E3400345434653473348B
:1026BE0074342034503461347334733400345134F0
:1026CE002034433475347234723465346E34743459
:1026DE000034423475347A347A3420344F346E34C4
:1026EE003F340034563432342034533445344E346F
:1026FE005334453400344534723472346F3472348A
:10270E0020345234463400344234793470346134D7
:10271E00733473346534643400344434653474343F
:10272E0065346334743465346434003454346F3433
:10273E006F3420344834693467346834003452348A
:10274E005834333420345034613473347334003499
:10275E0042347434203449346E34703475347434E5
:10276E00003443346F346E3464346F343334203475
:10277E000034543465347334743469346E346734CD
:10278E00003454346F346F3420344C346F34773417
:10279E000034563420344834693467346834003495
:1027AE004534523452344F3452340034453472343A
:1027BE0072346F347234003450347234653473347E
:1027CE0073340034563420344C346F347734003440
:1027DE005234583433342034003444346F346E342D
:0427EE00653400341A
:1027F6009E31812693317C309E31BF269331403005
:102806009E31BF2693317308840074088500120038
:1028160003191A2C730884007408850000089E3179
:10282600BF2693310130F3070030F43D062C9E316C
:1028360086260800F500F601F60A0130F3029E31FD
:10284600812694317C309E31BF26943100309E31F2
:10285600BF2694317308CF39F4007408F600750367
:10286600031D372CF6173B2CC030F4007408F60411
:1028760076089E31BF2694319E31862608000034A4
:102886000034003400340034003400341F34003483
:10289600003400340034003400341F341F34003454
:1028A60000340034003400341F341F341F34003425
:1028B6000034003400341F341F341F341F340034F6
:1028C600003400341F341F341F341F341F3451307A
:1028D6009F31C527943173082000C5007208C400D3
:1028E6004508A1004408A0009E31F026943120003E
:1028F6002008A7002108A8002208A900D730A400B4
:10290600A330A5003F30A6008231EE22943120008C
:102916002408B4002508B5002608B60097317927A3
:1029260020003508C5003408C4004508C300440823
:10293600C2000800F200C52C22000F168F160800F0
:1029460022000C130F168F160F138F138D1208000B
:1029560022000C130F128F120F138F138D12080003
:1029660022000C130F128F120F138F138D120800F3
:1029760022000C130F128F120F138F130D120D134B
:102986008D1208007208840005300402031808003E
:1029960098310435123E820008008B1322000F1175
:1029A6000000000000000000000000000000000021
:1029B6000000F601103076020318FA2C721CE62C81
:1029C60022000F15E82C22000F117308F50072087B
:1029D600F400F536F40C7408F2007508F3000130C3
:1029E600F4007408F60710307602031CE12C000090
:1029F6000000000000000000000022000F1500008B
:102A060000000000000000000000000000008B171E
:102A160008002000A8007408A0002008A900730878
:102A2600A0002008AA00AB01AC012A08A000A10161
:102A360028082907A200A301A30D20082207A40045
:102A46002108233DA5002B082407AB002C08253DB3
:102A5600AC002C08A0002008A6002B08A000200827
:102A6600A70028089E3197269531200029089E3117
:102A76009726953120002A089E3197269531200009
:102A860026089E3197269531200027089E319726E5
:102A96000800F6009E31812695317C309E31BF2696
:102AA600953100309E31BF26953139309E31BF2693
:102AB60095311C309E31BF269531760870389E318F
:102AC600BF26953150309E31BF2695316C309E31F0
:102AD600BF2695317303031D742D38309E31BF26F2
:102AE600953102307306031D7C2D34309E31BF268E
:102AF60095310C309E31BF26953106309E31BF266A
:102B0600953101309E31BF2695310B30F50062308C
:102B1600F400F40B8C2DF50B8C2D00009E318626CF
:102B260008002C009A01043094319D249531200030
:102B360010103930F2003030F3009431D024953142
:102B4600E830F2000330F3008031032095319F31E5
:102B5600AA2795319F311A27953120002108F400C4
:102B66002008F3009331FB2395319F3131279531AE
:102B760020002308F4002208F3009331FB2395314B
:102B860029302000A6009630A500A630A400A40B8C
:102B9600CA2DA50BCA2DA60BCA2DA830F600923059
:102BA600F7005D30F8009030F9009F3148279531E5
:102BB60019302000A6005A30A500C830A400A40B86
:102BC600E22DA50BE22DA60BE22D0032AA2D200048
:102BD6004B19F82DDD30A0009330A100FC30A20087
:102BE6009130A3009531942595312000CB19062EFE
:102BF600DD30A0009330A100BE30A2009030A300CB
:102C06009531942595312000CB1A142EDD30A00085
:102C16009330A1000830A2009330A300953194258B
:102C2600953120004B1B222EDD30A0009330A100F1
:102C3600AF30A2009330A30095319425953127003B
:102C46000D1434302000C700F130C600C60B292E03
:102C5600C70B292E00329430F3000030F400943074
:102C660095310C259531E8302000A7000330A800E7
:102C760082311D22953120002808CC002708CB0080
:102C86004B1F502EDD30A0009330A100AF30A200C4
:102C96009330A30095319425953127000D108D159D
:102CA60034302000C700F130C600C60B582EC70BC3
:102CB600582E00329430F3000030F40094309531F1
:102CC6000C259531E8302000A7000330A80082319A
:102CD6001D2220008431D02C013020004C02EF3020
:102CE60003194B020318822E7930A0009330A100FD
:102CF600C830A2009330A3009531942596318230D6
:102D0600F3000030F400823095310C259631E8301E
:102D16002000A7000330A80082311D229631200032
:102D26002808CC002708CB0001304C02C430031918
:102D36004B02031CA92E3430A0009330A1009D3015
:102D4600A2009330A30095319425963101302000DE
:102D56004C02A03003194B020318BC2E3430A000DD
:102D66009330A100C830A2009330A300953194257A
:102D7600963127000D1207302000C8001730C70013
:102D86006F30C600C60BC52EC70BC52EC80BC52E89
:102D960000008530F3000030F400853095310C25B5
:102DA6009631E8302000A7000330A80082311D22AA
:102DB600963120002808CC002708CB0003304C02AF
:102DC600F23003194B020318F22E0A30A00091309C
:102DD600A1005A30A2009230A30095319425863185
:102DE600702E20002B03FF3A2807013EAC002C086A
:102DF600F300023094311D24963120002708F90093
:102E06002608F80081310321963120002B0803198A
:102E1600182F7B08031D112F2A1E142F7B08303E06
:102E2600152F20309E31DD26963120002A1E1F2FB9
:102E36002E309E31DD26963120006B08031D2A2F89
:102E46007B08031D2A2F2A08183903192D2F6B0812
:102E5600303E2E2F20309E31DD2696312000AA1DD1
:102E6600382F2E309E31DD26963120006908031D4D
:102E7600462F6B08031D462F7B08031D462F2A0885
:102E86001C390319492F6908303E4A2F20309E31DC
:102E9600DD26963120002A1D542F2E309E31DD2648
:102EA600963120006A08031D652F6908031D652FEA
:102EB6006B08031D652F7B08031D652F2A081E3925
:102EC6000319682F6A08303E692F20309E31DD26AF
:102ED60096312000AA1C732F2E309E31DD269631A6
:102EE60020006C08303E9E31DD26080020003408A4
:102EF600B8003508B9003608BA000310390D3A0D86
:102F0600BB003B08C1004108031D922F0030B700EB
:102F16000030B6000030B5000030B40008003408B8
:102F2600B8003508B9003608BA001730BA36B90CF9
:102F3600B80C890B992F3808BB003B08BC00B517A5
:102F4600FF30B405FF30B5050030B6053408BD00C6
:102F56003508BE003608BF00C0018E30C102C11F51
:102F6600D02F4108803A8F3E0318C22F0030B70099
:102F76000030B6000030B5000030B4000800013063
:102F8600C036BF0CBE0CBD0C890BC32F0130B80078
:102F96003808C1070319E92FC22F18304102031C54
:102FA600E62F0030B7000030B6000030B500003024
:102FB600B40008000130BD35BE0DBF0DC00D890B34
:102FC600DE2F0130C1024108031DDD2F3C08031925
:102FD600F72FBD09BE09BF09C009BD0A0319BE0AFC
:102FE6000319BF0A0319C00A4008B7003F08B60014
:102FF6003E08B5003D08B40008008231262A823119
:103006002C2A82313C2A82314C2A82315C2A823136
:103016006C2A82317F2A8231B72A8231CB2A9431B7
:103026009F2C9431A32C9431AB2C9431B32C943136
:02303600BB2CB1
:103CFC00E8340334023424001614161C0800832EF6
:103D0C0024001615161D0800882EFE0012001E0039
:103D1C00FE0B8C2E0034640080010131890B922E35
:103D2C000034F2002900961C982E720892000800AC
:103D3C00833022009700013021009D00A3309E00AB
:103D4C009C019B010800203023009E0090309D00B8
:103D5C0008309F009C0167309B0008002030290030
:103D6C0096009030950008309700940167309300CE
:103D7C000800F2007208240091001418C32E1608D3
:103D8C001F39031DC52E141D0800C52EF500F401A6
:103D9C00751CD42E7208F3007308F4070310F20D8F
:103DAC000310F50C7508031DCE2E74080800F300E3
:103DBC009E3181269E317C309E31BF269E31403013
:103DCC009E31BF269E3173089E31BF269E319E3197
:103DDC008626080020002008F2002108F300F401D8
:103DEC008E30A3002308F500F60187317F27720877
:103DFC002000A0007308A1007408A200080006307F
:103E0C0020009C00FA309B002100911404302B0000
:103E1C009700FF3096000C302C009C0001302500E0
:103E2C009F002C009A0108009E3181269F317C3026
:103E3C009E31BF269F3100309E31BF269F3180308E
:103E4C009E31BF269F312330F300F30B2B2F003212
:103E5C009E31862608009E3181269F317C309E3112
:103E6C00BF269F3100309E31BF269F31C0309E311E
:103E7C00BF269F312330F300F30B422F00329E31CB
:103E8C00862608009F31AA279F319F311A279F3120
:103E9C007708F4007608F3009331FB239F319F31B0
:103EAC0031279F317908F4007808F3009331FB2314
:103EBC00080020008C160530F4000F30F300F430AD
:103ECC00F200F20B672FF30B672FF40B672F210017
:103EDC008E150E162400941728309500143092007D
:103EEC000800003400341F341F341F341F341F34B7
:103EFC001F3400341F341F341F341F341F341F343D
:103F0C001F341F341F341F341F341F341F341F340D
:103F1C001F34F601F701721C972F7408F607750809
:103F2C00F73D0130F435F50D890B982F0130F33640
:103F3C00F20C890B9D2F72087304031D912F7708C7
:103F4C00F3007608F20008009E3181269F317C3008
:103F5C009E31BF269F3100309E31BF269F310130EC
:103F6C009E31BF269F310B30F4006230F300F30B0F
:103F7C00BD2FF40BBD2F00009E3186260800F800E3
:103F8C008B13780821009D000630F5003030F400CA
:103F9C00F40BCE2FF50BCE2F000021009D149D1895
:103FAC00D52F1C08F7001B08F6008B177708F300B9
:103FBC007608F2000800F2007A102000941AF62F0E
:103FCC007208031DEE2F1E302000DF000030E000D1
:103FDC0020005F086004031DE32F7A1400300800F2
:103FEC002900951CFE2F951395177A1400300800A4
:043FFC0011080800A0
:020000040001F9
:04000E004CCFFFDBF9
:00000001FF
