:040000008131002921
:100008007E14803120007F08F1000B1D1C285A083F
:100018005B0403191328FF30DA07FF30DB3D4E0875
:100028004F0403191B28FF30CE07FF30CF3D0B11BB
:10003800911CFC2856085704031926280130D602BB
:100048000030D73B5C085D0403192E280130DC0220
:100058000030DD3B540855040319CF280130D40281
:100068000030D53BD92860080319402822008D1795
:100078008C170E118E13452822000E158E178C131F
:100088008D13F4302000D4000130D50002305E28F2
:10009800F430D4000130D50022000E170330CA28EE
:1000A80022000E132000D001D101F430D400013019
:1000B800D5000430F0007008CD2822000E1301305E
:1000C8002000D0070030D13D1F30510241300319C4
:1000D80050020318E201600803199328101E901EAD
:1000E800802801302100E2070030E33D0530F000B0
:1000F80070082000E20083282100E201E3012000CB
:10010800101E901AB5280130D2070030D33D0130B7
:100118005302913003195202031CB728B328901FC9
:100128000D1CA12801302100E2070030E33D053015
:10013800F00070082000E200A4282100E201E30199
:100148002000901F0D18B5280130D2070030D33D8C
:1001580001305302913003195202031CB728E201FF
:10016800B728D201D3010130D4000030D500D928F6
:1001780022000E118E138D138C130E13D928220012
:100188000E118E138D138C130E130630F0007008A9
:100198002000E200D928620884000730040203180E
:1001A800D92898310435123E820020004A084B04B1
:1001B8000319E3280130CA020030CB3BE5282200AE
:1001C8008E1220006B086C040319EF280130EB0233
:1001D8000030EC3BF328E830EB000330EC00580823
:1001E80059040319FB280130D8020030D93B91107B
:1001F8007108FF007E10090081310229FA01FB0114
:10020800463084000030850025309C31022481313D
:10021800C83084000030850026309C3102248131AA
:10022800EF3084009B3085006B30860000308700FB
:1002380003309B31FC238131B23084009D3085002E
:10024800A03086000030870028309B31FC238131A4
:100258000130840088308500203086000130870016
:1002680018309B31FC237E10200081313B297A30E5
:1002780021009900D0309500200095010B118B16B4
:10028800033021008C000F308D001A308E008F3023
:100298008F00F63090002C3026008C00E6308D0060
:1002A80020008C018D018E0140308F0090012500C7
:1002B8008C018D0124008D018F01083090002300EE
:1002C8008C010C308D000F308F0006309000280014
:1002D8008C018D0104309E310D2681319C310F2413
:1002E80081319C316B24813106302200B8003808F6
:1002F8002000E2008C12C830F2000030F300873191
:10030800FF27813120008C169C31C524813138307B
:100318002200B8003808F30008309E318026813169
:100328007430F6009230F7003B30F8009030F90056
:100338009C31AE24813120000C168B17033022002B
:10034800BA000830B9007830B800B80BA929B90B41
:10035800A929BA0BA929AA30F200AA30F3009431CE
:100368003524813185302200B800B80BB9295530C1
:10037800F2005530F3009431352481318530220064
:10038800B800B80BC52904309E310D268131F430F0
:100398002000CA000130CB0022008E160630B800BB
:1003A80038082000E2006E30F6009030F700023086
:1003B800F8009030F9009C31AE24813122000E13F0
:1003C80025000C19F329E630F6009030F700AE301E
:1003D800F8009330F9009C31AE248131FF296E304A
:1003E800F6009030F7000230F8009030F9009C31A8
:1003F800AE248131FE29DD30F6009030F7002E3032
:10040800F8009430F9009C31AE24813122008F1617
:100418000430BA000C30B9003530B800B80B122AD5
:10042800B90B122ABA0B122A003222000F162930F1
:10043800BA009630B900A630B800B80B212AB90B1B
:10044800212ABA0B212A00309E310D2681310B302A
:100458002200BA002630B9006630B800B80B322A3C
:10046800B90B322ABA0B322A00320C30F6000030AF
:10047800F70088311920813165309D31132581318C
:1004880000307302643003197202031C5A2A2000D8
:10049800E001E00A4630F6009130F700B730F80086
:1004A8009330F9009C31AE2481317F2A61309D312F
:1004B8001325813100307302643003197202031C62
:1004C800732A2000E001CE30F6009030F700B730F4
:1004D800F8009330F9009C31AE2481317F2A19301D
:1004E8002000A0009430A100DB30A2009330A300CC
:1004F8009E31C826813115302200BA004B30B90030
:10050800D130B800B80B862AB90B862ABA0B862ACE
:1005180000002230F6000030F700883119208131C0
:100528000B302200BA002630B9006630B800B80B8C
:100538009B2AB90B9B2ABA0B9B2A003220000C1C61
:10054800A72A8C18B22A1930A0009430A100E330F1
:10055800A2009230A3009E31C82681315830F6009F
:100568009330F7008030F8009330F9009C31AE24C6
:100578008131003020004702153003194602031C60
:10058800D02A8030A0009330A100C030A200933060
:10059800A3009E31C82681312630F6009230F7003C
:1005A8002F30F8009430F9009C31AE248131693045
:1005B8009D311325813173082000C7007208C600D9
:1005C80002304702BC30031946020318F62AFB30F2
:1005D800A0009030A1000430A2009430A3009E3106
:1005E800C82681318130F6009230F7002F30F800AC
:1005F8009430F9009C31AE24813161309D3113254E
:10060800813173082000C7007208C6008B30F600DD
:100618009230F7002F30F8009430F9009C31AE2466
:10062800813120004708A7004608A6000130A8002D
:100638000030A900AA01AA0AAB01AB0A9F317B27A7
:1006480081310030200047026E300319460203183A
:10065800382BFB30A0009230A1000430A200943067
:10066800A3009E31C8268131003020004702863021
:1006780003194602031C4B2BFB30A0009230A1004B
:10068800C030A2009330A3009E31C82681312000DB
:1006980060080319882B8130F6009230F700EF309C
:1006A800F8009330F9009C31AE24813165309D31DA
:1006B8001325813173082000C7007208C600003076
:1006C80047026E30031946020318752BEC30A00060
:1006D8009330A1000430A2009430A3009E31C826B4
:1006E8008131003020004702863003194602031C7E
:1006F800882BEC30A0009330A100C030A2009330CA
:10070800A3009E31C8268131B330F6009230F7003D
:10071800A530F8009330F9009C31AE248131543073
:10072800F6009130F7002F30F8009430F9009C3132
:10073800AE2481312000E201E20A05306206031D81
:10074800B02BB330A0009230A1001330A200943037
:10075800A3009E31C8268131063020006206031DA1
:10076800A12BB330F6009230F7003030F800943007
:10077800F9009C31AE24813115302200BA004B308B
:10078800B900D130B800B80BC72BB90BC72BBA0BBF
:10079800C72B00009C311A24813107302200BA008F
:1007A8001730B9006F30B800B80BD82BB90BD82B5D
:1007B800BA0BD82B00008030F3000030F4008030F2
:1007C8009E3140268131E8302000A7000330A80080
:1007D8008631A326813120002808C9002708C800CF
:1007E800600803190E2C09304902753003194802B4
:1007F800031C092C4030A0009230A100C030A20098
:100808009330A3009E31C826813109302000490267
:100818004230432C20004908A7004808A6000130B0
:10082800A8000030A900AA01AA0AAB01AB0A9F31AF
:100838007B27813115302200BA004B30B900D13006
:10084800B800B80B252CB90B252CBA0B252C0000A9
:10085800033020004902E93003194802031C3F2CE9
:100868004030A0009230A100C030A2009330A30015
:100878009E31C826813102302000490244300319D4
:1008880048020318522C4030A0009230A1000430D6
:10089800A2009430A3009E31C826813122000D1792
:1008A8000D160530BA000F30B900F430B800B80B97
:1008B8005B2CB90B5B2CBA0B5B2C75309D31132567
:1008C800813173082000C7007208C6000230470251
:1008D800873003194602031C7C2C1130A00093308A
:1008E800A1007E30A2009030A3009E31C82681313D
:1008F8000230200047026A300319460203188F2C81
:100908001130A0009330A1003730A2009130A3002D
:100918009E31C826813122000D130D120530BA0010
:100928000F30B900F430B800B80B982CB90B982CDC
:10093800BA0B982C8130F3000030F40081309E31DE
:1009480040268131E8302000A7000330A800863116
:10095800A326813120002808C9002708C80060089C
:100968000319CD2C08304902353003194802031CFD
:10097800C82C9330A0009330A100C030A20093305F
:10098800A3009E31C8268131073020004902D030AB
:10099800022D20004708A7004608A6000130A8003D
:1009A8000030A900AA01AA0AAB01AB0A9F317B2734
:1009B800813115302200BA004B30B900D130B8006F
:1009C800B80BE42CB90BE42CBA0BE42C0000023071
:1009D80020004902BD3003194802031CFE2C933045
:1009E800A0009330A100C030A2009330A3009E3134
:1009F800C8268131013020004902EF30031948022E
:100A08000318112D9330A0009330A1000430A200E8
:100A18009430A3009E31C826813127000D1207307B
:100A28002200BA001730B9006F30B800B80B1A2D81
:100A3800B90B1A2DBA0B1A2D00008530F3000030BF
:100A4800F40085309E3140268131E8302000A7002F
:100A58000330A8008631A326813120002808C90068
:100A68002708C80003304902F23003194802031866
:100A7800482D1930A0009130A1005A30A2009230C0
:100A8800A3009E31C826813127000D1607302200A9
:100A9800BA001730B9006F30B800B80B512DB90B38
:100AA800512DBA0B512D00008530F3000030F400B1
:100AB80085309E3140268131E8302000A700033080
:100AC800A8008631A326813120002808C9002708FC
:100AD800C80060080319872D0030490265300319E2
:100AE8004802031C812D1930A0009130A1000C3060
:100AF800A2009430A3009E31C8260030200049028D
:100B0800323095319C2D9531852D78081F3920007C
:100B1800A0002008EA007908A1007808A0000530A4
:100B2800A200210DA10CA00CA20B952D20080F39B5
:100B3800A3002308E8007908A1007808A00009307C
:100B4800A200210DA10CA00CA20BA52D20080F3985
:100B5800A3002308E7007908A1007808A0000D3059
:100B6800A200210DA10CA00CA20BB52D200807395D
:100B7800A3002308E90069086707680709076A07E7
:100B8800A0002008EA006A08A000A1012008F200DD
:100B98002108F3006730F4000030F5009C31DD24B3
:100BA800853172082000A2007308A3000A30A4004F
:100BB800230DA30CA20CA40BDC2D2208A5002508EC
:100BC800FB000A30A0002008F2007B089C31322488
:100BD8008531FF3A013E20006A07A1002108EA009A
:100BE8000330A0002008F20068089C3132248531C7
:100BF8002000A1000930A2002208F20069089C31F7
:100C0800322485312000210767077B07A3002308CA
:100C1800E8006808A000A1012008F2002108F300FC
:100C28006730F4000030F5009C31DD24853172080E
:100C38002000A2007308A3000A30A400230DA30C0F
:100C4800A20CA40B222E2208A5002508FB000A30BE
:100C5800A0002008F2007B089C3132248531FF3A3D
:100C6800013E20006807A1002108E8000530A00027
:100C78002008F20067089C3132248531200069077A
:100C88007B07A1002108E7006708A000A101200850
:100C9800F2002108F3006730F4000030F5009C31C1
:100CA800DD24853172082000A2007308A3000A30F1
:100CB800A400230DA30CA20CA40B5D2E2208A500F2
:100CC8002508FB000A30A0002008F2007B089C31B0
:100CD80032248531FF3A013E20006707A100210830
:100CE800E7006908A0000230A035FF3E031D782EFA
:100CF80020357B07A1002108E9006908A000A101AF
:100D08002008F2002108F3001A30F4000030F50042
:100D18009C31DD24853173082000A2002208FB00E5
:100D28000A30A0002008F2007B089C313224FF3AE8
:100D3800013E20006907A1002108E9000800200001
:100D4800E501682F290011082000A9002908B5002D
:100D5800941AA62EE401E501E50A682F2808DD00AB
:100D68002708DC0001309D314C2586312000A90080
:100D78002908B5007A18002F0230392F1E30DC0000
:100D88000030DD0001309D314C2586312000A9005E
:100D98002908B6007A18002F0330392F1E30DC00DE
:100DA8000030DD0001309D314C2586312000A9003E
:100DB8002908B7007A18002F0430392F1E30DC00BC
:100DC8000030DD0001309D314C2586312000A9001E
:100DD8002908B3007A18002F0530392F1E30DC009F
:100DE8000030DD0001309D314C2586312000A900FE
:100DF8002908B4007A1C032FE401E40A382F0630CE
:100E0800392F3408A900AA013308AB00AC012B081C
:100E1800AC00AB0129082B04AF002A082C04B00051
:100E2800B801B9013708A900AA0135083607AB008F
:100E3800AC01AC0D29082B07AD002A082C3DAE00EB
:100E480038082D07B80039082E3DB9003908300692
:100E5800031D302F38082F06031D342F0730392F74
:100E68000230A9002908E4000830A9002908E50093
:100E7800682F3708A900AA013608AB00AC012B0877
:100E8800AC00AB0129082B04B1002A082C04B200DD
:100E98003208A8003108A70008006403031D582F72
:100EA800EE30A0009130602F023020006406031D50
:100EB800682F2830A0009130A1002F30A200943074
:100EC800A3009E31C82686312000650884000930B9
:100ED80004020318682F98310435003E8200682FF9
:100EE8002000A7000330A8008631A3268731200000
:100EF8002808C9002708C80048188D2F0630A00008
:100F08009330A1001C30A2009330A3009E31C82664
:100F180087312000C8189B2F0630A0009330A1000D
:100F28002630A2009330A3009E31C82687312000C6
:100F38004819A92F0630A0009330A1003030A20034
:100F48009330A3009E31C82687312000C819B72FD7
:100F58000630A0009330A1003A30A2009330A300DD
:100F68009E31C826873125008C100C1020008C116A
:100F78000C11F430F6009330F7002F30F80094305D
:100F8800F9009C31AE24873115302200BA004B306D
:100F9800B900D130B800B80BCF2FB90BCF2FBA0B8F
:100FA800CF2F000034302200B900F130B800B80B60
:100FB800DB2FB90BDB2F00321F30F6009430F7001F
:100FC8006C30F8009330F9009C31AE24873134300E
:100FD8002200B900F130B800B80BF02FB90BF02F90
:100FE80000329430F3000030F40094309E314026F3
:080FF800E8308831842808006C
:10100200003400341F341F341F341F341F341F3484
:1010120000341F341F341F341F341F341F341F3455
:101022001F341F341F341F341F341F341F341F3426
:1010320000302000A3000030A2000030A1000030E8
:10104200A00064280030A3000030A2000030A100FC
:101052002C3062280030A3000030A2000030A10032
:10106200463062280030A3000030A2000030A10008
:10107200513062280030A3000030A2000030A100ED
:101082005D3062280030A3000030A2000030A100D1
:10109200623062280030A3000030A2000030A100BC
:1010A200653062280030A3000030A2000030A100A9
:1010B2007D3062280030A3000030A2000030A10081
:1010C2000030A00080287708003A031969285B28BD
:1010D20076080C3A031923281C3A03192B28033AE1
:1010E200031933280B3A03193B28043A03194328FE
:1010F200023A03194B283C3A031953285B2820086B
:101102009D312F2508002000A7000330A80086315A
:10111200A326883120002808C9002708C8004819DA
:10112200FE2F34302200B900F130B800B80B9728F6
:10113200B90B972800329430F3000030F400943059
:101142009E3140268831E8302000A7000330A800F5
:101152008631A326883120002808C9002708C80044
:10116200481D92281F30F6009430F700B430F80082
:101172009030F9009C31AE24883134302200B9001D
:10118200F130B800B80BC328B90BC3280032943031
:10119200F3000030F40094309E3140268831E8306C
:1011A2002000A7000330A8008631A3268831200042
:1011B2002808C9002708C800C819BE2834302200F0
:1011C200B900F130B800B80BE428B90BE4280032BA
:1011D2009430F3000030F40094309E314026883180
:1011E200E8302000A7000330A8008631A32688310A
:1011F20020002808C9002708C800C81DDF2833308E
:10120200F6009230F700AE30F8009030F9009C31D1
:10121200AE24883134302200B900F130B800B80B66
:101222001029B90B102900320230F3000030F4000B
:1012320087309E3140268831E8302000A7000330F5
:10124200A8008631A326883120002808C900270873
:10125200C80034302200B900F130B800B80B2F2991
:10126200B90B2F2900320230F3000030F40088302D
:101272009E3140268831E8302000A7000330A800C4
:101282008631A326883120002808C9002708C80013
:1012920034302200B900F130B800B80B4E29B90B36
:1012A2004E2900320230F3000030F40089309E31C2
:1012B20040268831E8302000A7000330A80086319C
:1012C200A326883120002808C9002708C800343026
:1012D2002200B900F130B800B80B6D29B90B6D29A5
:1012E20000320230F3000030F4008A309E31402692
:1012F2008831E8302000A7000330A8008631A326F9
:10130200883120002808C9002708C800343022008C
:10131200B900F130B800B80B8C29B90B8C29003216
:101322000230F3000030F4008F309E3140268831C5
:10133200E8302000A7000330A8008631A3268831B8
:1013420020002808C9002708C80034302200B9004C
:10135200F130B800B80BAB29B90BAB29003202301F
:10136200F3000030F40090309E3140268831E8309E
:101372002000A7000330A8008631A3268831200070
:101382002808C9002708C80034302200B900F1300B
:10139200B800B80BCA29B90BCA2900320230F300CF
:1013A2000030F40091309E3140268831E830200030
:1013B200A7000330A8008631A32688312000280820
:1013C200C9002708C80034302200B900F130B80043
:1013D200B80BE929B90BE92900329430F300003047
:1013E200F40094309E3140268831E8302000A70076
:1013F2000330A8008631A326883120002808C900BE
:101402002708C800C819E42934302200B900F13095
:10141200B800B80B0A2AB90B0A2A00329430F3003A
:101422000030F40094309E3140268831E8302000AC
:10143200A7000330A8008631A3268831200028089F
:10144200C9002708C800C81D052A8C30F600913053
:10145200F700AE30F8009030F9009C31AE248831AC
:1014620034302200B900F130B800B80B362AB90B7B
:10147200362A00320130F3000030F40087309E310A
:1014820040268831E8302000A7000330A8008631CA
:10149200A326883120002808C9002708C800343054
:1014A2002200B900F130B800B80B552AB90B552A01
:1014B20000320130F3000030F40088309E314026C3
:1014C2008831E8302000A7000330A8008631A32627
:1014D200883120002808C9002708C80034302200BB
:1014E200B900F130B800B80B742AB90B742A003273
:1014F2000130F3000030F40089309E3140268831FB
:10150200E8302000A7000330A8008631A3268831E6
:1015120020002808C9002708C80034302200B9007A
:10152200F130B800B80B932AB90B932A003201307C
:10153200F3000030F4008A309E3140268831E830D2
:101542002000A7000330A8008631A326883120009E
:101552002808C9002708C80034302200B900F13039
:10156200B800B80BB22AB90BB22A00320130F3002C
:101572000030F4008F309E3140268831E830200060
:10158200A7000330A8008631A3268831200028084E
:10159200C9002708C80034302200B900F130B80071
:1015A200B80BD12AB90BD12A00320130F300003036
:1015B200F40090309E3140268831E8302000A700A8
:1015C2000330A8008631A326883120002808C900EC
:1015D2002708C80034302200B900F130B800B80B37
:1015E200F02AB90BF02A00320130F3000030F40087
:1015F20091309E3140268831E8302000A700033028
:10160200A8008631A326883120002808C9002708AF
:10161200C80034302200B900F130B800B80B0F2BEB
:10162200B90B0F2B00329430F3000030F4009430E9
:101632009E3140268831E8302000A7000330A80000
:101642008631A326883120002808C9002708C8004F
:10165200C8190A2B34302200B900F130B800B80B97
:10166200302BB90B302B00329430F3000030F400F1
:1016720094309E3140268831E8302000A7000330A4
:10168200A8008631A326883120002808C90027082F
:10169200C800C81D2B2B8A30F6009330F700AE30FD
:1016A200F8009030F9009C31AE24883134302200A9
:1016B200B900F130B800B80B5C2BB90B5C2B0032CF
:1016C2000230F3000030F4008C309E314026883125
:1016D200E8302000A7000330A8008631A326883115
:1016E20020002808C9002708C80034302200B900A9
:1016F200F130B800B80B7B2BB90B7B2B0032943046
:10170200F3000030F40094309E3140268831E830F6
:101712002000A7000330A8008631A32688312000CC
:101722002808C9002708C800C819762B34302200BF
:10173200B900F130B800B80B9C2BB90B9C2B0032CE
:101742009430F3000030F40094309E31402688310A
:10175200E8302000A7000330A8008631A326883194
:1017620020002808C9002708C800C81D972B34305C
:101772002200B900F130B800B80BBD2BB90BBD2B5C
:1017820000320130F3000030F4008C309E314026EC
:101792008831E8302000A7000330A8008631A32654
:1017A200883120002808C9002708C8004430F60004
:1017B2009330F700AE30F8009030F9009C31AE243F
:1017C200883134302200B900F130B800B80BE72B71
:1017D200B90BE72B00329430F3000030F400943060
:1017E2009E3140268831E8302000A7000330A8004F
:1017F2008631A326883120002808C9002708C8009E
:10180200C819E22B34302200B900F130B800B80B0D
:10181200082CB90B082C00329430F3000030F4008D
:1018220094309E3140268831E8302000A7000330F2
:10183200A8008631A326883120002808C90027087D
:10184200C800C81D032CFC30F6009330F7004D3061
:10185200F8009230F9009C31AE24883134302200F5
:10186200B900F130B800B80B342CB90B342C00326B
:101872000230F3000030F4008D309E314026883172
:10188200E8302000A7000330A8008631A326883163
:1018920020002808C9002708C80029302200BA0001
:1018A2009630B900A630B800B80B552CB90B552CA0
:1018B200BA0B552C8130F3000030F40081309E3198
:1018C20040268831E8302000A7000330A800863186
:1018D200A326883120002808C9002708C80029301B
:1018E2002200BA009630B900A630B800B80B772CA7
:1018F200B90B772CBA0B772C0130200049025F30EC
:1019020003194802031C902C1930A0009430A10046
:10191200EC30A2009030A3009E31C82688313430CA
:101922002200B900F130B800B80B952CB90B952CF8
:1019320000320130F3000030F4008D309E31402639
:101942008831E8302000A7000330A8008631A326A2
:10195200883120002808C9002708C800FC30F6009A
:101962009330F700D230F8009130F9009C31AE2468
:10197200883134302200B900F130B800B80BBF2CE6
:10198200B90BBF2C00328430F3000030F4008430F5
:101992009E3140268831E8302000A7000330A8009D
:1019A2008631A326883120002808C9002708C800EC
:1019B20000304902043003194802031CEB2CBF30EB
:1019C200A0009230A100E030A2009130A3009E312D
:1019D200C826883134302200B900F130B800B80B83
:1019E200F02CB90BF02C00320230F3000030F4007E
:1019F20092309E3140268831E8302000A700033023
:101A0200A8008631A326883120002808C9002708AB
:101A1200C8000B302200BA002630B9006630B80088
:101A2200B80B112DB90B112DBA0B112D00328430C8
:101A3200F3000030F40084309E3140268831E830D3
:101A42002000A7000330A8008631A3268831200099
:101A52002808C9002708C8000030490203300319CA
:101A62004802031C3F2DBF30A0009230A100E0309D
:101A7200A2009130A3009E31C82688313430220062
:101A8200B900F130B800B80B442DB90B442D003227
:101A9200FE30F3000030F4008E309E314026883153
:101AA200E8302000A7000330A8008631A326883141
:101AB20020002808C9002708C80015302200BA00F3
:101AC2004B30B900D130B800B80B652DB90B652D7C
:101AD200BA0B652D00008430F3000030F40084302E
:101AE2009E3140268831E8302000A7000330A8004C
:101AF2008631A326883120002808C9002708C8009B
:101B020048084904031D902DBF30A0009230A10067
:101B12006730A2009230A3009E31C826883120008F
:101B22000C1C8C189F2DBF30A0009230A100623097
:101B3200A2009130A3009E31C826883120000C1CDF
:101B42008C1CAE2DBF30A0009230A1007030A200DC
:101B52009130A3009E31C826883120000C188C1CBD
:101B6200BD2DBF30A0009230A1007E30A200913086
:101B7200A3009E31C826883134302200B900F130EA
:101B8200B800B80BC22DB90BC22D00320130F300E0
:101B92000030F40092309E3140268831E830200037
:101BA200A7000330A8008631A32688312000280828
:101BB200C9002708C80003302200BA000830B90063
:101BC2007830B800B80BE32DB90BE32DBA0BE32D37
:101BD2000230F3000030F40093309E314026883109
:101BE200E8302000A7000330A8008631A326883100
:101BF20020002808C9002708C80006302200BA00C1
:101C02001330B900B130B800B80B052EB90B052E50
:101C1200BA0B052E003220000C1C8C181B2EBF3074
:101C2200A0009230A1006230A2009130A3009E3148
:101C3200C826883120000C188C182A2EBF30A0002C
:101C42009230A1007030A2009130A3009E31C826CC
:101C5200883120000C188C1C392EBF30A000923025
:101C6200A1007E30A2009130A3009E31C8268831A7
:101C720034302200B900F130B800B80B3E2EB90B57
:101C82003E2E00320030F300F4008E309E314026AA
:101C92008831E8302000A7000330A8008631A3264F
:101CA200883120002808C9002708C8000330220014
:101CB200BA000830B9007830B800B80B5E2EB90B04
:101CC2005E2EBA0B5E2E0130F3000030F40092302B
:101CD2009E3140268831E8302000A7000330A8005A
:101CE2008631A326883120002808C9002708C800A9
:101CF2006008031DBD2EFC30F6009330F700623001
:101D0200F8009330F9009C31AE24883127000C167C
:101D12000B302200BA002630B9006630B800B80B8A
:101D2200902EB90B902EBA0B902E0032FC30F3009D
:101D32000030F400FC309E3140268831D030200043
:101D4200A7000730A8008631A32688312000280882
:101D5200C9002708C80048034904031DBB2E9C3054
:101D6200A0009330A100F430A2009130A3009E3174
:101D7200C826883127000C128E30F6009030F7000A
:101D82002F30F8009430F9009C31AE2488312200C3
:101D92000D170D160430BA000C30B9003530B800FA
:101DA200B80BD12EB90BD12EBA0BD12E0032753011
:101DB2009D311325883173082000C7007208C600C0
:101DC20002304702823003194602031CF32E1130FF
:101DD200A0009330A1007E30A2009030A3009E317B
:101DE200C82688310230200047026A3003194602B1
:101DF2000318062F1130A0009330A1003730A20043
:101E02009130A3009E31C8268831FE302C009A0002
:101E1200B8302000D6000B30D700200056085704F7
:101E220003194E2F9D31DA25883120004308C7005F
:101E32004208C600003047023D3003194602031C27
:101E4200302F2C009A01CB302000A0009230A1004C
:101E5200B630A2009130A3009E31C82688312000FE
:101E62004708A7004608A6000130A8000030A900D4
:101E7200AA01AA0AAB01AB0A9F317B278831033042
:101E82002200BA000830B9007830B800B80B472FEA
:101E9200B90B472FBA0B472F0E2F003047022830BD
:101EA200031946020318632F2C009A01CB3020003D
:101EB200A0009230A1008E30A2009230A3009E3189
:101EC200C82688312C009A0103302200BA0008305B
:101ED200B9007830B800B80B6C2FB90B6C2FBA0B65
:101EE2006C2F22000D120D130930BA001E30B900FA
:101EF200EB30B800B80B7B2FB90B7B2FBA0B7B2FC3
:101F0200000034302200B900F130B800B80B872F3E
:101F1200B90B872F00322900951306302200B90031
:101F22003030B800B80B932FB90B932F0000290063
:101F32009517FD30F3000030F400FD309E3140264D
:101F42008831E8302000A7000330A8008631A3269C
:101F5200883120002808C9002708C8000B30220059
:101F6200BA002630B9006630B800B80BB62FB90BEC
:101F7200B62FBA0BB62F00327630F6009330F70048
:101F82002F30F8009430F9009C31AE2488310430AF
:101F92009E310D268831F4302000CA000130CB007A
:101FA20022008E168E1AD32F0530BA000F30B900D8
:101FB200F430B800B80BDB2FB90BDB2FBA0BDB2FD9
:101FC200F4302000CA000130CB0022008E168E1A97
:101FD200E82F0530BA000F30B900F430B800B80B62
:101FE200F02FB90BF02FBA0BF02FE8302000CA0007
:101FF2000330CB0022008E16FD2F8731EB2F0F34DA
:1020020000342D343E34203449346E347334653414
:1020120072347434203450344334423420342634FD
:10202200203453347434613472347434003444349C
:10203200433442344134203452346F346C346C347F
:102042002D34753470342034503461347334733425
:10205200003449346E347334653472347434203449
:102062004E3465347734203442346F346134723400
:102072006434003454346534733474342D344A3443
:10208200693467347C345334743461347234743454
:102092007534703400345434683465346E3420340A
:1020A200503472346534733473342034533474349A
:1020B2006134723474340034203474346F34203414
:1020C2007234653473347434613472347434203449
:1020D20074346534733474340034443443344234D5
:1020E2004134203452346F346C346C342D347534B2
:1020F2007034203454344A34003456346F346C34DF
:102102007434613467346534203474346F34203469
:102112004834693467346834003454346534733471
:10212200743469346E34673420344334683461342F
:10213200723467346534723400344D3465346D342E
:102142005F3443346F34703469346534723420340C
:10215200503461347334733400345034723465341F
:1021620073347334203444346F3477346E3420340F
:1021720042347534743474340034423475347434F3
:102182007434203444346F3477346E342034493418
:102192006E3470347534743400344C346F346334B8
:1021A20061346C3420347634653472347334693477
:1021B2006F346E342034003450346F3477346534E5
:1021C200723469346E346734203442346F3461348B
:1021D20072346434003443346834613472346734A2
:1021E20065342034443469347334613462346C3479
:1021F2006534003456343134203456346F346C3400
:1022020074346134673465342D344A346934673444
:10221200003443346F346E3464346F3433342034D6
:1022220054346534733474346A3469346734003432
:102232004234653461346D34203449346E34703440
:102242007534743420344534723472340034433477
:102252006F346D346D3473345F34443461347434A8
:1022620061345F34453472347234003456346F341E
:102272006C347434613467346534203474346F34AC
:1022820020344C346F347734003453344D34583462
:1022920049342034763465347234733469346F349B
:1022A2006E3420340034503472346F3467347234F4
:1022B20061346D346D3469346E3467342E342E34A7
:1022C2000034433469347234633475346934743499
:1022D200203445347234723420343134003443347F
:1022E2006934723463347534693474342034453457
:1022F20072347234203432340034433469347234E8
:10230200633475346934743420344534723472342D
:1023120020343334003441346C346C3420344C3443
:1023220065346434733420344F34663466343F3455
:1023320000342D343E34203449346E3473346534E1
:1023420072347434203450344334423400342034F0
:10235200523465346D346F347634653420346234EB
:102362006F346134723464340034433475347234FB
:102372007234203474346F346F34203468346934E6
:1023820067346834003441346C346C34203469343A
:102392006F342734733420346834693467346834D2
:1023A20000344D346F3474346F3472342034433417
:1023B20069347234633475346934743400344334A8
:1023C2006934723463347534693474342034533468
:1023D20068346F3472347434003443346F346D347F
:1023E2006D3473342034543469346D3465346F344D
:1023F2007534743400344234753474347434203493
:1024020055347034203449346E3470347534743435
:10241200003445346E3463346F346434653472345A
:10242200203449346E347034753474340034453495
:10243200633461346E342034523478342034493475
:102442006E3470347534743400344D346534613410
:1024520073347534723469346E34673420345634CC
:102462003134003441346C346C3420344C346534AF
:102472006434733420344F346E343F340034563471
:102482003134203456346F346C34743461346734EC
:102492006534203462340034423461347434743428
:1024A2006534723479342034443469347334633497
:1024B20000344E346F3474342034723465346C34E6
:1024C20065346134733465346434003443346934BC
:1024D2007234633475346934743420344F34703454
:1024E20065346E340034443443344234413420344D
:1024F20052346F346C346C342D347534703400348F
:102502004D346534613473347534723469346E34E5
:1025120067342034353476340034433475347234BD
:102522007234203474346F346F3420346C346F342A
:102532007734003450347234653473347334203455
:1025420053345434413452345434003452345834B1
:102552003334203454346534733474346A34693413
:1025620067340034503472346F34673472346134F7
:102572006D346D3469346E346734003445347234EA
:1025820072346F34723420344D346F3474346F3497
:1025920072340034433468346134723467346534DD
:1025A20072342034453472347234003443346F341C
:1025B2006E3464346F3433342034503461347334C1
:1025C200733400344D346F3474346F3472342034C5
:1025D200533468346F347234743400344C34693494
:1025E2006D3469347434203449346E347034753443
:1025F2007434003435345634203456346F346C34E9
:10260200743461346734653400344534723472345E
:102612006F34723420344834693467346834003497
:102622004334683461347234673465342034453459
:10263200723472340034533458344D3449342034B3
:1026420063346834203431340034533458344D34D4
:1026520049342034633468342034323400345334FF
:1026620058344D344934203463346834203433349C
:102672000034533458344D3449342034633468348C
:10268200203434340034423475347A347A34203489
:102692004F34663466343F34003445347234723415
:1026A2006F34723420344C344F34573400344D3448
:1026B2006534613473347534723469346E3467341A
:1026C20000345234783420345334793473347434CB
:1026D20065346D34003455347034203442347534EA
:1026E200743474346F346E34003454346534733457
:1026F20074342034503461347334733400345134BC
:102702002034433475347234723465346E34743424
:102712000034423475347A347A3420344F346E348F
:102722003F340034563432342034533445344E343A
:102732005334453400344534723472346F34723455
:1027420020345234463400344234793470346134A3
:10275200733473346534643400344434653474340B
:1027620065346334743465346434003464346534F9
:1027720074346534633474346534643400345434EA
:102782006F346F3420344834693467346834003429
:102792005234583433342034503461347334733403
:1027A200003442347434203449346E347034753415
:1027B2007434003443346834653463346B34203405
:1027C20035347634003443346F346E3464346F34C9
:1027D20033342034003435345634203453344D34B9
:1027E20058344934003453344D3458344934203445
:1027F2004F344B3400345434653473347434693494
:102802006E346734003454346F346F3420344C34B3
:102812006F347734003456342034483469346734A2
:10282200683400344534523452344F345234003414
:102832004534723472346F3472340034503472342A
:102842006534733473340034563420344C346F346A
:10285200773400345234583433342034003444341E
:102862006F346E34653400348B1322000F11000074
:102872000000000000000000000000000000000056
:10288200F6011030760203185F2C721C4B2C2200CA
:102892000F154D2C22000F117308F5007208F40079
:1028A200F536F40C7408F2007508F3000130F400F8
:1028B2007408F60710307602031C462C0000000054
:1028C200000000000000000022000F1500000000C0
:1028D2000000000000000000000000008B1708004C
:1028E20020003408B8003508B9003608BA000310D1
:1028F200390D3A0DBB003B08C1004108031D8A2C6B
:102902000030B7000030B6000030B5000030B4002F
:1029120008003408B8003508B9003608BA00173084
:10292200BA36B90CB80C890B912C3808BB003B089D
:10293200BC00B517FF30B405FF30B5050030B60551
:102942003408BD003508BE003608BF00C0018E3015
:10295200C102C11FC82C4108803A8F3E0318BA2C0D
:102962000030B7000030B6000030B5000030B400CF
:1029720008000130C036BF0CBE0CBD0C890BBB2C4D
:102982000130B8003808C1070319E12CBA2C1830FD
:102992004102031CDE2C0030B7000030B6000030CC
:1029A200B5000030B40008000130BD35BE0DBF0DCA
:1029B200C00D890BD62C0130C1024108031DD52C54
:1029C2003C080319EF2CBD09BE09BF09C009BD0AA5
:1029D2000319BE0A0319BF0A0319C00A4008B70047
:1029E2003F08B6003E08B5003D08B40008002000CC
:1029F200481B062D1930A0009430A100D230A2004D
:102A02009330A3009E31C8269431FC30F6009330F7
:102A1200F700C430F8009130F9009C31AE249431B3
:102A220027000D1434302200B900F130B800B80B81
:102A3200182DB90B182D00329430F3000030F40039
:102A420094309E3140269431E8302000A7000330B4
:102A5200A8008631A326943120002808C90027083F
:102A6200C800481F3F2D1930A0009430A100D23079
:102A7200A2009330A3009E31C826943127000D1086
:102A82008D1534302200B900F130B800B80B472D53
:102A9200B90B472D00329430F3000030F40094302B
:102AA2009E3140269431E8302000A7000330A80070
:102AB2008631A326943120002808C9002708C800BF
:102AC200C81E6E2D1930A0009430A100EF30A20074
:102AD2009230A3009E31C826943127008D118C17A5
:102AE20034302200B900F130B800B80B762DB90BA2
:102AF200762D00329430F3000030F40094309E3191
:102B02004026E8309631A42E0030200049021D30C4
:102B120003194802031C982D1930A0009130A1001E
:102B22000C30A2009430A3009E31C82695310030AB
:102B3200200049021230031948020318AB2D193044
:102B4200A0009130A1002530A2009430A3009E3154
:102B5200C826953127000D12FC30F6009330F7009D
:102B6200C430F8009130F9009C31AE249531943094
:102B7200F3000030F40094309E3140269531E83065
:102B82002000A7000330A8008631A326953120003B
:102B92002808C9002708C8004818DA2D1930A000F3
:102BA2009430A1000A30A2009230A3009E31C826C0
:102BB20095312000C818E82D1930A0009430A100EA
:102BC2001830A2009230A3009E31C8269531200011
:102BD2004819F62D1930A0009430A100FC30A20053
:102BE2009130A3009E31C82695312000C819042EC9
:102BF2001930A0009430A100BE30A2009030A30092
:102C02009E31C82695312000C81A112E1930A00015
:102C12009430A100EF30A2009230A3009E31C8266A
:102C22009431F82CF3000030F40095309E314026A8
:102C32009631E8302000A7000330A8008631A32691
:102C4200963120002808C9002708C8004908A700B3
:102C52004808A6000130A8000030A900AA01AA0A6B
:102C6200AB01AB0A9F317B2796313D302200BA007F
:102C7200E130B9007A30B800B80B3D2EB90B3D2EC9
:102C8200BA0B3D2E00322000481C522E4E30A000BE
:102C92009330A1001C30A2009330A3009E31C826BD
:102CA20096312000C81C602E4E30A0009330A10047
:102CB2002630A2009330A3009E31C8269631200010
:102CC200481D6E2E4E30A0009330A1003030A2007D
:102CD2009330A3009E31C82696312000C81D7C2E59
:102CE2004E30A0009330A1003A30A2009330A300EE
:102CF2009E31C826963134302200B900F130B80036
:102D0200B80B812EB90B812E003225008C140C14C5
:102D120020008C150C1515302200BA004B30B9007A
:102D2200D130B800B80B932EB90B932EBA0B932E59
:102D320000009630F3000030F40096309E314026B9
:102D4200E8308731742F2000A7000330A8008631B5
:102D5200A326963120002808C9002708C800481C6D
:102D6200BD2E1930A0009430A1000A30A20092308A
:102D7200A3009E31C826963127008C1334302200DE
:102D8200B900F130B800B80BC42EB90BC42E003212
:102D92000230F3000030F40086309E314026963136
:102DA200E8302000A7000330A8008631A326963120
:102DB20020002808C9002708C80034302200B900C2
:102DC200F130B800B80BE32EB90BE32E0032943089
:102DD200F3000030F40094309E3140269631E83002
:102DE2002000A7000330A8008631A32696312000D8
:102DF2002808C9002708C800C81C0A2F1930A000DB
:102E02009430A1001830A2009230A3009E31C8264F
:102E120096310130F3000030F40086309E314026B6
:102E22009631E8302000A7000330A8008631A3269F
:102E3200963120002808C9002708C8003430220033
:102E4200B900F130B800B80B242FB90B242F00328F
:102E52002000600803194A2F25008C100C10200056
:102E62008C110C1134302200B900F130B800B80BCB
:102E7200382FB90B382F00322F30F6009430F7007C
:102E82002F30F8009430F9009C31AE249530963101
:102E9200132E8731D62F20002408AA002508AB0064
:102EA2002608AC0003102B0D2C0DAD002D08AE0032
:102EB2002E08031D632F0030A4000030A50000304F
:102EC200A60008002708AA002808AB002908AC00C1
:102ED20003102B0D2C0DAD002D08B3003308031D7C
:102EE200792F0030A4000030A5000030A6000800B1
:102EF20033087B3EAA002A08AE072408AA00250848
:102F0200AB002608AC001030AC36AB0CAA0C890B17
:102F1200852F2A08AD002D08B3002708AA0028082B
:102F2200AB002908AC001030AC36AB0CAA0C890BF4
:102F3200952F2A08AD002D08B3068030AA002A0872
:102F4200B305A517A817FF30A705FF30A805003065
:102F5200A9050030AF000030B0000030B1000730EA
:102F6200AA002A08B200241CBC2F2708AF07280891
:102F7200B03D2908B13D0130A636A50CA40C890B41
:102F8200BD2F0130A735A80DA90D890BC32F013024
:102F9200B202031DB42F0930AA002A08B200241C71
:102FA200D82F2708AF072808B03D2908B13D0130C6
:102FB200A636A50CA40C890BD92F0130B136B00C62
:102FC200AF0C890BDF2F0130B202031DD02F2F0867
:102FD200F2003008F3003108F4002E08AA002A0893
:102FE200F5003308AB002B08F6009F311727720853
:102FF2002000A4007308A5007408A600080086310A
:10300200AC2E8631B22E8631C22E8631D22E863138
:10301200E22E8631F22E8731052F87313D2F8731FF
:10302200512F8031C3288031372880314C2880319C
:103032005428803161288031BC288031D9289E31C2
:103042000F2E9E31132E9E311B2E9E31232E9E312A
:023052002B2E23
:1037DE00E8340334023424001614161C0800F42BAB
:1037EE0024001615161D0800F92BFE0012001E00EF
:1037FE00FE0BFD2B0034640080010131890B032C7C
:10380E000034F2002900961C092C72089200080060
:10381E00833022009700013021009D00A3309E00CE
:10382E009C019B01080020302900960090309500E5
:10383E00083097009401673093000800F200720878
:10384E00240091001418292C16081F39031D2B2C47
:10385E00141D08002B2CF500F401751C3A2C72086F
:10386E00F3007308F4070310F20D0310F50C75083E
:10387E00031D342C74080800F3009B31F2239C3195
:10388E007C309C3125249C3140309C3125249C3148
:10389E0073089C3125249C319B31F72308002000AE
:1038AE002008F2002108F300F4018E30A300230853
:1038BE00F500F6019F31172772082000A00073084B
:1038CE00A1007408A2000800063020009C00FA3007
:1038DE009B002100911404302B009700FF309600BE
:1038EE000C302C009C00013025009F002C009A010A
:1038FE0008009B31F2239C317C309C3125249C3175
:10390E0000309C3125249C3180309C3125249C3103
:10391E002330F300F30B912C00329B31F723080078
:10392E009B31F2239C317C309C3125249C3100301C
:10393E009C3125249C31C0309C3125249C31233070
:10394E00F300F30BA82C00329B31F72308009C31B7
:10395E00F8249C319C3180249C317708F400760841
:10396E00F3009D316B259C319C3197249C31790855
:10397E00F4007808F3009D316B25080020008C16AA
:10398E000530F4000F30F300F430F200F20BCD2CC2
:10399E00F30BCD2CF40BCD2C21008E150E1624001E
:1039AE00941728309500143092000800F601F701A4
:1039BE00721CE52C7408F6077508F73D0130F435D6
:1039CE00F50D890BE62C0130F336F20C890BEB2C3E
:1039DE0072087304031DDF2C7708F3007608F200DB
:1039EE0008009B31F2239C317C309C3125249C3184
:1039FE0000309C3125249C3101309C3125249C3192
:103A0E000B30F4006230F300F30B0B2DF40B0B2D87
:103A1E0000009B31F7230800F8008B137808210073
:103A2E009D000630F5003030F400F40B1C2DF50B24
:103A3E001C2D000021009D149D18232D1C08F7003D
:103A4E001B08F6008B177708F3007608F2000800C3
:103A5E00F5009B31F2239D315C309C3125249D3144
:103A6E0000309C3125249D3175089C3125249D31D3
:103A7E009B31F7239D316830F400E430F300F30BF3
:103A8E00462DF40B462D00000800F2007A1020009F
:103A9E00941A612D7208031D592D1E302000DC0072
:103AAE000030DD0020005C085D04031D4E2D7A14ED
:103ABE00003008002900951C692D951395177A146E
:103ACE0000300800110808009B31F2239D317C3034
:103ADE009C3125249D3140309C3125249D31730825
:103AEE00840074088500120003198A2D730884005F
:103AFE007408850000089C3125249D310130F307A0
:103B0E000030F43D762D9B31F7230800F500F601C9
:103B1E00F60A0130F3029B31F2239D317C309C3149
:103B2E0025249D3100309C3125249D317308CF39D9
:103B3E00F4007408F6007503031DA72DF617AB2DC0
:103B4E00C030F4007408F60476089C3125249D31AB
:103B5E009B31F72308000034003400340034003465
:103B6E00003400341F340034003400340034003488
:103B7E0000341F341F340034003400340034003459
:103B8E001F341F341F3400340034003400341F340B
:103B9E001F341F341F340034003400341F341F34DC
:103BAE001F341F341F3451309D3113259D3173083E
:103BBE002000C5007208C4004508A1004408A000FA
:103BCE009C3156249D3120002008A7002108A80012
:103BDE002208A900D730A400A330A5003F30A600CC
:103BEE0097314C279D3120002408B4002508B500DC
:103BFE002608B6009431712420003508C50034081B
:103C0E00C4004508C3004408C2000800F200352E67
:103C1E0022000F168F16080022000C130F168F1697
:103C2E000F138F138D12080022000C130F128F1218
:103C3E000F138F138D12080022000C130F128F1208
:103C4E000F138F138D12080022000C130F128F12F8
:103C5E000F138F130D120D138D12080072088400AE
:103C6E00053004020318080098310435203E820006
:103C7E0008002000A8007408A0002008A9007308FE
:103C8E00A0002008AA00AB01AC012A08A000A101E7
:103C9E0028082907A200A301A30D20082207A400CB
:103CAE002108233DA5002B082407AB002C08253D39
:103CBE00AC002C08A0002008A6002B08A0002008AD
:103CCE00A70028089C3108249E31200029089C3129
:103CDE0008249E3120002A089C3108249E312000A1
:103CEE0026089C3108249E31200027089C31082488
:103CFE000800F6009B31F2239E317C309C31252446
:103D0E009E3100309C3125249E3139309C31252442
:103D1E009E311C309C3125249E31760870389C31A2
:103D2E0025249E3150309C3125249E316C309C319F
:103D3E0025249E317303031DA82E38309C31252473
:103D4E009E3102307306031DB02E34309C31252473
:103D5E009E310C309C3125249E3106309C31252419
:103D6E009E3101309C3125249E310B30F50062309E
:103D7E00F400F40BC02EF50BC02E00009B31F72380
:103D8E0008002C009A0104309E310D269E31200031
:103D9E001010E830F2000330F3008731FF279E3118
:103DAE009C31F8249E319C3180249E3120002108C4
:103DBE00F4002008F3009D316B259E319C31972431
:103DCE009E3120002308F4002208F3009D316B255C
:103DDE009E3129302000A6009630A500A630A40002
:103DEE00A40BF72EA50BF72EA60BF72E9B30F60085
:103DFE009230F7005D30F8009030F9009C31AE241F
:103E0E009E3119302000A6005A30A500C830A400FB
:103E1E00A40B0F2FA50B0F2FA60B0F2F0032D72E93
:103E2E00750803191F2F740873047204031D302FB5
:103E3E000030F2000030F3000030F40008000130D2
:103E4E00F7007708F5070130F436F30CF20C890B06
:103E5E002B2FFE3074050319492F262F0130F70042
:103E6E007708F5070130F207003003180130F30729
:103E7E00003003180130F4070130F436F30CF20C65
:103E8E00890B442FFF3074050319562F352F01303F
:103E9E00F5020130F235F30DF40D890B512FF31BA2
:103EAE005C2F0230750203184E2F7518642FFF30E9
:103EBE00F2057F30F305FF30F4050310F50C75089D
:103ECE00F700F801F9011030F735F80DF90D890BEF
:103EDE006B2F7708F2047808F3047908F404760857
:103EEE0003190800F417080020002B03FF3A2807D7
:103EFE00013EAC002C08F30002309D318D259F3120
:103F0E0020002708F9002608F800853189259F3101
:103F1E0020002B0803199F2F7B08031D982F2A1EA4
:103F2E009B2F7B08303E9C2F20309C3143249F31A9
:103F3E0020002A1EA62F2E309C3143249F312000B4
:103F4E006908031DB12F7B08031DB12F2A081839EC
:103F5E000319B42F6908303EB52F20309C3143240D
:103F6E009F312000AA1DBF2F2E309C3143249F313C
:103F7E0020006708031DCD2F6908031DCD2F7B0878
:103F8E00031DCD2F2A081C390319D02F6708303E88
:103F9E00D12F20309C3143249F3120002A1DDB2F4E
:103FAE002E309C3143249F3120006808031DEC2FD6
:103FBE006708031DEC2F6908031DEC2F7B08031DFA
:103FCE00EC2F2A081E390319EF2F6808303EF02F08
:103FDE0020309C3143249F312000AA1CFA2F2E3012
:103FEE009C3143249F3120006A08303E9C3143248B
:023FFE000800B9
:020000040001F9
:04000E004CCFFFDBF9
:00000001FF
