:040000008031C8285B
:100008007E14803120007F08F1000B1D1C285D083C
:100018005E0403191328FF30DD07FF30DE3D510869
:10002800520403191B28FF30D107FF30D23D0B11B2
:10003800911CC42859085A04031926280130D902EA
:100048000030DA3B5F08600403192E280130DF0214
:100058000030E03B57085804031997280130D702AD
:100068000030D83BA12822000E158E17F43020004E
:10007800D7000130D80002305328F430D7000130BF
:10008800D80022000E170330922822000E132000F9
:10009800D301D401F430D7000130D8000430F00087
:1000A800700895280130D3070030D43D1F30540222
:1000B8004130031953020318E401901F0D1C6F28E7
:1000C80001302100E2070030E33D0530F000700800
:1000D8002000E40072282100E201E3012000901FC3
:1000E8000D1883280130D5070030D63D013056025F
:1000F800913003195502031C8528E4018528D50190
:10010800D6010130D7000030D800A12822000E11F6
:100118008E13A12822000E118E130630F0007008ED
:100128002000E400A12864088400073004020318B2
:10013800A12898310435123E820020004D084E0453
:100148000319AB280130CD020030CE3BAD28220088
:100158008E1220006D086E040319B7280130ED02D5
:100168000030EE3BBB28E830ED000330EE005B08C2
:100178005C040319C3280130DB020030DC3B91101A
:100188007108FF007E1009008031CA28FA01FB01BE
:1001980049308400003085002430883102208031C5
:1001A800C830840000308500263088310220803134
:1001B8002C3084009F3085006D3086000030870029
:1001C80003309F313927803108308400883085001A
:1001D800A03086000030870028309F3139278031D1
:1001E800BA308400933085002030860001308700C3
:1001F80018309F3139277E1020008531562D780818
:100208001F392000A0002008EC007908A100780818
:10021800A0000530A200210DA10CA00CA20B0F29F3
:1002280020080F39A3002308EA007908A1007808FC
:10023800A0000930A200210DA10CA00CA20B1F29BF
:1002480020080F39A3002308E9007908A1007808DD
:10025800A0000D30A200210DA10CA00CA20B2F298B
:1002680020080739A3002308EB006B0869076A0711
:1002780009076C07A0002008EC006C08A000A10189
:100288002008F2002108F3006730F4000030F50080
:100298009331D223813172082000A2007308A30091
:1002A8000A30A400230DA30CA20CA40B5629220883
:1002B800A5002508FB000A30A0002008F2007B08F2
:1002C8009F316D278131FF3A013E20006C07A10064
:1002D8002108EC000330A0002008F2006A089F31D2
:1002E8006D2781312000A1000930A2002208F20008
:1002F8006B089F316D2781312000210769077B0733
:10030800A3002308EA006A08A000A1012008F2005F
:100318002108F3006730F4000030F5009331D22350
:10032800813172082000A2007308A3000A30A400DB
:10033800230DA30CA20CA40B9C292208A5002508B8
:10034800FB000A30A0002008F2007B089F316D27CF
:100358008131FF3A013E20006A07A1002108EA0026
:100368000530A0002008F20069089F316D2781310F
:1003780020006B077B07A1002108E9006908A0009D
:10038800A1012008F2002108F3006730F4000030D2
:10039800F5009331D223813172082000A20073083E
:1003A800A3000A30A400230DA30CA20CA40BD72988
:1003B8002208A5002508FB000A30A0002008F2004A
:1003C8007B089F316D278131FF3A013E2000690784
:1003D800A1002108E9006B08A0000230A035FF3E0B
:1003E800031DF22920357B07A1002108EB006B08CB
:1003F800A000A1012008F2002108F3001A30F4003F
:100408000030F5009331D223813173082000A20017
:100418002208FB000A30A0002008F2007B089F3168
:100428006D27FF3A013E20006B07A1002108EB0071
:1004380008002000E701E22A290011082000A9008D
:100448002908B500941A202AE601E701E70AE22AFA
:100458002808E0002708DF00013094314124823168
:100468002000A9002908B5007A187A2A0230B32A90
:100478001E30DF000030E000013094314124823129
:100488002000A9002908B6007A187A2A0330B32A6E
:100498001E30DF000030E000013094314124823109
:1004A8002000A9002908B7007A187A2A0430B32A4C
:1004B8001E30DF000030E0000130943141248231E9
:1004C8002000A9002908B3007A187A2A0530B32A2F
:1004D8001E30DF000030E0000130943141248231C9
:1004E8002000A9002908B4007A1C7D2AE601E60A42
:1004F800B22A0630B32A3408A900AA013308AB008F
:10050800AC012B08AC00AB0129082B04AF002A086A
:100518002C04B000B801B9013708A900AA013508B0
:100528003607AB00AC01AC0D29082B07AD002A0833
:100538002C3DAE0038082D07B80039082E3DB9000B
:1005480039083006031DAA2A38082F06031DAE2ACB
:100558000730B32A0230A9002908E6000830A900AC
:100568002908E700E22A3708A900AA013608AB00E3
:10057800AC012B08AC00AB0129082B04B1002A08F8
:100588002C04B2003208A8003108A700080066034E
:10059800031DD22AC330A0009130DA2A023020008D
:1005A8006606031DE22A1930A0009130A1009F3091
:1005B800A2009330A3009531D1258231200067082D
:1005C8008400093004020318E22A98310435003EF9
:1005D8008200E22A20002408AA002508AB00260889
:1005E800AC0003102B0D2C0DAD002D08AE002E080D
:1005F800031D052B0030A4000030A5000030A60024
:1006080008002708AA002808AB002908AC00031036
:100618002B0D2C0DAD002D08B3003308031D1B2B2B
:100628000030A4000030A5000030A6000800330800
:100638007B3EAA002A08AE072408AA002508AB00BA
:100648002608AC001030AC36AB0CAA0C890B272B53
:100658002A08AD002D08B3002708AA002808AB0017
:100668002908AC001030AC36AB0CAA0C890B372B20
:100678002A08AD002D08B3068030AA002A08B30561
:10068800A517A817FF30A705FF30A8050030A90552
:100698000030AF000030B0000030B1000730AA00D1
:1006A8002A08B200241C5E2B2708AF072808B03D93
:1006B8002908B13D0130A636A50CA40C890B5F2B87
:1006C8000130A735A80DA90D890B652B0130B202A1
:1006D800031D562B0930AA002A08B200241C7A2BC5
:1006E8002708AF072808B03D2908B13D0130A636D4
:1006F800A50CA40C890B7B2B0130B136B00CAF0CC8
:10070800890B812B0130B202031D722B2F08F200D6
:100718003008F3003108F4002E08AA002A08F50072
:100728003308AB002B08F600963127267208200004
:10073800A4007308A5007408A60008002000C600DD
:10074800C60BA42B04309431DA248331F430200012
:10075800CD000130CE0022008E166E30F6009030AB
:10076800F7000230F8009030F9009F31E927833113
:1007780025000C19CB2BD730F6009030F700463007
:10078800F8009330F9009F31E9278331D72B6E3079
:10079800F6009030F7000230F8009030F9009F31F1
:1007A800E9278331D62BCE30F6009030F7009E3003
:1007B800F8009330F9009F31E927833122008F1622
:1007C80004302000C8000C30C7003530C600C60B06
:1007D800EB2BC70BEB2BC80BEB2B003222000F16B1
:1007E80029302000C8009630C700A630C600C60BC6
:1007F800FB2BC70BFB2BC80BFB2B00309431DA24E7
:1008080083310B302000C8002630C7006630C60090
:10081800C60B0C2CC70B0C2CC80B0C2C003222302E
:10082800F6000030F70096318B2683310B3020001C
:10083800C8002630C7006630C600C60B212CC70B7F
:10084800212CC80B212C003220000C1C2D2C8C18BC
:10085800372C8930A0009330A100B830A200923024
:10086800A3009531D1258631652E003020004A023B
:10087800863003194902031C4C2CD030A00092305A
:10088800A1004F30A2009330A3009531D1258431C7
:100898008830F6009230F7003D30F8009330F900C8
:1008A8009F31E927843115302000C8004B30C7003C
:1008B800D130C600C60B5E2CC70B5E2CC80B5E2C55
:1008C80000009F31552784319F314A2784310730F2
:1008D8002000C8001730C7006F30C600C60B722C46
:1008E800C70B722CC80B722C00008030F30000304C
:1008F800F4008030953149258431E8302000A70084
:100908000330A80082311D22843120002808CC0041
:100918002708CB0002304C02633003194B02031C3A
:10092800A02C1530A0009230A1004F30A2009330C7
:10093800A3009531D1258431023020004C02443087
:1009480003194B020318B32C1530A0009230A100F4
:100958007A30A2009330A3009531D125843122004A
:100968000D170D1605302000C8000F30C700F430F1
:10097800C600C60BBD2CC70BBD2CC80BBD2C7530D3
:100988009431082473088431C92C2000CA007208E5
:10099800C90002304A02873003194902031CDF2CC0
:1009A800DB30A0009230A1007E30A2009030A3007E
:1009B8009531D1258431023020004A026A3003196A
:1009C80049020318F22CDB30A0009230A100283035
:1009D800A2009130A3009531D125843122000D1356
:1009E8000D1205302000C8000F30C700F430C600D3
:1009F800C60BFC2CC70BFC2CC80BFC2C8130F3005D
:100A08000030F4008130953149258431E8302000E8
:100A1800A7000330A80082311D2284312000280855
:100A2800CC002708CB0002304C02073003194B02D8
:100A3800031C292D2B30A0009330A1004F30A200B9
:100A48009330A3009531D1258431013020004C0228
:100A5800EF3003194B0203183C2D2B30A0009330C4
:100A6800A1007A30A2009330A3009531D1258431BA
:100A780027000D1207302000C8001730C7006F305C
:100A8800C600C60B452DC70B452DC80B452D0000CC
:100A98008530F3000030F400853095314925E83081
:100AA8008631EC2E7A3021009900D0309500200054
:100AB80095010B118B160B3021008C000F308D0027
:100AC8001A308E008F308F00F63090002B302600C1
:100AD8008C00E6308D0020008C018D018E014030A5
:100AE8008F00900125008C018D0124008D018F015C
:100AF8000830900023008C010C308D000F308F00DF
:100B080006309000013028008C008D0104309431AB
:100B1800DA2485319F313F2785319F31A6278531DA
:100B280006302000C6004608E4008C12C830F200E7
:100B38000030F3008731FF27853120008C16933170
:100B4800A223853138302000C6004608F30008305B
:100B58009531892585314930F6009230F7003B30D0
:100B6800F8009030F9009F31E927853120000C16F4
:100B78008B170330C8000830C7007830C600C60B92
:100B8800C32DC70BC32DC80BC32DAA30F200AA3042
:100B9800F30095310D25853185302000C600C60B40
:100BA800D32D5530F2005530F30095310D258530A1
:100BB8008331A22B20003408B8003508B900360864
:100BC800BA000310390D3A0DBB003B08C1004108BB
:100BD800031DF72D0030B7000030B6000030B50017
:100BE8000030B40008003408B8003508B9003608E9
:100BF800BA001730BA36B90CB80C890BFE2D380874
:100C0800BB003B08BC00B517FF30B405FF30B50585
:100C18000030B6053408BD003508BE003608BF00F0
:100C2800C0018E30C102C11F352E4108803A8F3E67
:100C38000318272E0030B7000030B6000030B5008A
:100C48000030B40008000130C036BF0CBE0CBD0C2B
:100C5800890B282E0130B8003808C10703194E2E19
:100C6800272E18304102031C4B2E0030B7000030ED
:100C7800B6000030B5000030B40008000130BD35C2
:100C8800BE0DBF0DC00D890B432E0130C1024108B6
:100C9800031D422E3C0803195C2EBD09BE09BF097D
:100CA800C009BD0A0319BE0A0319BF0A0319C00AFD
:100CB8004008B7003F08B6003E08B5003D08B4003C
:100CC8000800F030F6009230F7001830F800933042
:100CD800F9009F31E9278631003020004A0215309B
:100CE80003194902031C832E1830A0009330A10079
:100CF8004F30A2009330A3009531D1258631FB30C7
:100D0800F6009130F7009F30F8009330F9009F31DA
:100D1800E927863169309431082486317308200028
:100D2800CA007208C90002304A02BC3003194902DD
:100D38000318A92EEC30A0009030A1007A30A20050
:100D48009330A3009531D12586315630F600923084
:100D5800F7009F30F8009330F9009F31E92786317A
:100D6800613094310824863173082000CA00720863
:100D7800C9006030F6009230F7009F30F8009330D9
:100D8800F9009F31E927863120004A08A700490861
:100D9800A6000130A8000030A900AA01AA0AAB01E8
:100DA800AB0A873173278631003020004A026E3043
:100DB800031949020318EA2ED030A0009230A1008E
:100DC8007A30A2009330A3009531D1258431392C93
:100DD8002000A7000330A80082311D2286312000A0
:100DE8002808CC002708CB0003304C02F230031946
:100DF8004B0203180A2F0A30A0009130A1002F30AF
:100E0800A2009230A3009531D125863127000D1616
:100E180007302000C8001730C7006F30C600C60B67
:100E2800132FC70B132FC80B132F00008530F300A7
:100E38000030F4008530953149258631E8302000AE
:100E4800A7000330A80082311D228631200028081F
:100E5800CC002708CB004C08A7004B08A60001309F
:100E6800A8000030A900AA01AA0AAB01AB0A873181
:100E780073278631003020004C021D3003194B02C5
:100E8800031C512F0A30A0009130A1008230A2002B
:100E98009330A3009531D1258631003020004C02D3
:100EA800123003194B020318642F0A30A000913046
:100EB800A1009530A2009330A3009531D125863149
:100EC80027000D127230F6009330F7009930F800C1
:100ED8009130F9009F31E927943097317B2F20001A
:100EE8002B03FF3A2807013EAC002C08F300023020
:100EF80094318224873120002708F9002608F80059
:100F080081310321873120002B080319972F7B0893
:100F1800031D902F2A1E932F7B08303E942F2030DC
:100F28009F317E27873120002A1E9E2F2E309F3129
:100F38007E27873120006B08031DA92F7B08031D1E
:100F4800A92F2A0818390319AC2F6B08303EAD2F8A
:100F580020309F317E2787312000AA1DB72F2E30E1
:100F68009F317E27873120006908031DC52F6B0834
:100F7800031DC52F7B08031DC52F2A081C3903191B
:100F8800C82F6908303EC92F20309F317E2787310E
:100F980020002A1DD32F2E309F317E278731200035
:100FA8006A08031DE42F6908031DE42F6B08031D5D
:100FB800E42F7B08031DE42F2A081E390319E72FA5
:100FC8006A08303EE82F20309F317E278731200085
:100FD800AA1CF22F2E309F317E27873120006C0803
:100FE800303E9F317E270800F2002900961CF92F19
:080FF8007208920008000800D5
:10100400640080010131890B03280034003400346A
:10101400003400340034003400341F34003400340D
:1010240000340034003400341F341F3400340034DE
:101034000034003400341F341F341F3400340034AF
:10104400003400341F341F341F341F340034003480
:1010540000341F341F341F341F341F342000A700F2
:101064000330A80082311D22883120002808CC00DA
:101074002708CB003430C700F130C600C60B402827
:10108400C70B402800329430F3000030F400943051
:10109400953149258831E8302000A7000330A800A5
:1010A40082311D22883120002808CC002708CB007B
:1010B400CB1C67288930A0009330A100ED30A2003A
:1010C4009130A3009531D12588310130F3000030EF
:1010D400F4008630953149258831E8302000A70096
:1010E4000330A80082311D22883120002808CC005A
:1010F4002708CB003430C700F130C600C60B802867
:10110400C70B802800328F30F6009330F70004308C
:10111400F8009330F9009F31E927883134302000FA
:10112400C700F130C600C60B9528C70B95280032BE
:101134009430F3000030F40094309531492588311F
:10114400E8302000A7000330A80082311D22883136
:1011540020002808CC002708CB004B1990283430F5
:10116400C700F130C600C60BB528C70BB52800323E
:101174009430F3000030F4009430953149258831DF
:10118400E8302000A7000330A80082311D228831F6
:1011940020002808CC002708CB004B1DB1288F3035
:1011A400F6009330F700B430F8009030F9009F3126
:1011B400E927883134302000C700F130C600C60B5F
:1011C400E128C70BE12800329430F3000030F4002A
:1011D4009430953149258831E8302000A700033048
:1011E400A80082311D22883120002808CC0027085D
:1011F400CB00CB19DC283430C700F130C600C60B55
:101204000129C70B012900329430F3000030F400A7
:101214009430953149258831E8302000A700033007
:10122400A80082311D22883120002808CC0027081C
:10123400CB00CB1DFD280830F6009230F700AE300D
:10124400F8009030F9009F31E927883134302000CC
:10125400C700F130C600C60B2D29C70B2D2900325B
:101264000230F3000030F40087309531492588318D
:10127400E8302000A7000330A80082311D22883105
:1012840020002808CC002708CB003430C700F130F8
:10129400C600C60B4B29C70B4B2900320230F300A2
:1012A4000030F4008830953149258831E830200039
:1012B400A7000330A80082311D22883120002808AD
:1012C400CC002708CB003430C700F130C600C60B71
:1012D4006929C70B692900320230F3000030F40099
:1012E4008930953149258831E8302000A700033042
:1012F400A80082311D22883120002808CC0027084C
:10130400CB003430C700F130C600C60B8729C70BA9
:10131400872900320230F3000030F4008A3095311E
:1013240049258831E8302000A7000330A800823125
:101334001D22883120002808CC002708CB00343037
:10134400C700F130C600C60BA529C70BA52900327A
:101354000230F3000030F4008F3095314925883194
:10136400E8302000A7000330A80082311D22883114
:1013740020002808CC002708CB003430C700F13007
:10138400C600C60BC329C70BC32900320230F300C1
:101394000030F4009030953149258831E830200040
:1013A400A7000330A80082311D22883120002808BC
:1013B400CC002708CB003430C700F130C600C60B80
:1013C400E129C70BE12900320230F3000030F400B8
:1013D4009130953149258831E8302000A700033049
:1013E400A80082311D22883120002808CC0027085B
:1013F400CB003430C700F130C600C60BFF29C70B41
:10140400FF2900329430F3000030F4009430953119
:1014140049258831E8302000A7000330A800823134
:101424001D22883120002808CC002708CB00CB19C6
:10143400FB293430C700F130C600C60B1F2AC70B86
:101444001F2A00329430F3000030F40094309531B8
:1014540049258831E8302000A7000330A8008231F4
:101464001D22883120002808CC002708CB00CB1D82
:101474001B2A6130F6009130F700AE30F80090304E
:10148400F9009F31E927883134302000C700F1305A
:10149400C600C60B4B2AC70B4B2A00320130F3009F
:1014A4000030F4008730953149258831E830200038
:1014B400A7000330A80082311D22883120002808AB
:1014C400CC002708CB003430C700F130C600C60B6F
:1014D400692AC70B692A00320130F3000030F40096
:1014E4008830953149258831E8302000A700033041
:1014F400A80082311D22883120002808CC0027084A
:10150400CB003430C700F130C600C60B872AC70BA6
:10151400872A00320130F3000030F400893095311D
:1015240049258831E8302000A7000330A800823123
:101534001D22883120002808CC002708CB00343035
:10154400C700F130C600C60BA52AC70BA52A003276
:101554000130F3000030F4008A3095314925883198
:10156400E8302000A7000330A80082311D22883112
:1015740020002808CC002708CB003430C700F13005
:10158400C600C60BC32AC70BC32A00320130F300BE
:101594000030F4008F30953149258831E83020003F
:1015A400A7000330A80082311D22883120002808BA
:1015B400CC002708CB003430C700F130C600C60B7E
:1015C400E12AC70BE12A00320130F3000030F400B5
:1015D4009030953149258831E8302000A700033048
:1015E400A80082311D22883120002808CC00270859
:1015F400CB003430C700F130C600C60BFF2AC70B3E
:10160400FF2A00320130F3000030F40091309531AC
:1016140049258831E8302000A7000330A800823132
:101624001D22883120002808CC002708CB00343044
:10163400C700F130C600C60B1D2BC70B1D2B003293
:101644009430F3000030F40094309531492588310A
:10165400E8302000A7000330A80082311D22883121
:1016640020002808CC002708CB00CB19192B3430D4
:10167400C700F130C600C60B3D2BC70B3D2B003213
:101684009430F3000030F4009430953149258831CA
:10169400E8302000A7000330A80082311D228831E1
:1016A40020002808CC002708CB00CB1D392B223082
:1016B400F6009330F700AE30F8009030F9009F3117
:1016C400E927883134302000C700F130C600C60B4A
:1016D400692BC70B692B00320230F3000030F40091
:1016E4008C30953149258831E8302000A70003303B
:1016F400A80082311D22883120002808CC00270848
:10170400CB003430C700F130C600C60B872BC70BA3
:10171400872B00329430F3000030F400943095317C
:1017240049258831E8302000A7000330A800823121
:101734001D22883120002808CC002708CB00CB19B3
:10174400832B3430C700F130C600C60BA72BC70B60
:10175400A72B00329430F3000030F400943095311C
:1017640049258831E8302000A7000330A8008231E1
:101774001D22883120002808CC002708CB00CB1D6F
:10178400A32B3430C700F130C600C60BC72BC70BE0
:10179400C72B00320130F3000030F4008C30953157
:1017A40049258831E8302000A7000330A8008231A1
:1017B4001D22883120002808CC002708CB00E63001
:1017C400F6009230F700AE30F8009030F9009F3107
:1017D400E927883134302000C700F130C600C60B39
:1017E400F12BC70BF12B00329430F3000030F400DE
:1017F4009430953149258831E8302000A700033022
:10180400A80082311D22883120002808CC00270836
:10181400CB00CB19EC2B3430C700F130C600C60B1B
:10182400112CC70B112C00329430F3000030F4005B
:101834009430953149258831E8302000A7000330E1
:10184400A80082311D22883120002808CC002708F6
:10185400CB00CB1D0D2C7230F6009330F7002230F4
:10186400F8009230F9009F31E927883134302000A4
:10187400C700F130C600C60B3D2CC70B3D2C00320F
:101884000230F3000030F4008D3095314925883161
:10189400E8302000A7000330A80082311D228831DF
:1018A40020002808CC002708CB002930C800963037
:1018B400C700A630C600C60B5D2CC70B5D2CC80B39
:1018C4005D2C8130F3000030F400813095314925DE
:1018D4008831E8302000A7000330A80082311D229F
:1018E400883120002808CC002708CB002930C80004
:1018F4009630C700A630C600C60B7E2CC70B7E2CC4
:10190400C80B7E2C013020004C025F3003194B02BF
:10191400031C972C8930A0009330A100DD30A20075
:101924009030A3009531D125883134302000C70090
:10193400F130C600C60B9C2CC70B9C2C0032013026
:10194400F3000030F4008D30953149258831E830BA
:101954002000A7000330A80082311D228831200016
:101964002808CC002708CB007230F6009330F7002B
:10197400A730F8009130F9009F31E92788313430DD
:101984002000C700F130C600C60BC62CC70BC62CFE
:1019940000328430F3000030F4008430953149255E
:1019A4008831E8302000A7000330A80082311D22CE
:1019B400883120002808CC002708CB0000304C02D6
:1019C400043003194B02031CF22C9430A000923013
:1019D400A100B530A2009130A3009531D125883102
:1019E40034302000C700F130C600C60BF72CC70BFB
:1019F400F72C00320230F3000030F40092309531BD
:101A040049258831E8302000A7000330A80082313E
:101A14001D22883120002808CC002708CB000B3079
:101A2400C8002630C7006630C600C60B172DC70B8A
:101A3400172DC80B172D00328430F3000030F4004A
:101A44008430953149258831E8302000A7000330DF
:101A5400A80082311D22883120002808CC002708E4
:101A6400CB0000304C02033003194B02031C452DFC
:101A74009430A0009230A100B530A2009130A300B0
:101A84009531D125883134302000C700F130C600AB
:101A9400C60B4A2DC70B4A2D0032FE30F30000302E
:101AA400F4008E30953149258831E8302000A700B4
:101AB4000330A80082311D22883120002808CC0080
:101AC4002708CB001530C8004B30C700D130C60002
:101AD400C60B6A2DC70B6A2DC80B6A2D0000843013
:101AE400F3000030F4008430953149258831E83022
:101AF4002000A7000330A80082311D228831200075
:101B04002808CC002708CB004B084C04031D952D56
:101B14009430A0009230A1003C30A2009230A30087
:101B24009531D125883120000C1C8C18A42D9430BB
:101B3400A0009230A1003730A2009130A30095316B
:101B4400D125883120000C1C8C1CB32D9430A000AE
:101B54009230A1004530A2009130A3009531D125E7
:101B6400883120000C188C1CC22D9430A0009230B7
:101B7400A1005330A2009130A3009531D1258831C2
:101B840034302000C700F130C600C60BC72DC70B88
:101B9400C72D00320130F3000030F400923095314B
:101BA40049258831E8302000A7000330A80082319D
:101BB4001D22883120002808CC002708CB000330E0
:101BC400C8000830C7007830C600C60BE72DC70B25
:101BD400E72DC80BE72D0230F3000030F4009330FA
:101BE400953149258831E8302000A7000330A8004A
:101BF40082311D22883120002808CC002708CB0020
:101C04000630C8001330C700B130C600C60B082E1A
:101C1400C70B082EC80B082E003220000C1C8C1891
:101C24001E2E9430A0009230A1003730A2009130D3
:101C3400A3009531D125883120000C188C182D2E45
:101C44009430A0009230A1004530A2009130A3004E
:101C54009531D125883120000C188C1C3C2E9430F1
:101C6400A0009230A1005330A2009130A30095311E
:101C7400D125883134302000C700F130C600C60BAE
:101C8400412EC70B412E00320030F300F4008E3099
:101C9400953149258831E8302000A7000330A80099
:101CA40082311D22883120002808CC002708CB006F
:101CB4000330C8000830C7007830C600C60B602E59
:101CC400C70B602EC80B602E0130F3000030F40007
:101CD4009230953149258831E8302000A70003303F
:101CE400A80082311D22883120002808CC00270852
:101CF400CB007230F6009330F700FA30F8009230DF
:101D0400F9009F31E927883127000C160B30200099
:101D1400C8002630C7006630C600C60B8F2EC70B1E
:101D24008F2EC80B8F2E0032FC30F3000030F400ED
:101D3400FC30953149258831D0302000A700073088
:101D4400A80082311D22883120002808CC002708F1
:101D5400CB004B034C04031DBA2E3430A000933047
:101D6400A100C930A2009130A3009531D12588315A
:101D740027000C128E30F6009030F7009F30F800E8
:101D84009330F9009F31E927883122000D170D1691
:101D940004302000C8000C30C7003530C600C60B24
:101DA400D12EC70BD12EC80BD12E003275309431F1
:101DB4000824883173082000CA007208C900023060
:101DC4004A02823003194902031CF32EDB30A000BF
:101DD4009230A1007E30A2009030A3009531D1252D
:101DE4008831023020004A026A300319490203187C
:101DF400062FDB30A0009230A1002830A2009130E1
:101E0400A3009531D1258831FE302C009A00B830DA
:101E14002000D9000B30DA00200059085A040319B5
:101E24004E2F9431A724883120004308CA00420869
:101E3400C90000304A023D3003194902031C302F07
:101E44002C009A01A0302000A0009230A1008B3019
:101E5400A2009130A3009531D125883120004A0891
:101E6400A7004908A6000130A8000030A900AA0173
:101E7400AA0AAB01AB0A87317327883103302000EB
:101E8400C8000830C7007830C600C60B472FC70B00
:101E9400472FC80B472F0E2F00304A022830031952
:101EA40049020318632F2C009A01A0302000A000DF
:101EB4009230A1006330A2009230A3009531D12565
:101EC40088312C009A0103302000C8000830C70074
:101ED4007830C600C60B6C2FC70B6C2FC80B6C2F49
:101EE40022000D120D1309302000C8001E30C70057
:101EF400EB30C600C60B7C2FC70B7C2FC80B7C2F86
:101F0400000034302000C700F130C600C60B882F13
:101F1400C70B882F00322900951306302000C70014
:101F24003030C600C60B942FC70B942F0000290035
:101F34009517FD30F3000030F400FD30953149254C
:101F44008831E8302000A7000330A80082311D2228
:101F5400883120002808CC002708CB000B30C800AB
:101F64002630C7006630C600C60BB62FC70BB62F87
:101F7400C80BB62F00320E30F6009330F7009F30B6
:101F8400F8009330F9009F31E92788310430943107
:101F9400DA248831F4302000CD000130CE00220054
:101FA4008E168E1AD32F05302000C8000F30C700BC
:101FB400F430C600C60BDC2FC70BDC2FC80BDC2F9C
:101FC400F4302000CD000130CE0022008E168E1A8F
:101FD400E92F05302000C8000F30C700F430C600D8
:101FE400C60BF22FC70BF22FC80BF22FE8302000DC
:101FF400CD000330CE0022008E16FF2F0F340034A4
:102004002D343E34203449346E34733465347234A0
:10201400743420345034433442342034263420344D
:102024005334743461347234743400344434433477
:1020340042344134203452346F346C346C342D3493
:102044007534703420345034613473347334003450
:1020540049346E34733465347234743420344E34F9
:1020640065347734203442346F34613472346434E8
:10207400003454346534733474342D344A3469343C
:1020840067347C3453347434613472347434753446
:10209400703400345434683465346E34203450342D
:1020A4007234653473347334203453347434613487
:1020B400723474340034203474346F342034723401
:1020C4006534733474346134723474342034743445
:1020D4006534733474340034443443344234413406
:1020E400203452346F346C346C342D347534703481
:1020F400203454344A34003456346F346C347434D9
:10210400613467346534203474346F342034483493
:102114006934673468340034543465347334743443
:1021240069346E346734203443346834613472342F
:1021340067346534723400344D3465346D345F343F
:1021440043346F3470346934653472342034503419
:1021540061347334733400345034723465347334FA
:102164007334203444346F3477346E34203442343E
:1021740075347434743400344234753474347434BF
:10218400203444346F3477346E34203449346E341C
:10219400703475347434003450346F3477346534A7
:1021A400723469346E346734203442346F346134A9
:1021B40072346434003443346834613472346734C0
:1021C40065342034443469347334613462346C3497
:1021D4006534003456343134203456346F346C341E
:1021E40074346134673465342D344A346934673463
:1021F400003443346F346E3464346F3433342034F5
:1022040054346534733474346A3469346734003450
:102214004234653461346D34203449346E3470345E
:102224007534743420344534723472340034433495
:102234006F346D346D3473345F34443461347434C6
:1022440061345F34453472347234003456346F343C
:102254006C347434613467346534203474346F34CA
:1022640020344C346F34773400344334693472345A
:1022740063347534693474342034453472347234BC
:102284002034313400344334693472346334753463
:102294006934743420344534723472342034323422
:1022A40000344334693472346334753469347434B7
:1022B400203445347234723420343334003441349D
:1022C4006C346C3420344C346534643473342034CA
:1022D4004F34663466343F3400342D343E34203475
:1022E40049346E3473346534723474342034503465
:1022F4004334423400342034523465346D346F3402
:1023040076346534203462346F3461347234643426
:1023140000344334753472347234203474346F347A
:102324006F34203468346934673468340034413499
:102334006C346C34203469346F342734733420346F
:10234400683469346734683400344D346F34743419
:102354006F347234203443346934723463347534E2
:1023640069347434003443346934723463347534F6
:10237400693474342034533468346F3472347434AC
:10238400003443346F346D346D3473342034543436
:1023940069346D3465346F347534743400344234C4
:1023A40075347434743420345534703420344934DE
:1023B4006E34703475347434003445346E3463349C
:1023C4006F34643465347234203449346E34703478
:1023D4007534743400344534633461346E342034D9
:1023E40052347834203449346E347034753474344F
:1023F40000344D3465346134733475347234693463
:102404006E346734203456343134003441346C34FF
:102414006C3420344C3465346434733420344F3495
:102424006E343F34003456343134203456346F34EF
:102434006C34743461346734653420346234003469
:1024440042346134743474346534723479342034ED
:10245400443469347334633400344E346F34743424
:102464002034723465346C346534613473346534C7
:1024740064340034433469347234633475346934F5
:10248400743420344F34703465346E34003444343E
:10249400433442344134203452346F346C346C3419
:1024A4002D347534703400344D34653461347334F0
:1024B4007534723469346E34673420343534763488
:1024C40000344334753472347234203474346F34C9
:1024D4006F3420346C346F347734003450347234B5
:1024E40065347334733420345334543441345234A3
:1024F400543400345234583433342034543465342E
:10250400733474346A346934673400345034723444
:102514006F346734723461346D346D3469346E34BD
:10252400673400344534723472346F347234203476
:102534004D346F3474346F3472340034433468343B
:1025440061347234673465347234203445347234FF
:102554007234003443346F346E3464346F3433343F
:102564002034503461347334733400344D346F3454
:1025740074346F3472342034533468346F347234A6
:10258400743400344C3469346D3469347434203414
:1025940049346E34703475347434003435345634FC
:1025A400203456346F346C34743461346734653495
:1025B400003443346834613472346734653420340D
:1025C4004534723472340034423475347A347A3493
:1025D40020344F34663466343F3400344D3465342B
:1025E400613473347534723469346E34673400344E
:1025F4005234783420345334793473347434653435
:102604006D340034553470342034423475347434A9
:1026140074346F346E340034543465347334743425
:1026240020345034613473347334003451342034DE
:10263400433475347234723465346E347434003413
:10264400423475347A347A3420344F346E343F341F
:102654000034563432342034533445344E345334F5
:10266400453400344534723472346F347234203457
:10267400523446340034423479347034613473341F
:1026840073346534643400344434653474346534E8
:102694006334743465346434003454346F346F34C4
:1026A400203448346934673468340034523458343C
:1026B400333420345034613473347334003442344A
:1026C4007434203449346E347034753474340034C2
:1026D40043346F346E3464346F3433342034003410
:1026E400543465347334743469346E346734003468
:1026F40054346F346F3420344C346F3477340034B2
:1027040056342034483469346734683400344534EA
:10271400723472346F347234003450347234653429
:10272400733473340034563420344C346F34773477
:0C27340000345234583433342034003464
:1027440020008C160530F4000F30F300F430F20052
:10275400F20BAA2BF30BAA2BF40BAA2B21008E1538
:102764000E162400941728309500143092000800A7
:10277400003400341F341F341F341F341F341F34FB
:1027840000341F341F341F341F341F341F341F34CC
:102794001F341F341F341F341F341F341F341F349D
:1027A400F601F701721CDA2B7408F6077508F73D79
:1027B4000130F435F50D890BDB2B0130F336F20CC7
:1027C400890BE02B72087304031DD42B7708F300E4
:1027D4007608F20008009F312F2793317C309F3117
:1027E4006027933100309F316027933101309F314E
:1027F400602793310B30F4006230F300F30B002CAC
:10280400F40B002C00009F3134270800F8008B13D0
:10281400780821009D000630F5003030F400F40BF8
:10282400112CF50B112C000021009D149D18182C5F
:102834001C08F7001B08F6008B177708F3007608CE
:10284400F2000800F5009F312F2794315C309F314E
:102854006027943100309F316027943175089F318F
:10286400602794319F31342794316830F400E43088
:10287400F300F30B3B2CF40B3B2C00000800F2009C
:102884007A102000941A562C7208031D4E2C1E3008
:102894002000DF000030E00020005F086004031D1A
:1028A400432C7A14003008002900951C5E2C9513E3
:1028B40095177A1400300800110808009F312F275B
:1028C40094317C309F316027943140309F316027B0
:1028D40094317308840074088500120003197F2C56
:1028E400730884007408850000089F3160279431C0
:1028F4000130F3070030F43D6B2C9F31342708007E
:10290400F500F601F60A0130F3029F312F279431C6
:102914007C309F316027943100309F31602794319F
:102924007308CF39F4007408F6007503031D9C2C5A
:10293400F617A02CC030F4007408F60476089F3112
:10294400602794319F313427080051309431082492
:10295400943173082000C5007208C4004508A10022
:102964004408A0009F319127943120002008A7003B
:102974002108A8002208A900D730A400A330A5008C
:102984003F30A6008231EE22943120002408B400A6
:102994002508B5002608B6008531DE252000350857
:1029A400C5003408C4004508C3004408C200080038
:1029B400F200022D22000F168F16080022000C13BD
:1029C4000F168F160F138F138D12080022000C138D
:1029D4000F128F120F138F138D12080022000C1385
:1029E4000F128F120F138F138D12080022000C1375
:1029F4000F128F120F138F130D120D138D12080067
:102A04007208840005300402031808009831043564
:102A1400203E820008008B1322000F1100000000EA
:102A24000000000000000000000000000000F601AB
:102A3400103076020318372D721C232D22000F1537
:102A4400252D22000F117308F5007208F400F536E5
:102A5400F40C7408F2007508F3000130F4007408F3
:102A6400F60710307602031C1E2D00000000000043
:102A740000000000000022000F150000000000000C
:102A8400000000000000000000008B170800200078
:102A9400A8007408A0002008A9007308A00020085A
:102AA400AA00AB01AC012A08A000A101280829074B
:102AB400A200A301A30D20082207A4002108233D9E
:102AC400A5002B082407AB002C08253DAC002C08DE
:102AD400A0002008A6002B08A0002008A7002808B2
:102AE4008731F8279531200029088731F827953157
:102AF40020002A088731F8279531200026088731DD
:102B0400F8279531200027088731F8270800F600B8
:102B14009F312F2795317C309F31602795310030CC
:102B24009F316027953139309F31602795311C30B2
:102B34009F3160279531760870389F316027953131
:102B440050309F31602795316C309F31602795312B
:102B54007303031DB12D38309F3160279531023046
:102B64007306031DB92D34309F31602795310C3025
:102B74009F316027953106309F31602795310130B0
:102B84009F31602795310B30F5006230F400F40B6F
:102B9400C92DF50BC92D00009F31342708002C00E6
:102BA4009A0104309431DA24953120001010393020
:102BB400F2003030F30095310D259531E830F20004
:102BC4000330F3008731FF2795319331ED2395319D
:102BD4009F31BB27953120002108F4002008F30021
:102BE4009431602495319F31D227953120002308F8
:102BF400F4002208F3009431602495312930200038
:102C0400A6009630A500A630A400A40B072EA50BA1
:102C1400072EA60B072E7030F6009230F7005D30B9
:102C2400F8009030F9009F31E927953119302000E0
:102C3400A6005A30A500C830A400A40B1F2EA50B73
:102C44001F2EA60B1F2E0032E72D750803192F2EF9
:102C5400740873047204031D402E0030F200003027
:102C6400F3000030F40008000130F7007708F5079E
:102C74000130F436F30CF20C890B3B2EFE30740554
:102C84000319592E362E0130F7007708F507013065
:102C9400F207003003180130F30700300318013045
:102CA400F4070130F436F30CF20C890B542EFF3088
:102CB40074050319662E452E0130F5020130F235F4
:102CC400F30DF40D890B612EF31B6C2E023075028B
:102CD40003185E2E7518742EFF30F2057F30F3054D
:102CE400FF30F4050310F50C7508F700F801F9013D
:102CF4001030F735F80DF90D890B7B2E7708F204A7
:102D04007808F3047908F404760803190800F41722
:102D1400080000302000A3000030A2000030A10011
:102D24000030A000D62E0030A3000030A2000030F6
:102D3400A1002C30D42E0030A3000030A2000030BB
:102D4400A1004630D42E0030A3000030A200003091
:102D5400A1005130D42E0030A3000030A200003076
:102D6400A1005D30D42E0030A3000030A20000305A
:102D7400A1006230D42E0030A3000030A200003045
:102D8400A1006530D42E0030A3000030A200003032
:102D9400A1007D30D42E0030A3000030A20000300A
:102DA400A1000030A000F22E7708003A0319DB2EB0
:102DB400CD2E76080C3A0319952E1C3A03199D2E34
:102DC400033A0319A52E0B3A0319AD2E043A03193D
:102DD400B52E023A0319BD2E3C3A0319C52ECD2E49
:102DE40020089431242408002808CC002708CB00AC
:102DF4004B1F072F8930A0009330A1006130A2003F
:102E04009330A3009531D125963127000D108D15EF
:102E140034302000C700F130C600C60B0F2FC70B9B
:102E24000F2F00329430F3000030F40094309531C9
:102E340049259631E8302000A7000330A8008231EC
:102E44001D22963120002808CC002708CB00CB1E79
:102E5400362F8930A0009330A100C430A2009230F4
:102E6400A3009531D125963127008D118C1734306C
:102E74002000C700F130C600C60B3E2FC70B3E2F03
:102E840000329430F3000030F40094309531492539
:102E94009631E8302000A7000330A80082311D22BB
:102EA400963120002808CC002708CB004B1C652F46
:102EB4008930A0009330A100DF30A2009130A3003C
:102EC4009531D125963127008C1334302000C7006A
:102ED400F130C600C60B6C2FC70B6C2F00320230CA
:102EE400F3000030F400863095314925E83088310C
:102EF4003028F3000030F40094309531492597319F
:102F0400E8302000A7000330A80082311D22973149
:102F140020002808CC002708CB004B189C2F8930B0
:102F2400A0009330A100DF30A2009130A3009531BE
:102F3400D12597312000CB18AA2F8930A0009330D7
:102F4400A100ED30A2009130A3009531D125973135
:102F540020004B19B82F8930A0009330A100D13044
:102F6400A2009130A3009531D12597312000CB19CF
:102F7400C62F8930A0009330A100BE30A20090304B
:102F8400A3009531D12597312000CB1AD42F893055
:102F9400A0009330A100C430A2009230A300953168
:102FA400D125973120004B1BE22F8930A0009330AC
:102FB400A1006130A2009330A3009531D12597314F
:102FC40027000D1434302000C700F130C600C60BB2
:102FD400E92FC70BE92F00329430F3000030F400DE
:102FE4009430953149259731E8302000A70003300B
:102FF400A80082311D2220009631F62E8231262A25
:1030040082312C2A82313C2A82314C2A82315C2A38
:1030140082316C2A82317F2A8231B72A8231CB2ACB
:1030240080318E28803137288031412880314928E9
:103034008031562880318A288031A1289431DC2CB3
:103044009431E02C9431E82C9431F02C9431F82C08
:103E5800E8340334023424001614161C0800312FE9
:103E680024001615161D0800362FFE0012001E002D
:103E7800FE0B3A2F003483302200970001302100D6
:103E88009D00A3309E009C019B0108002030230068
:103E98009E0090309D0008309F009C0167309B0079
:103EA80008002030290096009030950008309700CF
:103EB8009401673093000800F20072082400910012
:103EC8001418642F16081F39031D662F141D0800C7
:103ED800662FF500F401751C752F7208F30073083E
:103EE800F4070310F20D0310F50C7508031D6F2F6E
:103EF80074080800F3009F312F279F317C309F31D1
:103F080060279F3140309F3160279F3173089F3170
:103F180060279F319F313427080020002008F200D5
:103F28002108F300F4018E30A3002308F500F60100
:103F38009631272672082000A0007308A100740893
:103F4800A2000800063020009C00FA309B002100E7
:103F5800911404302B009700FF3096000C302C0091
:103F68009C00013025009F002C009A0108009F3119
:103F78002F279F317C309F3160279F3100309F3140
:103F880060279F3180309F3160279F312330F300B5
:103F9800F30BCC2F00329F31342708009F312F2795
:103FA8009F317C309F3160279F3100309F316027DF
:103FB8009F31C0309F3160279F312330F300F30BCE
:103FC800E32F00329F31342708009331ED239F31CE
:103FD8009F31BB279F317708F4007608F3009431AE
:103FE80060249F319F31D2279F317908F4007808E7
:083FF800F3009431602408007D
:020000040001F9
:04000E004CCFFFDBF9
:00000001FF
