:040000008031CC2857
:100008007E14803120007F08F1000B1D1C285D083C
:100018005E0403191328FF30DD07FF30DE3D510869
:10002800520403191B28FF30D107FF30D23D0B11B2
:10003800911CC82859085A04031926280130D902E6
:100048000030DA3B5F08600403192E280130DF0214
:100058000030E03B5708580403199B280130D702A9
:100068000030D83BA52822008D178C17F4302000CB
:10007800D7000130D80002305328F430D7000130BF
:10008800D80022000E170330962822000E132000F5
:10009800D301D401F430D7000130D8000430F00087
:1000A800700899280130D3070030D43D1F3054021E
:1000B8004130031953020318E401901F0D1C6F28E7
:1000C80001302100E2070030E33D0530F000700800
:1000D8002000E40072282100E201E3012000901FC3
:1000E8000D1883280130D5070030D63D013056025F
:1000F800913003195502031C8528E4018528D50190
:10010800D6010130D7000030D800A52822000E11F2
:100118008E138D138C13A52822000E118E138D13A8
:100128008C130630F00070082000E400A52864084D
:100138008400073004020318A52898310435123EBC
:10014800820020004D084E040319AF280130CD026B
:100158000030CE3BB12822008E1220006D086E04BC
:100168000319BB280130ED020030EE3BBF28E83010
:10017800ED000330EE005B085C040319C72801306A
:10018800DB020030DC3B91107108FF007E10090093
:100198008031CE28FA01FB01493084000030850007
:1001A8002430883100208031C83084000030850038
:1001B8002630883100208031F93084009330850062
:1001C8006D3086000030870003309D31BE258031B8
:1001D800D630840087308500A03086000030870044
:1001E80028309D31BE258031A43084009E308500A2
:1001F800203086000130870018309D31BE257E10E2
:100208002000813107297A3021009900D0309500EB
:10021800200095010B118B16033021008C000F3044
:100228008D001A308E008F308F00F6309000283005
:1002380026008C00E6308D0020008C018D018E0197
:1002480040308F00900125008C018D0124008D0124
:100258008F010830900023008C010C308D000F3086
:100268008F000630900028008C018D0104309331F6
:10027800FC2381319D31CB2581319E31322681315C
:1002880006302000C6004608E4008C12C830F20090
:100298000030F3008731FE27813120008C169E3113
:1002A8008C26813138302000C6004608F30008301B
:1002B80094316F2481316630F6009230F7003B307C
:1002C800F8009030F9009E317526813120000C1617
:1002D8008B170330C8000830C7007830C600C60B3B
:1002E8007329C70B7329C80B7329AA30F200AA30E7
:1002F800F3009F31C427813185302000C600C60B2A
:1003080083295530F2005530F3009F31C4278131DD
:1003180085302000C600C60B8F2904309331FC239A
:100328008131F4302000CD000130CE0022008E163D
:100338006E30F6009030F7000230F8009030F90087
:100348009E317526813125000C19B629E630F60054
:100358009030F7008D30F8009330F9009E31752603
:100368008131C2296E30F6009030F7000230F80073
:100378009030F9009E3175268131C129DD30F600B3
:100388009030F700F630F8009330F9009E3175266A
:10039800813122008F1604302000C8000C30C700BD
:1003A8003530C600C60BD629C70BD629C80BD629A7
:1003B800003222000F1629302000C8009630C700EE
:1003C800A630C600C60BE629C70BE629C80BE629E6
:1003D80000309331FC2381310B302000C8002630D7
:1003E800C7006630C600C60BF729C70BF729C80B2C
:1003F800F72900320C30F6000030F700883106206B
:10040800813165309E31F2268131003073026430CB
:1004180003197202031C142A4630F6009130172A79
:10042800CE30F6009030F7009630F8009330F9009F
:100438009E317526813115302000C8004B30C70029
:10044800D130C600C60B262AC70B262AC80B262A77
:1004580000002230F6000030F70088310620813194
:100468000B302000C8002630C7006630C600C60B17
:100478003B2AC70B3B2AC80B3B2A003220000C1C26
:10048800472A8C18522AE130A0009330A100D530B9
:10049800A2009230A3009431B72481314A30F6008B
:1004A8009330F7006830F8009330F9009E317526D4
:1004B8008131003020004A02153003194902031C1B
:1004C800702A6830A0009330A1009F30A2009330BA
:1004D800A3009431B72481311830F6009230F70028
:1004E800F730F8009330F9009E3175268131693074
:1004F8009E31F226813173082000CA007208C900B3
:1005080002304A02BC30031949020318962AFB300C
:10051800A0009030A100D230A2009330A300943103
:10052800B72481317330F6009230F700F730F800C5
:100538009330F9009E317526813161309E31F22663
:10054800813173082000CA007208C9007D30F600A6
:100558009230F700F730F8009330F9009E31752695
:10056800813120004A08A7004908A6000130A800E8
:100578000030A900AA01AA0AAB01AB0A9531F625F9
:100588008131003020004A026E30031949020318F5
:10059800D82AED30A0009230A100D230A2009330CA
:1005A800A3009431B7248131003020004A028630FC
:1005B80003194902031CEB2AED30A0009230A10078
:1005C8009F30A2009330A3009431B7248131733057
:1005D800F6009230F700F730F8009330F9009E31BA
:1005E8007526813165309E31F226813173082000ED
:1005F800CA007208C90000304A026E300319490265
:100608000318112BED30A0009230A100D230A200C7
:100618009330A3009431B7248131003020004A027E
:10062800863003194902031C242BED30A0009230B8
:10063800A1009F30A2009330A3009431B7248131E8
:10064800A530F6009230F7008430F8009330F900B6
:100658009E317526813115302000C8004B30C70007
:10066800D130C600C60B362BC70B362BC80B362B22
:1006780000009D31E12581319D31D625813107303A
:100688002000C8001730C7006F30C600C60B4A2BC1
:10069800C70B4A2BC80B4A2B00008030F3000030F0
:1006A800F400803094312F248131E8302000A700F5
:1006B8000330A80097312F27813120002808CC006B
:1006C8002708CB0009304C02753003194B02031C74
:1006D800782B3230A0009230A1009F30A2009330D6
:1006E800A3009431B7248131093020004C024230F4
:1006F80003194B0203188B2B3230A0009230A10053
:10070800D230A2009330A3009431B7248131220063
:100718000D170D1605302000C8000F30C700F43043
:10072800C600C60B952BC70B952BC80B952B7530A0
:100738009E31F226813173082000CA007208C90070
:1007480002304A02873003194902031CB62B0330D2
:10075800A0009330A1007E30A2009030A300943115
:10076800B7248131023020004A026A300319490255
:100778000318C92B0330A0009330A1003730A20022
:100788009130A3009431B724813122000D130D124A
:1007980005302000C8000F30C700F430C600C60B73
:1007A800D32BC70BD32BC80BD32B8130F3000030CE
:1007B800F400813094312F248131E8302000A700E3
:1007C8000330A80097312F27813120002808CC005A
:1007D8002708CB0008304C02353003194B02031CA4
:1007E800002C7B30A0009330A1009F30A2009330F2
:1007F800A3009431B7248131073020004C02D03057
:1008080003194B020318132C7B30A0009330A1006E
:10081800D230A2009330A3009431B724813127004D
:100828000D1207302000C8001730C7006F30C6000F
:10083800C60B1C2CC70B1C2CC80B1C2C00008530AD
:10084800F3000030F400853094312F248131E830F2
:100858002000A7000330A80097312F2781312000FE
:100868002808CC002708CB0003304C02F2300319CB
:100878004B0203184A2C1930A0009130A1004C30CB
:10088800A2009230A3009431B724813127000D16BD
:1008980007302000C8001730C7006F30C600C60BED
:1008A800532CC70B532CC80B532C00008530F30076
:1008B8000030F400853094312F248131E830200055
:1008C800A7000330A80097312F278131200028087E
:1008D800CC002708CB0000304C02653003194B02CE
:1008E800031C812C1930A0009130A100DA30A2003D
:1008F8009330A3009431B7248131003020004C029A
:10090800323003194B020318942C1930A00091308F
:10091800A100ED30A2009330A3009431B7248131B7
:1009280027000D12CA30F6009330F700B630F800F1
:100938009130F9009E31752681319430F3000030F2
:10094800F400943094312F248131E8302000A7003E
:100958000330A80097312F27813120002808CC00C8
:100968002708CB004B18C32CE130A0009330A1001E
:10097800FC30A2009130A3009431B72481312000CB
:10098800CB18D12CE130A0009330A1000A30A2008E
:100998009230A3009431B724813120004B19DF2C09
:1009A800E130A0009330A100EE30A2009130A30006
:1009B8009431B72481312000CB19ED2CE130A0000F
:1009C8009330A100BE30A2009030A3009431B72428
:1009D80081312000CB1AFB2CE130A0009330A1001C
:1009E800E130A2009230A3009431B7248131200075
:1009F8004B1B092DE130A0009330A100B130A200BB
:100A08009330A3009431B7248131CA30F600933073
:100A1800F700B630F8009130F9009E317526813123
:100A280027000D1434302000C700F130C600C60B73
:100A38001B2DC70B1B2D00329430F3000030F4003F
:100A4800943094312F248131E8302000A7000330FE
:100A5800A80097312F27813120002808CC002708CB
:100A6800CB004B1F422DE130A0009330A100B130E4
:100A7800A2009330A3009431B724813127000D10D0
:100A88008D1534302000C700F130C600C60B4A2D42
:100A9800C70B4A2D00329430F3000030F400943034
:100AA80094312F248131E8302000A7000330A800BA
:100AB80097312F27813120002808CC002708CB0048
:100AC800CB1E712DE130A0009330A100E130A200CF
:100AD8009230A3009431B724813127008D118C17EF
:100AE80034302000C700F130C600C60B792DC70B83
:100AF800792D00329430F3000030F40094309431B2
:100B08002F248131E8302000A7000330A800973156
:100B18002F27813120002808CC002708CB004B1C48
:100B2800A02DE130A0009330A100FC30A20091304C
:100B3800A3009431B724813127008C13343020006E
:100B4800C700F130C600C60BA72DC70BA72D003272
:100B58000230F3000030F400863094312F248131C4
:100B6800E8302000A7000330A80097312F278131F3
:100B780020002808CC002708CB003430C700F1300B
:100B8800C600C60BC52DC70BC52D00329430F30027
:100B98000030F400943094312F248131E830200063
:100BA800A7000330A80097312F278131200028089B
:100BB800CC002708CB00CB1CEC2DE130A0009330F3
:100BC800A1000A30A2009230A3009431B7248131E9
:100BD8000130F3000030F400863094312F24813145
:100BE800E8302000A7000330A80097312F27813173
:100BF80020002808CC002708CB003430C700F1308B
:100C0800C600C60B052EC70B052E003227008C1414
:100C180025000C1422008C1520000C151530C80076
:100C28004B30C700D130C600C60B182EC70B182E84
:100C3800C80B182E000027008C1025000C1022006D
:100C48008C1120000C111530C8004B30C700D13072
:100C5800C600C60B2D2EC70B2D2EC80B2D2E00003F
:100C68000A2E78081F392000A0002008EC00790817
:100C7800A1007808A0000530A200210DA10CA00C4D
:100C8800A20B412E20080F39A3002308EA00790897
:100C9800A1007808A0000930A200210DA10CA00C29
:100CA800A20B512E20080F39A3002308E900790868
:100CB800A1007808A0000D30A200210DA10CA00C05
:100CC800A20B612E20080739A3002308EB006B084C
:100CD80069076A0709076C07A0002008EC006C0880
:100CE800A000A1012008F2002108F3006730F400F9
:100CF8000030F5009E31BC26863172082000A20023
:100D08007308A3000A30A400230DA30CA20CA40BA3
:100D1800882E2208A5002508FB000A30A00020081C
:100D2800F2007B089D31F9258631FF3A013E20000B
:100D38006C07A1002108EC000330A0002008F20095
:100D48006A089D31F92586312000A1000930A200EA
:100D58002208F2006B089D31F92586312000210711
:100D680069077B07A3002308EA006A08A000A1011D
:100D78002008F2002108F3006730F4000030F50085
:100D88009E31BC26863172082000A2007308A30099
:100D98000A30A400230DA30CA20CA40BCE2E22080B
:100DA800A5002508FB000A30A0002008F2007B08F7
:100DB8009D31F9258631FF3A013E20006A07A100DE
:100DC8002108EA000530A0002008F20069089D31DA
:100DD800F925863120006B077B07A1002108E9006F
:100DE8006908A000A1012008F2002108F30067307B
:100DF800F4000030F5009E31BC26863172082000D0
:100E0800A2007308A3000A30A400230DA30CA20CAF
:100E1800A40B092F2208A5002508FB000A30A00012
:100E28002008F2007B089D31F9258631FF3A013E02
:100E380020006907A1002108E9006B08A000023022
:100E4800A035FF3E031D242F20357B07A100210874
:100E5800EB006B08A000A1012008F2002108F300B4
:100E68001A30F4000030F5009E31BC268631730834
:100E78002000A2002208FB000A30A0002008F2008F
:100E88007B089D31F925FF3A013E20006B07A10040
:100E98002108EB00080020003408B8003508B90024
:100EA8003608BA000310390D3A0DBB003B08C100E3
:100EB8004108031D682F0030B7000030B60000302D
:100EC800B5000030B40008003408B8003508B9008F
:100ED8003608BA001730BA36B90CB80C890B6F2F20
:100EE8003808BB003B08BC00B517FF30B405FF301D
:100EF800B5050030B6053408BD003508BE00360813
:100F0800BF00C0018E30C102C11FA62F4108803A20
:100F18008F3E0318982F0030B7000030B60000301D
:100F2800B5000030B40008000130C036BF0CBE0C5C
:100F3800BD0C890B992F0130B8003808C107031977
:100F4800BF2F982F18304102031CBC2F0030B70068
:100F58000030B6000030B5000030B40008000130A1
:100F6800BD35BE0DBF0DC00D890BB42F0130C102B8
:100F78004108031DB32F3C080319CD2FBD09BE0935
:100F8800BF09C009BD0A0319BE0A0319BF0A03191C
:100F9800C00A4008B7003F08B6003E08B5003D0843
:100FA800B400080000340034003400340034003445
:100FB80000341F340034003400340034003400346A
:100FC8001F341F34003400340034003400341F341C
:100FD8001F341F3400340034003400341F341F34ED
:100FE8001F341F340034003400341F341F341F34BE
:060FF8001F341F34080045
:10100000640080010131890B012800340030200088
:10101000A3000030A2000030A1000030A000512841
:101020000030A3000030A2000030A1002C304F2877
:101030000030A3000030A2000030A10046304F284D
:101040000030A3000030A2000030A10051304F2832
:101050000030A3000030A2000030A1005D304F2816
:101060000030A3000030A2000030A10062304F2801
:101070000030A3000030A2000030A10065304F28EE
:101080000030A3000030A2000030A1007D304F28C6
:101090000030A3000030A2000030A1000030A0000A
:1010A0006D287708003A03195628482876080C3A24
:1010B000031910281C3A03191828033A0319202889
:1010C0000B3A03192828043A03193028023A031965
:1010D00038283C3A03194028482820089F310E2719
:1010E00008002000CB1C7F28F830A0009230A1001F
:1010F0001830A2009330A3009431B7248831200027
:101100004B1D8D28F830A0009230A1002230A200A3
:101110009330A3009431B72488312000CB1D9B2845
:10112000F830A0009230A1002C30A2009330A30030
:101130009431B724883127008C1025000C10220030
:101140008C1120000C11C230F6009330F700F730FC
:10115000F8009330F9009E31752688311530200053
:10116000C8004B30C700D130C600C60BB528C70B2E
:10117000B528C80BB528000034302000C700F13076
:10118000C600C60BC128C70BC1280032E730F600E5
:101190009330F7005430F8009330F9009E317526F3
:1011A000883134302000C700F130C600C60BD62885
:1011B000C70BD62800329430F3000030F40094308E
:1011C00094312F248831E8302000A7000330A80094
:1011D00097312F27883120002808CC002708CB0022
:1011E0004B19D1283430C700F130C600C60BF628A1
:1011F000C70BF62800329430F3000030F40094302E
:1012000094312F248831E8302000A7000330A80053
:1012100097312F27883120002808CC002708CB00E1
:101220004B1DF228E730F6009330F700B430F80099
:101230009030F9009E317526883134302000C70087
:10124000F130C600C60B2229C70B22290032943088
:10125000F3000030F400943094312F248831E830CA
:101260002000A7000330A80097312F2788312000E5
:101270002808CC002708CB00CB191D293430C70023
:10128000F130C600C60B4229C70B42290032943008
:10129000F3000030F400943094312F248831E8308A
:1012A0002000A7000330A80097312F2788312000A5
:1012B0002808CC002708CB00CB1D3E292530F6009E
:1012C0009230F700AE30F8009030F9009E3175266C
:1012D000883134302000C700F130C600C60B6E29BB
:1012E000C70B6E2900320230F3000030F400873063
:1012F00094312F248831E8302000A7000330A80063
:1013000097312F27883120002808CC002708CB00F0
:101310003430C700F130C600C60B8C29C70B8C29AE
:1013200000320230F3000030F400883094312F2472
:101330008831E8302000A7000330A80097312F271C
:10134000883120002808CC002708CB003430C700A3
:10135000F130C600C60BAA29C70BAA2900320230F9
:10136000F3000030F400893094312F248831E830C4
:101370002000A7000330A80097312F2788312000D4
:101380002808CC002708CB003430C700F130C60055
:10139000C60BC829C70BC82900320230F300003041
:1013A000F4008A3094312F248831E8302000A700DF
:1013B0000330A80097312F27883120002808CC005F
:1013C0002708CB003430C700F130C600C60BE62931
:1013D000C70BE62900320230F3000030F4008F30F2
:1013E00094312F248831E8302000A7000330A80072
:1013F00097312F27883120002808CC002708CB0000
:101400003430C700F130C600C60B042AC70B042ACB
:1014100000320230F3000030F400903094312F2479
:101420008831E8302000A7000330A80097312F272B
:10143000883120002808CC002708CB003430C700B2
:10144000F130C600C60B222AC70B222A0032023016
:10145000F3000030F400913094312F248831E830CB
:101460002000A7000330A80097312F2788312000E3
:101470002808CC002708CB003430C700F130C60064
:10148000C60B402AC70B402A00329430F3000030CC
:10149000F400943094312F248831E8302000A700E4
:1014A0000330A80097312F27883120002808CC006E
:1014B0002708CB00CB193C2A3430C700F130C600D6
:1014C000C60B602AC70B602A00329430F30000304C
:1014D000F400943094312F248831E8302000A700A4
:1014E0000330A80097312F27883120002808CC002E
:1014F0002708CB00CB1D5C2A7E30F6009130F70028
:10150000AE30F8009030F9009E31752688313430C5
:101510002000C700F130C600C60B8C2AC70B8C2AEE
:1015200000320130F3000030F400873094312F2472
:101530008831E8302000A7000330A80097312F271A
:10154000883120002808CC002708CB003430C700A1
:10155000F130C600C60BAA2AC70BAA2A00320130F6
:10156000F3000030F400883094312F248831E830C3
:101570002000A7000330A80097312F2788312000D2
:101580002808CC002708CB003430C700F130C60053
:10159000C60BC82AC70BC82A00320130F30000303E
:1015A000F400893094312F248831E8302000A700DE
:1015B0000330A80097312F27883120002808CC005D
:1015C0002708CB003430C700F130C600C60BE62A2E
:1015D000C70BE62A00320130F3000030F4008A30F5
:1015E00094312F248831E8302000A7000330A80070
:1015F00097312F27883120002808CC002708CB00FE
:101600003430C700F130C600C60B042BC70B042BC7
:1016100000320130F3000030F4008F3094312F2479
:101620008831E8302000A7000330A80097312F2729
:10163000883120002808CC002708CB003430C700B0
:10164000F130C600C60B222BC70B222B0032013013
:10165000F3000030F400903094312F248831E830CA
:101660002000A7000330A80097312F2788312000E1
:101670002808CC002708CB003430C700F130C60062
:10168000C60B402BC70B402B00320130F30000305B
:10169000F400913094312F248831E8302000A700E5
:1016A0000330A80097312F27883120002808CC006C
:1016B0002708CB003430C700F130C600C60B5E2BC4
:1016C000C70B5E2B00329430F3000030F4009430EE
:1016D00094312F248831E8302000A7000330A8007F
:1016E00097312F27883120002808CC002708CB000D
:1016F000CB195A2B3430C700F130C600C60B7E2BF5
:10170000C70B7E2B00329430F3000030F40094308D
:1017100094312F248831E8302000A7000330A8003E
:1017200097312F27883120002808CC002708CB00CC
:10173000CB1D7A2B7230F6009330F700AE30F800F4
:101740009030F9009E317526883134302000C70072
:10175000F130C600C60BAA2BC70BAA2B00320230F1
:10176000F3000030F4008C3094312F248831E830BD
:101770002000A7000330A80097312F2788312000D0
:101780002808CC002708CB003430C700F130C60051
:10179000C60BC82BC70BC82B00329430F3000030A7
:1017A000F400943094312F248831E8302000A700D1
:1017B0000330A80097312F27883120002808CC005B
:1017C0002708CB00CB19C42B3430C700F130C6003A
:1017D000C60BE82BC70BE82B00329430F300003027
:1017E000F400943094312F248831E8302000A70091
:1017F0000330A80097312F27883120002808CC001B
:101800002708CB00CB1DE42B3430C700F130C600D5
:10181000C60B082CC70B082C00320130F300003037
:10182000F4008C3094312F248831E8302000A70058
:101830000330A80097312F27883120002808CC00DA
:101840002708CB003630F6009330F700AE30F800B2
:101850009030F9009E317526883134302000C70061
:10186000F130C600C60B322CC70B322C003294303C
:10187000F3000030F400943094312F248831E830A4
:101880002000A7000330A80097312F2788312000BF
:101890002808CC002708CB00CB192D2C3430C700EA
:1018A000F130C600C60B522CC70B522C00329430BC
:1018B000F3000030F400943094312F248831E83064
:1018C0002000A7000330A80097312F27883120007F
:1018D0002808CC002708CB00CB1D4E2CCA30F600C0
:1018E0009330F7003F30F8009230F9009E317526B2
:1018F000883134302000C700F130C600C60B7E2C82
:10190000C70B7E2C00320230F3000030F4008D3023
:1019100094312F248831E8302000A7000330A8003C
:1019200097312F27883120002808CC002708CB00CA
:101930002930C8009630C700A630C600C60B9E2CC2
:10194000C70B9E2CC80B9E2C8130F3000030F40096
:10195000813094312F248831E8302000A7000330F3
:10196000A80097312F27883120002808CC002708AD
:10197000CB002930C8009630C700A630C600C60B81
:10198000BF2CC70BBF2CC80BBF2C013020004C0252
:101990005F3003194B02031CD82CE130A0009330B8
:1019A000A100EC30A2009030A3009431B72488311C
:1019B00034302000C700F130C600C60BDD2CC70B49
:1019C000DD2C00320130F3000030F4008D30943112
:1019D0002F248831E8302000A7000330A800973179
:1019E0002F27883120002808CC002708CB00CA30D8
:1019F000F6009330F700C430F8009130F9009E31C2
:101A00007526883134302000C700F130C600C60B7F
:101A1000072DC70B072D00328430F3000030F4008F
:101A2000843094312F248831E8302000A70003301F
:101A3000A80097312F27883120002808CC002708DC
:101A4000CB0000304C02043003194B02031C332D31
:101A5000B130A0009230A100D230A2009130A3009A
:101A60009431B724883134302000C700F130C600EB
:101A7000C60B382DC70B382D00320230F300003072
:101A8000F400923094312F248831E8302000A700F0
:101A90000330A80097312F27883120002808CC0078
:101AA0002708CB000B30C8002630C7006630C600C0
:101AB000C60B582DC70B582DC80B582D003284303B
:101AC000F3000030F400843094312F248831E83062
:101AD0002000A7000330A80097312F27883120006D
:101AE0002808CC002708CB0000304C020330031933
:101AF0004B02031C862DB130A0009230A100D230E1
:101B0000A2009130A3009431B724883134302000F2
:101B1000C700F130C600C60B8B2DC70B8B2D0032D2
:101B2000FE30F3000030F4008E3094312F248831E1
:101B3000E8302000A7000330A80097312F27883114
:101B400020002808CC002708CB001530C8004B30F7
:101B5000C700D130C600C60BAB2DC70BAB2DC80BD1
:101B6000AB2D00008430F3000030F4008430943159
:101B70002F248831E8302000A7000330A8009731D7
:101B80002F27883120002808CC002708CB004B08DD
:101B90004C04031DD62DB130A0009230A100593065
:101BA000A2009230A3009431B724883120000C1C8D
:101BB0008C18E52DB130A0009230A1005430A20065
:101BC0009130A3009431B724883120000C1C8C1C68
:101BD000F42DB130A0009230A1006230A20091300B
:101BE000A3009431B724883120000C188C1C032EDC
:101BF000B130A0009230A1007030A2009130A3005B
:101C00009431B724883134302000C700F130C60049
:101C1000C60B082EC70B082E00320130F30000302F
:101C2000F400923094312F248831E8302000A7004E
:101C30000330A80097312F27883120002808CC00D6
:101C40002708CB000330C8000830C7007830C60032
:101C5000C60B282EC70B282EC80B282E0230F300E7
:101C60000030F400933094312F248831E830200084
:101C7000A7000330A80097312F27883120002808BB
:101C8000CC002708CB000630C8001330C700B130A5
:101C9000C600C60B492EC70B492EC80B492E003271
:101CA00020000C1C8C185F2EB130A0009230A100D7
:101CB0005430A2009130A3009431B7248831200021
:101CC0000C188C186E2EB130A0009230A10062303A
:101CD000A2009130A3009431B724883120000C1861
:101CE0008C1C7D2EB130A0009230A1007030A2007B
:101CF0009130A3009431B724883134302000C700DC
:101D0000F130C600C60B822EC70B822E0032003087
:101D1000F300F4008E3094312F248831E830200015
:101D2000A7000330A80097312F278831200028080A
:101D3000CC002708CB000330C8000830C70078303B
:101D4000C600C60BA12EC70BA12EC80BA12E0130B9
:101D5000F3000030F400923094312F248831E830C1
:101D60002000A7000330A80097312F2788312000DA
:101D70002808CC002708CB008E30F6009030F70002
:101D8000F730F8009330F9009E3175268831220033
:101D90000D170D1604302000C8000C30C700353078
:101DA000C600C60BD12EC70BD12EC80BD12E0032C8
:101DB00075309E31F226883173082000CA007208FF
:101DC000C90002304A02823003194902031CF32E73
:101DD0000330A0009330A1007E30A2009030A30019
:101DE0009431B7248831023020004A026A30031946
:101DF00049020318062F0330A0009330A1003730AA
:101E0000A2009130A3009431B7248831FE302C0019
:101E10009A00B8302000D9000B30DA0020005908B1
:101E20005A0403194E2F9F3191278831200043080F
:101E3000CA004208C90000304A023D300319490275
:101E4000031C302F2C009A01BD302000A0009230DE
:101E5000A100A830A2009130A3009431B7248831AA
:101E600020004A08A7004908A6000130A800003059
:101E7000A900AA01AA0AAB01AB0A9531F62588315F
:101E800003302000C8000830C7007830C600C60BF9
:101E9000472FC70B472FC80B472F0E2F00304A0282
:101EA0002830031949020318632F2C009A01BD3012
:101EB0002000A0009230A1008030A2009230A30048
:101EC0009431B72488312C009A0103302000C800D7
:101ED0000830C7007830C600C60B6C2FC70B6C2FBC
:101EE000C80B6C2F22000D120D1309302000C80002
:101EF0001E30C700EB30C600C60B7C2FC70B7C2FF3
:101F0000C80B7C2F000034302000C700F130C60021
:101F1000C60B882FC70B882F003229009513063077
:101F20002000C7003030C600C60B942FC70B942F7B
:101F3000000029009517FD30F3000030F400FD305B
:101F400094312F248831E8302000A7000330A80006
:101F500097312F27883120002808CC002708CB0094
:101F60000B30C8002630C7006630C600C60BB62F3F
:101F7000C70BB62FC80BB62F00325E30F600933079
:101F8000F700F730F8009330F9009E31752688315C
:101F900004309331FC238831F4302000CD0001302F
:101FA000CE0022008E168E1AD32F05302000C800D6
:101FB0000F30C700F430C600C60BDC2FC70BDC2F78
:101FC000C80BDC2FF4302000CD000130CE00220001
:101FD0008E168E1AE92F05302000C8000F30C7007A
:101FE000F430C600C60BF22FC70BF22FC80BF22F2E
:101FF000E8302000CD000330CE0022008E16FF2FE7
:102000000F3400342D343E34203449346E3473346C
:1020100065347234743420345034433442342034C0
:1020200026342034533474346134723474340034BC
:102030004434433442344134203452346F346C34A9
:102040006C342D347534703420345034613473342E
:102050007334003449346E347334653472347434F8
:1020600020344E3465347734203442346F34613454
:1020700072346434003454346534733474342D341D
:102080004A34693467347C34533474346134723480
:1020900074347534703400345434683465346E34B8
:1020A00020345034723465347334733420345334F0
:1020B00074346134723474340034203474346F34C2
:1020C000203472346534733474346134723474344B
:1020D00020347434653473347434003444344334F9
:1020E00042344134203452346F346C346C342D34E7
:1020F00075347034203454344A34003456346F34D8
:102100006C347434613467346534203474346F341F
:1021100020344834693467346834003454346534C6
:102120007334743469346E3467342034433468341F
:102130006134723467346534723400344D3465343C
:102140006D345F3443346F347034693465347234C1
:102150002034503461347334733400345034723466
:10216000653473347334203444346F3477346E34CC
:102170002034423475347434743400344234753449
:1021800074347434203444346F3477346E342034EF
:1021900049346E3470347534743400344C346F34D4
:1021A000633461346C34203476346534723473347F
:1021B00069346F346E342034003450346F347734E3
:1021C0006534723469346E346734203442346F3489
:1021D00061347234643400344334683461347234AA
:1021E0006734653420344434693473346134623480
:1021F0006C346534003456343134203456346F3402
:102200006C3474346134673465342D344A34693441
:102210006734003443346F346E3464346F34333491
:10222000203454346534733474346A346934673414
:1022300000344234653461346D34203449346E34B2
:10224000703475347434203445347234723400344C
:1022500043346F346D346D3473345F3444346134DB
:10226000743461345F34453472347234003456341B
:102270006F346C34743461346734653420347434AE
:102280006F3420344C346F347734003453344D344D
:1022900058344934203476346534723473346934B4
:1022A0006F346E3420340034433469347234633410
:1022B00075346934743420344534723472342034C3
:1022C00031340034433469347234633475346934DE
:1022D000743420344534723472342034323400344F
:1022E000433469347234633475346934743420345B
:1022F00045347234723420343334003441346C3415
:102300006C3420344C3465346434733420344F34AA
:10231000663466343F3400342D343E34203449343E
:102320006E3473346534723474342034503443342E
:10233000423400342034523465346D346F34763492
:102340006534203462346F34613472346434003460
:102350004334753472347234203474346F346F34CF
:1023600020346834693467346834003441346C3460
:102370006C34203469346F34273473342034683437
:1023800069346734683400344D346F3474346F34D6
:1023900072342034433469347234633475346934AC
:1023A00074340034433469347234633475346934BA
:1023B00074342034533468346F34723474340034D9
:1023C00043346F346D346D34733420345434693491
:1023D0006D3465346F34753474340034423475347C
:1023E00074347434203455347034203449346E34A9
:1023F000703475347434003445346E3463346F345F
:10240000643465347234203449346E347034753435
:10241000743400344534633461346E3420345234BF
:102420007834203449346E34703475347434003464
:102430004D346534613473347534723469346E34B8
:102440006734203456343134003441346C346C34C5
:1024500020344C3465346434733420344F346E3457
:102460003F34003456343134203456346F346C34B5
:102470007434613467346534203462340034423457
:1024800061347434743465347234793420344434AF
:1024900069347334633400344E346F34743420340C
:1024A000723465346C346534613473346534643447
:1024B00000344334693472346334753469347434A9
:1024C00020344F34703465346E3400344434433433
:1024D00042344134203452346F346C346C342D34F3
:1024E0007534703400344D3465346134733475346C
:1024F000723469346E3467342034353476340034C1
:102500004334753472347234203474346F346F341D
:1025100020346C346F347734003450347234653482
:102520007334733420345334543441345234543477
:1025300000345234583433342034543465347334D2
:1025400074346A34693467340034503472346F340C
:102550006734723461346D346D3469346E34673489
:1025600000344534723472346F34723420344D3454
:102570006F3474346F3472340034433468346134EB
:1025800072346734653472342034453472347234B2
:10259000003443346F346E3464346F343334203455
:1025A000503461347334733400344D346F347434C4
:1025B0006F3472342034533468346F34723474346A
:1025C00000344C3469346D34693474342034493403
:1025D0006E347034753474340034353456342034E9
:1025E00056346F346C347434613467346534003479
:1025F0004534723472346F34723420344834693460
:102600006734683400344334683461347234673476
:1026100065342034453472347234003453345834C1
:102620004D34493420346334683420343134003438
:10263000533458344D3449342034633468342034AE
:1026400032340034533458344D34493420346334F4
:102650006834203433340034533458344D344934DE
:1026600020346334683420343434003442347534D4
:102670007A347A3420344F34663466343F3400344C
:102680004534723472346F34723420344C344F34E5
:10269000573400344D3465346134733475347234D6
:1026A00069346E3467340034553470342034423425
:1026B0007534743474346F346E3400345434653487
:1026C00073347434203450346134733473340034CC
:1026D00051342034433475347234723465346E347A
:1026E00074340034423475347A347A3420344F34BC
:1026F0006E343F340034563432342034533445344D
:102700004E345334453400344234793470346134B7
:10271000733473346534643400344434653474344D
:10272000653463347434653464340034643465343B
:10273000743465346334743465346434003454342C
:102740006F346F342034483469346734683400346B
:102750005234583433342034503461347334733445
:10276000003442347434203449346E347034753457
:102770007434003443346F346E3464346F3433341F
:102780002034003453344D345834493420344F34D9
:102790004B340034543465347334743469346E34D7
:1027A0006734003454346F346F3420344C346F3415
:1027B000773400345634203448346934673468340C
:1027C00000344534723472346F347234003450340F
:1027D00072346534733473340034563420344C34DA
:1027E0006F34773400345234583433342034003466
:1027F200E83403340234F200242C22000F168F1620
:10280200080022000C130F168F160F138F138D1250
:10281200080022000C130F128F120F138F138D1248
:10282200080022000C130F128F120F138F138D1238
:10283200080022000C130F128F120F138F130D12A8
:102842000D138D120800720884000530040203186B
:10285200080098310435203E820008002000A800BC
:102862007408A0002008A9007308A0002008AA008C
:10287200AB01AC012A08A000A10128082907A20087
:10288200A301A30D20082207A4002108233DA500CF
:102892002B082407AB002C08253DAC002C08A00017
:1028A2002008A6002B08A0002008A70028089D31B8
:1028B200C4259431200029089D31C425943120007B
:1028C2002A089D31C4259431200026089D31C42553
:1028D2009431200027089D31C4250800F6009D315F
:1028E200B42594317C309D31EC25943100309D31FA
:1028F200EC25943139309D31EC2594311C309D31D9
:10290200EC259431760870389D31EC2594315030A5
:102912009D31EC2594316C309D31EC25943173035B
:10292200031D972C38309D31EC259431023073060B
:10293200031D9F2C34309D31EC2594310C309D3198
:10294200EC25943106309D31EC25943101309D31D6
:10295200EC2594310B30F5006230F400F40BAF2C0F
:10296200F50BAF2C00009D31B92508002C009A010F
:1029720004309331FC239431200010103930F200DE
:102982003030F3009F31C4279431E830F200033035
:10299200F3008731FE2794319E31D72694319E3140
:1029A2004726943120002108F4002008F3009F31CB
:1029B2004A2794319E315E26943120002308F40088
:1029C2002208F3009F314A27943129302000A600C3
:1029D2009630A500A630A400A40BED2CA50BED2C7F
:1029E200A60BED2C8D30F6009230F7005D30F8002A
:1029F2009030F9009E317526943119302000A600DE
:102A02005A30A500C830A400A40B052DA50B052D36
:102A1200A60B052D0032CD2C75080319152D74084F
:102A220073047204031D262D0030F2000030F300FF
:102A32000030F40008000130F7007708F507013094
:102A4200F436F30CF20C890B212DFE3074050319B8
:102A52003F2D1C2D0130F7007708F5070130F207F2
:102A6200003003180130F307003003180130F40777
:102A72000130F436F30CF20C890B3A2DFF30740559
:102A820003194C2D2B2D0130F5020130F235F30DD7
:102A9200F40D890B472DF31B522D023075020318DA
:102AA200442D75185A2DFF30F2057F30F305FF30A3
:102AB200F4050310F50C7508F700F801F901103060
:102AC200F735F80DF90D890B612D7708F2047808B6
:102AD200F3047908F404760803190800F4170800CF
:102AE200712D3D302000C800E130C7007A30C600A9
:102AF200C60B792DC70B792DC80B792D003220001A
:102B02004B1C8E2D4030A0009330A1000E30A2004D
:102B12009330A3009431B72495312000CB1C9C2D17
:102B22004030A0009330A1001830A2009330A300DF
:102B32009431B724953120004B1DAA2D4030A000BE
:102B42009330A1002230A2009330A3009431B72425
:102B520095312000CB1DB82D4030A0009330A1004C
:102B62002C30A2009330A3009431B7249531343035
:102B72002000C700F130C600C60BBD2DC70BBD2D0E
:102B8200003227008C1425000C1422008C15200022
:102B92000C153430C700F130C600C60BCE2DC70B62
:102BA200CE2D00329630F3000030F400963094318E
:102BB2002F249531E8302000A7000330A800973178
:102BC2002F27953120002808CC002708CB004B1C6A
:102BD200F42DF830A0009230A1000E30A200933004
:102BE200A3009431B7248831712820002B03FF3AC7
:102BF2002807013EAC002C08F30002309F316C27FD
:102C0200953120002708F9002608F800863135267C
:102C1200953120002B0803191A2E7B08031D132E51
:102C22002A1E162E7B08303E172E20309E310A2691
:102C3200953120002A1E212E2E309E310A269531F2
:102C420020006B08031D2C2E7B08031D2C2E2A0846
:102C5200183903192F2E6B08303E302E20309E314A
:102C62000A2695312000AA1D3A2E2E309E310A26C0
:102C7200953120006908031D482E6B08031D482E5C
:102C82007B08031D482E2A081C3903194B2E69089C
:102C9200303E4C2E20309E310A26953120002A1DCE
:102CA200562E2E309E310A26953120006A08031DC9
:102CB200672E6908031D672E6B08031D672E7B08AC
:102CC200031D672E2A081E3903196A2E6A08303E30
:102CD2006B2E20309E310A2695312000AA1C752EBB
:102CE2002E309E310A26953120006C08303E9E31EE
:102CF2000A26080020002408AA002508AB0026089E
:102D0200AC0003102B0D2C0DAD002D08AE002E08CB
:102D1200031D922E0030A4000030A5000030A60052
:102D220008002708AA002808AB002908AC000310F5
:102D32002B0D2C0DAD002D08B3003308031DA82E5A
:102D42000030A4000030A5000030A60008003308BF
:102D52007B3EAA002A08AE072408AA002508AB0079
:102D62002608AC001030AC36AB0CAA0C890BB42E82
:102D72002A08AD002D08B3002708AA002808AB00D6
:102D82002908AC001030AC36AB0CAA0C890BC42E4F
:102D92002A08AD002D08B3068030AA002A08B30520
:102DA200A517A817FF30A705FF30A8050030A90511
:102DB2000030AF000030B0000030B1000730AA0090
:102DC2002A08B200241CEB2E2708AF072808B03DC2
:102DD2002908B13D0130A636A50CA40C890BEC2EB6
:102DE2000130A735A80DA90D890BF22E0130B202D0
:102DF200031DE32E0930AA002A08B200241C072F63
:102E02002708AF072808B03D2908B13D0130A63692
:102E1200A50CA40C890B082F0130B136B00CAF0CF5
:102E2200890B0E2F0130B202031DFF2E2F08F20074
:102E32003008F3003108F4002E08AA002A08F50031
:102E42003308AB002B08F60095310D2572082000DF
:102E5200A4007308A5007408A60008002000E7017A
:102E6200F42F290011082000A9002908B500941A9E
:102E7200322FE601E701E70AF42F2808E0002708CD
:102E8200DF0001309F312B2797312000A90029084C
:102E9200B5007A188C2F0230C52F1E30DF000030AB
:102EA200E00001309F312B2797312000A90029082B
:102EB200B6007A188C2F0330C52F1E30DF00003089
:102EC200E00001309F312B2797312000A90029080B
:102ED200B7007A188C2F0430C52F1E30DF00003067
:102EE200E00001309F312B2797312000A9002908EB
:102EF200B3007A188C2F0530C52F1E30DF0000304A
:102F0200E00001309F312B2797312000A9002908CA
:102F1200B4007A1C8F2FE601E60AC42F0630C52FB3
:102F22003408A900AA013308AB00AC012B08AC009D
:102F3200AB0129082B04AF002A082C04B000B80109
:102F4200B9013708A900AA0135083607AB00AC0160
:102F5200AC0D29082B07AD002A082C3DAE0038081D
:102F62002D07B80039082E3DB90039083006031D77
:102F7200BC2F38082F06031DC02F0730C52F023083
:102F8200A9002908E6000830A9002908E700F42F63
:102F92003708A900AA013608AB00AC012B08AC0027
:102FA200AB0129082B04B1002A082C04B200320814
:102FB200A8003108A70008006603031DE42FE030D3
:102FC200A0009130EC2F023020006606031DF42F82
:102FD2002830A0009130A100F730A2009330A30066
:102FE2009431B72497312000670884000930040225
:102FF2000318F42F98310435003E8200F42F9731E4
:10300200382F97313E2F97314E2F97315E2F9731C0
:103012006E2F97317E2F9731912F9731C92F97318C
:10302200DD2F80319028803137288031412880314E
:1030320049288031562880318A288031A528933149
:10304200FE2B9431022C94310A2C9431122C94319F
:023052001A2C36
:103B680024001614161C0800B62D24001615161D60
:103B78000800BB2DFE0012001E00FE0BBF2D0034F6
:103B8800F2002900961CC52D7208920008008330A7
:103B980022009700013021009D00A3309E009C0167
:103BA8009B010800203023009E0090309D000830C3
:103BB8009F009C0167309B00080020302900960078
:103BC8009030950008309700940167309300080002
:103BD800F2007208240091001418F02D16081F39FD
:103BE800031DF22D141D0800F22DF500F401751CBB
:103BF800012E7208F3007308F4070310F20D031086
:103C0800F50C7508031DFB2D74080800F3009D31A1
:103C1800B4259E317C309D31EC259E3140309D315C
:103C2800EC259E3173089D31EC259E319D31B925D7
:103C3800080020002008F2002108F300F4018E306B
:103C4800A3002308F500F60195310D257208200020
:103C5800A0007308A1007408A20008000630200024
:103C68009C00FA309B002100911404302B0097002F
:103C7800FF3096000C302C009C00013025009F007E
:103C88002C009A0108009D31B4259E317C309D316D
:103C9800EC259E3100309D31EC259E3180309D31E0
:103CA800EC259E312330F300F30B582E00329D3162
:103CB800B92508009D31B4259E317C309D31EC2515
:103CC8009E3100309D31EC259E31C0309D31EC2570
:103CD8009E312330F300F30B6F2E00329D31B9254E
:103CE80008009E31D7269E319E3147269E3177089F
:103CF800F4007608F3009F314A279E319E315E26F4
:103D08009E317908F4007808F3009F314A270800AB
:103D180020008C160530F4000F30F300F430F20068
:103D2800F20B942EF30B942EF40B942E21008E1587
:103D38000E162400941728309500143092000800BD
:103D4800003400341F341F341F341F341F341F3411
:103D580000341F341F341F341F341F341F341F34E2
:103D68001F341F341F341F341F341F341F341F34B3
:103D7800F601F701721CC42E7408F6077508F73DA2
:103D88000130F435F50D890BC52E0130F336F20CF0
:103D9800890BCA2E72087304031DBE2E7708F30020
:103DA8007608F20008009D31B4259E317C309D31A3
:103DB800EC259E3100309D31EC259E3101309D313E
:103DC800EC259E310B30F4006230F300F30BEA2E41
:103DD800F40BEA2E00009D31B9250800F8008B137A
:103DE800780821009D000630F5003030F400F40B0F
:103DF800FB2EF50BFB2E000021009D149D18022FB1
:103E08001C08F7001B08F6008B177708F3007608E4
:103E1800F2000800F5009D31B4259F315C309D31DA
:103E2800EC259F3100309D31EC259F3175089D317F
:103E3800EC259F319D31B9259F316830F400E4307D
:103E4800F300F30B252FF40B252F00000800F200D8
:103E58007A102000941A402F7208031D382F1E3044
:103E68002000DF000030E00020005F086004031D30
:103E78002D2F7A14003008002900951C482F95131F
:103E880095177A1400300800110808009D31B425F0
:103E98009F317C309D31EC259F3140309D31EC25A0
:103EA8009F31730884007408850012000319692F74
:103EB800730884007408850000089D31EC259F3143
:103EC8000130F3070030F43D552F9D31B925080026
:103ED800F500F601F60A0130F3029D31B4259F3151
:103EE8007C309D31EC259F3100309D31EC259F3190
:103EF8007308CF39F4007408F6007503031D862F84
:103F0800F6178A2FC030F4007408F60476089D313D
:103F1800EC259F319D31B925080051309E31F2269C
:103F28009F3173082000C5007208C4004508A1002D
:103F38004408A0009E311D269F3120002008A700BC
:103F48002108A8002208A900D730A400A330A500A2
:103F58003F30A60096317B269F3120002408B4000C
:103F68002508B5002608B60087314F2720003508F8
:103F7800C5003408C4004508C3004408C20008004E
:103F88008B1322000F110000000000000000000049
:103F98000000000000000000F6011030760203184F
:103FA800EE2F721CDA2F22000F15DC2F22000F11C2
:103FB8007308F5007208F400F536F40C7408F20082
:103FC8007508F3000130F4007408F6071030760223
:103FD800031CD52F000000000000000000000000B6
:103FE80022000F1500000000000000000000000083
:083FF800000000008B17080017
:020000040001F9
:04000E004CCFFFDBF9
:00000001FF
