:040000008031B7286C
:100008007E1480310B1D1A2820003C083D0403197A
:100018001128FF30BC07031CBD032E082F04031949
:100028001928FF30AE07031CAF030B112000911CE9
:10003800B52838083904031925280130B8020030DA
:10004800B93B3E083F0403192D280130BE02003099
:10005800BF3B36083704031988280130B602003040
:10006800B73B922822008D178C17F4302000B60079
:100078000130B70002308628F430B6000130B700EE
:1000880022008E170330852822008E132000B2012B
:10009800B301F430B6000130B70004308628B20A44
:1000A8000319B30A1F30330241300319320203180F
:1000B800C101101E901E6628B00A0319B10A053046
:1000C800C1006828B001B101101E901A7728B40A3F
:1000D8000319B50A01303502913003193402031CA3
:1000E8007928C1017928B401B5010130B600B701FA
:1000F800922822008D138C13922822008D138C13C2
:1001080006302000C100922841088400073004020C
:100118000318922894310435123E820020002608E4
:10012800270403199C280130A6020030A73B9E280B
:1001380022008E122000680869040319A8280130DB
:10014800E8020030E93BAC28E830E8000330E90079
:100158003A083B040319B4280130BA020030BB3B0B
:1001680091107E1009008031B9282030EA018400FE
:1001780000308500283088310420E830E80003305A
:10018800E9007E1020009731782F2000C6015C29F5
:10019800290011082000D900941ACC28C501C601ED
:1001A800C60A5C297D08BF007C08BE0001306821B2
:1001B80080312000D9006A1CE428C501C50A3B2902
:1001C80002303C291E30BE00BF0101306821803159
:1001D8002000DA006A18E12803303C291E30BE00EE
:1001E800BF010130682180312000DB006A18E12856
:1001F80004303C291E30BE00BF0101306821803127
:100208002000D7006A18E12805303C291E30BE00BE
:10021800BF010130682180312000D8006A18E12828
:1002280006303C295708D400D3015808D304D1011B
:10023800D2015B08CB00CC0159085A07CD00CE018A
:10024800CE0D4B084D07CF004C084E3DD0004F084F
:10025800D1075008D23D52085406031D35295108CC
:100268005306031D392907303C290230C5000830E0
:10027800C6005C295A08D600D5015B08D504560883
:10028800FD005508FC000800450B4E29EC30F8002D
:100298009130552902304506031D5C291730F800B6
:1002A8009130F900F930FA009330FB003C2280319C
:1002B8002000460884000930040203185C299431A0
:1002C8000435003E82000800F0006A10941A78296C
:1002D8007008031D72291E30BE00BF013E083F048E
:1002E800031D6A296A1400342900951C7F29951377
:1002F80095172000762911080800F200F1030C2355
:1003080080317C3000238031003000238031710837
:10031800F300CF30F305720B9329F3179529C030FA
:10032800F304730800238031112B4D084A02013E63
:10033800F10002308121803120004908F700480887
:10034800F600162380314D080319B5294308031D0B
:10035800AF294C1EB2294308303EB32920300D2264
:10036800803120004C1EBB292E300D228031200008
:100378004708031DC6294308031DC6294C08183918
:100388000319C9294708303ECA2920300D22803177
:100398002000CC1DD2292E300D22803120004008AB
:1003A800031DE0294708031DE0294308031DE02930
:1003B8004C081C390319E3294008303EE429203051
:1003C8000D22803120004C1DEC292E300D22803169
:1003D80020004208031DFD294008031DFD29470888
:1003E800031DFD294308031DFD294C081E39031967
:1003F800002A4208303E012A20300D228031200098
:10040800CC1C092A2E300D22803120004408303EB1
:100418000D2AF1000C2380317C30002380314030DC
:1004280000238031710800238031112B98228031FC
:10043800872280317508F2007408F100AD228031FE
:100448002B2280317708F2007608F100AD2A0C23C0
:1004580080317C3000238031003000238031C0306F
:10046800002380312330F100F10B382A0032112BA0
:100478002C009A0104302B248031200010103930D0
:10048800F0003030F100FE238031E830F000033016
:10049800F100FD238031982280318722803179084C
:1004A800F2007808F100AD2280312B2280317B08E0
:1004B800F2007A08F100AD22803129302000CA000C
:1004C8009630C900A630C800C80B682AC90B682A2C
:1004D800CA0B682AA630F4009230F5005B30F600AB
:1004E8009030F7001A22803119302000CA005A30A3
:1004F800C900C830C800C80B7F2AC90B7F2ACA0B9D
:100508007F2A00324F2A0C2380317C30002380312F
:100518000030002380318030002380312330F10007
:10052800F10B942A0032112B0C2380317C300023EC
:1005380080310030002380310130002380310B30BE
:10054800F2006230F100F10BA72AF20BA72A000093
:10055800112B0C2380317C30002380314030002364
:100568008031710884007208850012000319C72AB7
:100578007108840072088500000800238031F10AA0
:100588000319F20AB52A112BF4000C2380317C30B0
:10059800002380310030002380313930002380313E
:1005A8001C300023803174087038002380315030AB
:1005B800002380316C3000238031710BE62A3830FB
:1005C8000023803102307106031DED2A34300023E8
:1005D80080310C3000238031063000238031013017
:1005E800002380310B30F3006230F200F20BFA2A5C
:1005F800F30BFA2A0000112BF00070089100141870
:10060800032B16081F39031D052B141D0800052B85
:1006180024001614161C08000E2B24001615161D8F
:100628000800132B7608C4001F30C4057708F900AA
:100638007608F8000530FA00790DF90CF80CFA0B79
:10064800202B7808C2000F30C2057708F900760819
:10065800F8000930FA00790DF90CF80CFA0B2F2B79
:100668007808C0000F30C0057708F9007608F80050
:100678000D30FA00790DF90CF80CFA0B3E2B7808BE
:10068800C7000730C7054708400742070907C407DE
:100698004408F0006730F101F200F301E8238031EB
:1006A8007008F8007108F9000A30FA00790DF90CA1
:1006B800F80CFA0B5A2B7808C300F630F000430800
:1006C800C5238031C4070930F0004708C5238031AD
:1006D800F800420842074207780740074307C2006C
:1006E800F0006730F101F200F301E823803170086F
:1006F800F8007108F9000A30FA00790DF90CF80CC5
:10070800FA0B812B7808C300F630F0004308C523A4
:100718008031C2070530F0004008C5238031470703
:100728004307C000F0006730F101F200F301E8234D
:1007380080317008F8007108F9000A30FA00790D64
:10074800F90CF80CFA0BA32B7808C300F630F0006C
:100758004308C5238031C007470809070907090767
:100768004307C700F0001A30F101F200F301E82353
:1007780080317108C300F630F0004308C523C7076D
:100788000800F200F10170087218F107F0357008DE
:10079800F218F107F03570087219F107F035700892
:1007A800F219F107F0357008721AF107F035700880
:1007B800F21AF107F0357008721BF107F03570086E
:1007C800F21BF10771080800F401F501701CF02B09
:1007D8007208F4077308F53DF235F30DF136F00CA5
:1007E80070087104031DEA2B7508F1007408F00005
:1007F800080008008B1322000F1100000000000001
:10080800000000000000000000000000F201701C61
:10081800102C22000F15122C22000F111030F13667
:10082800F00CF20A7202031C0B2C000000000000FE
:1008380000000000000022000F150000000000006A
:10084800000000000000000000008B170800F00006
:100858004F2C22000C130F168F120F138F138D12AB
:10086800080022000C130F168F160F138F138D120A
:10087800080022000C130F128F120F138F138D1202
:10088800080022000C130F128F120F138F130D1272
:100898000D138D1208007008840005300402031837
:1008A800080087310435F63E82000800513086245E
:1008B800843171082000E4007008E3006408F9003E
:1008C8006308F8000D2584317808CB007908CC003E
:1008D8007A08CD00D730C800A330C9003F30CA001D
:1008E800A32484314808D4004908D5004A08D60012
:1008F8005B255508E4005408E3006408E200630837
:10090800E1000800F4008B13740821009D000630F4
:10091800F3003030F200F20B8F2CF30B8F2C000019
:1009280021009D149D18962C1C08F600F5011B0843
:10093800F5048B177608F1007508F00008004808E0
:10094800FB004908FC004A08FD0003107C0D7D0DE2
:10095800CE004E08031DB42CC801C901CA01080005
:100968004B08FB004C08FC004D08FD0003107C0DF3
:100978007D0DD3005308031DC52CC801C901CA0148
:10098800080053087B3ECE074A08D3004D08D3061B
:100998008030D305FF30C917CC17CB05CC050730FD
:1009A800CD01CF01D001D101D200481CE12C4B0868
:1009B800CF074C08D03D4D08D13DCA36C90CC80CEC
:1009C800CB35CC0DCD0DD20BD92C0930D200481C1B
:1009D800F32C4B08CF074C08D03D4D08D13DCA3603
:1009E800C90CC80CD136D00CCF0CD20BEB2C4F084D
:1009F800F0005008F1005108F2004E08F3005308C7
:100A0800F4001D257008C8007108C9007208CA00E2
:100A180008007808F0007908F1008E30F201F30040
:100A2800F4011D257008F8007108F9007208FA0031
:100A3800080073080319252D720871047004031D3A
:100A48002D2DF001F101F2010800F30AF236F10C44
:100A5800F00CFE30720503193B2D292DF30AF00A1C
:100A68000319F10A0319F20AF236F10CF00CFF30FF
:100A780072050319482D322D02307302031C4A2DCA
:100A8800F303F035F10DF20DF11F402D731CF11336
:100A9800F3367308F700F601F5017508F0047608D7
:100AA800F1047708F2047408031DF21708005408CB
:100AB800D8005508D9005608DA000310590D5A0D08
:100AC800E0006008031D6D2DD401D501D601D701C2
:100AD80008005408D8005508D9005608DA0017301D
:100AE800DA36D90CD80C890B742D5808DB00D517C9
:100AF800D6015408DC005508DD005608DE008E30AB
:100B0800DF01E002E01F942D6008803A8F3E031C4D
:100B1800682DDF36DE0CDD0CDC0CE00F8D2DA12DF1
:100B2800183060020318682D60080319A12DDC3500
:100B3800DD0DDE0DDF0DE003982D5B080319AF2DE9
:100B4800DC09DD09DE09DF09DC0A0319DD0A0319FE
:100B5800DE0A0319DF0A5F08D7005E08D6005D08C1
:100B6800D5005C08D4000800063020004106873113
:100B7800031DE62FCA30F4009230F500FA30F60073
:100B88009330F70082311A22853115302000E700B2
:100B98004B30E600D130E500E50BD02DE60BD02D2B
:100BA800E70BD02D000094312024853194312B247B
:100BB800853107302000E7001730E6006F30E50088
:100BC800E50BE42DE60BE42DE70BE42D0000803067
:100BD800F100F201883136208531E830FC0003301D
:100BE800FD008031C92085317D08A5007C08A4005E
:100BF800023025026F3003192402031C0E2E3E30EA
:100C0800F8009230F9009B30FA009330FB008231F3
:100C18003C228531023020002502293003192402A4
:100C28000318212E3E30F8009230F900CE30FA0039
:100C38009330FB0082313C22853122000D170D16BE
:100C480005302000E7000F30E600F430E500E50B42
:100C58002B2EE60B2B2EE70B2B2E7530843186249A
:100C6800853171082000A3007008A2000230230219
:100C7800873003192202031C4B2E1D30F8009330D5
:100C8800F9007C30FA009030FB0082313C2286313A
:100C98004D2E0230200023026A3003192202031865
:100CA800602E1D30F8009330F9003530FA0091308D
:100CB800FB0082313C22863122000D130D120530D3
:100CC8002000E7000F30E600F430E500E50B6A2E5F
:100CD800E60B6A2EE70B6A2E8130F100F2018831AB
:100CE80036208631E830FC000330FD008031C92011
:100CF80086317D08A5007C08A40002302502053055
:100D080003192402031C932E7730F8009330F9005E
:100D18009B30FA009330FB0082313C22863101304F
:100D280020002502EF30031924020318A62E77307D
:100D3800F8009330F900CE30FA009330FB0082318E
:100D48003C2286318230F100F2018831362086312A
:100D5800E830FC000330FD008031C92086317D0871
:100D6800A5007C08A40001302502C4300319240220
:100D7800031CC92E3230F8009330F9009B30FA007A
:100D88009330FB0082313C2286310130200025025D
:100D9800A030031924020318DB2E3230F8009330F8
:100DA800F900CE30FA009330FB0082313C229631B4
:100DB800682EF100F201883136208631E830FC00D7
:100DC8000330FD008031C92086317D08A5007C08EC
:100DD800A4002418FA2EE330F8009330F900083004
:100DE800FA009230FB0082313C2286312000A418A0
:100DF800082FE330F8009330F9001630FA009230EB
:100E0800FB0082313C22863120002419162FE33062
:100E1800F8009330F900FA30FA009130FB00823183
:100E28003C2286312000A419242FE330F8009330A7
:100E3800F900BC30FA009030FB0082313C22863148
:100E48002000A41A322FE330F8009330F90006305E
:100E5800FA009330FB0082313C2286312000241BAB
:100E6800402FE330F8009330F900AD30FA009330AA
:100E7800FB0082313C22863127000D1434302000DB
:100E8800E600F130E500E50B472FE60B472F00326F
:100E98009430F100F201883136208631E830FC00C8
:100EA8000330FD008031C92086317D08A5007C080B
:100EB800A400241F692FE330F8009330F900AD3007
:100EC800FA009330FB0082313C2288316C282000E4
:100ED800A3007008A200003023026E30031922021A
:100EE8000318812F1230F8009330F900CE30FA0041
:100EF8009330FB0082313C228731003020002302EE
:100F0800863003192202031C942F1230F800933004
:100F1800F9009B30FA009330FB0082313C22873184
:100F28002630F4009130F500F930F6009330F700E0
:100F380082311A22873165308431862487317108DD
:100F48002000A3007008A2000030230249300319D2
:100F580022020318BA2F6530F8009230F900CE301B
:100F6800FA009330FB0082313C22873100302000A8
:100F780023025F3003192202031CCD2F6530F800CD
:100F88009230F9009B30FA009330FB0082313C220A
:100F98008731CA30F4009230F5008930F60093307A
:100FA800F70082311A2287314430F4009130F5007D
:100FB800F930F6009330F70082311A228731200089
:100FC800C101C10A05304106031DF42FCA30F800DB
:100FD8009230F900DD30FA009330FB0082313C2278
:100FE8008531B82D84312D2C8431352C84313D2C1C
:080FF80084313D2C8431452CAD
:10100800640080010131890B052800340630200076
:101018009C00FA309B002100911404302B009700AB
:10102800FF3096000C302C009C00013025009F00FA
:101038002C009A0108008C160530F2000F30F100E0
:10104800F430F000F00B2628F10B2628F20B2628A6
:1010580021008E150E1624009417283095001430A0
:10106800920008002000CA007208CB007108CC006A
:10107800CD01CE01F300F4014A084B07F500F60153
:10108800F60D73087507F7007408763DF8007708C1
:10109800CD077808CE3D4E08C8004D08C9004A085B
:1010A8006520883120004B086520883120004C08D5
:1010B80065208831200048086520883120004908CB
:1010C8006528F0002900961C662870089200080020
:1010D80027000D108D1534302000E600F130E500B2
:1010E800E50B7428E60B742800329430F100F20105
:1010F800883136208831E830FC000330FD0080312B
:10110800C92088317D08A5007C08A400A41E972862
:10111800E330F8009330F9000630FA009330FB0012
:1011280082313C22883127008D118C173430200001
:10113800E600F130E500E50B9F28E60B9F2800321A
:101148009430F100F201883136208831E830FC0013
:101158000330FD008031C92088317D08A5007C0856
:10116800A400241CC228E330F8009330F9000830AA
:10117800FA009230FB0082313C22883127008C1320
:1011880034302000E600F130E500E50BC928E60B15
:10119800C92800320230F1008630F2018831362049
:1011A8008831E830FC000330FD008031C9208831E7
:1011B8007D08A5007C08A4003430E600F130E50085
:1011C800E50BE428E60BE42800329430F100F20144
:1011D800883136208831E830FC000330FD0080314A
:1011E800C92088317D08A5007C08A400A41C072913
:1011F800E330F8009330F9001630FA009230FB0023
:1012080082313C2288318630F101F10AF2018831BD
:1012180036208831E830FC000330FD008031C920D9
:1012280088317D08A5007C08A4003430E600F13040
:10123800E500E50B1D29E60B1D290032E930F40015
:101248009330F5005030F6009330F70082311A22BF
:10125800883134302000E600F130E500E50B322912
:10126800E60B322900329430F100F2018831362041
:101278008831E830FC000330FD008031C920883116
:101288007D08A5007C08A40024192D293430E60027
:10129800F130E500E50B4E29E60B4E29003294307B
:1012A800F100F201883136208831E830FC00033043
:1012B800FD008031C92088317D08A5007C08A40084
:1012C800241D4A29E930F4009330F500B230F600C5
:1012D8009030F70082311A22883134302000E6003D
:1012E800F130E500E50B7629E60B762900329430DB
:1012F800F100F201883136208831E830FC000330F3
:10130800FD008031C92088317D08A5007C08A40033
:10131800A41971293430E600F130E500E50B922973
:10132800E60B922900329430F100F2018831362020
:101338008831E830FC000330FD008031C920883155
:101348007D08A5007C08A400A41D8E293130F40076
:101358009230F500AC30F6009030F70082311A2256
:10136800883134302000E600F130E500E50BBA2979
:10137800E60BBA2900320230F1008730F2018831D9
:1013880036208831E830FC000330FD008031C92068
:1013980088317D08A5007C08A4003430E600F130CF
:1013A800E500E50BD529E60BD52900320230F1001E
:1013B8008830F201883136208831E830FC0003306B
:1013C800FD008031C92088317D08A5007C08A40073
:1013D8003430E600F130E500E50BF029E60BF029A2
:1013E80000320230F1008930F2018831362088312C
:1013F800E830FC000330FD008031C92088317D08C9
:10140800A5007C08A4003430E600F130E500E50BC7
:101418000B2AE60B0B2A00320230F1008A30F20167
:10142800883136208831E830FC000330FD008031F7
:10143800C92088317D08A5007C08A4003430E60066
:10144800F130E500E50B262AE60B262A00320230A9
:10145800F1008F30F201883136208831E830FC0005
:101468000330FD008031C92088317D08A5007C0843
:10147800A4003430E600F130E500E50B412AE60B24
:10148800412A00320230F1009030F20188313620D2
:101498008831E830FC000330FD008031C9208831F4
:1014A8007D08A5007C08A4003430E600F130E50092
:1014B800E50B5C2AE60B5C2A00320230F100913021
:1014C800F201883136208831E830FC000330FD0015
:1014D8008031C92088317D08A5007C08A4003430FB
:1014E800E600F130E500E50B772AE60B772A0032B3
:1014F8009430F100F201883136208831E830FC0060
:101508000330FD008031C92088317D08A5007C08A2
:10151800A400A419732A3430E600F130E500E50B85
:10152800932AE60B932A00329430F100F2018831B5
:1015380036208831E830FC000330FD008031C920B6
:1015480088317D08A5007C08A400A41D8F2A7C3062
:10155800F4009130F500AC30F6009030F70082319D
:101568001A22883134302000E600F130E500E50B1E
:10157800BB2AE60BBB2A00328730F101F10AF201DF
:10158800883136208831E830FC000330FD00803196
:10159800C92088317D08A5007C08A4003430E60005
:1015A800F130E500E50BD62AE60BD62A0032883062
:1015B800F101F10AF201883136208831E830FC0067
:1015C8000330FD008031C92088317D08A5007C08E2
:1015D800A4003430E600F130E500E50BF12AE60B13
:1015E800F12A00328930F101F10AF20188313620FE
:1015F8008831E830FC000330FD008031C920883193
:101608007D08A5007C08A4003430E600F130E50030
:10161800E50B0C2BE60B0C2B00328A30F101F10A9A
:10162800F201883136208831E830FC000330FD00B3
:101638008031C92088317D08A5007C08A400343099
:10164800E600F130E500E50B272BE60B272B0032EF
:101658008F30F101F10AF201883136208831E83003
:10166800FC000330FD008031C92088317D08A500C9
:101678007C08A4003430E600F130E500E50B422B8D
:10168800E60B422B00329030F101F10AF201883169
:1016980036208831E830FC000330FD008031C92055
:1016A80088317D08A5007C08A4003430E600F130BC
:1016B800E500E50B5D2BE60B5D2B00329130F10167
:1016C800F10AF201883136208831E830FC00033015
:1016D800FD008031C92088317D08A5007C08A40060
:1016E8003430E600F130E500E50B782BE60B782B7B
:1016F80000329430F100F201883136208831E83028
:10170800FC000330FD008031C92088317D08A50028
:101718007C08A400A419742B3430E600F130E500ED
:10172800E50B942BE60B942B00329430F100F20178
:10173800883136208831E830FC000330FD008031E4
:10174800C92088317D08A5007C08A400A41D902B21
:101758006E30F4009330F500AC30F6009030F700AE
:1017680082311A22883134302000E600F130E50059
:10177800E50BBC2BE60BBC2B00320230F1008C30A1
:10178800F201883136208831E830FC000330FD0052
:101798008031C92088317D08A5007C08A400343038
:1017A800E600F130E500E50BD72BE60BD72B00322E
:1017B8009430F100F201883136208831E830FC009D
:1017C8000330FD008031C92088317D08A5007C08E0
:1017D800A400A419D32B3430E600F130E500E50B62
:1017E800F32BE60BF32B00329430F100F201883131
:1017F80036208831E830FC000330FD008031C920F4
:1018080088317D08A5007C08A400A41DEF2B343086
:10181800E600F130E500E50B0F2CE60B0F2C00324B
:101828008C30F101F10AF201883136208831E83034
:10183800FC000330FD008031C92088317D08A500F7
:101848007C08A4002830F4009330F500AC30F60092
:101858009030F70082311A22883134302000E600B7
:10186800F130E500E50B362CE60B362C00329430CF
:10187800F100F201883136208831E830FC0003306D
:10188800FD008031C92088317D08A5007C08A400AE
:10189800A419312C3430E600F130E500E50B522C68
:1018A800E60B522C00329430F100F20188313620D8
:1018B8008831E830FC000330FD008031C9208831D0
:1018C8007D08A5007C08A400A41D4E2CC630F40099
:1018D8009330F5004B30F6009230F70082311A222F
:1018E800883134302000E600F130E500E50B7A2C31
:1018F800E60B7A2C00320230F1008D30F20188318B
:1019080036208831E830FC000330FD008031C920E2
:1019180088317D08A5007C08A4002930E7009630AE
:10192800E600A630E500E50B972CE60B972CE70BB5
:10193800972C8130F1008130F201883136208831CE
:10194800E830FC000330FD008031C92088317D0873
:10195800A5007C08A400013025025F300319240289
:10196800031CC12CE330F8009330F900DB30FA0097
:101978009030FB0082313C22883134302000E60070
:10198800F130E500E50BC62CE60BC62C00328D3095
:10199800F101F10AF201883136208831E830FC0083
:1019A8000330FD008031C92088317D08A5007C08FE
:1019B800A400C630F4009330F500D030F600913022
:1019C800F70082311A22883134302000E600F130E5
:1019D800E500E50BED2CE60BED2C00328430F10030
:1019E800F201883136208831E830FC000330FD00F0
:1019F8008031C92088317D08A5007C08A40000300A
:101A08002502043003192402031C152DD630F800D2
:101A18009230F900DE30FA009130FB0082313C222E
:101A2800883134302000E600F130E500E50B1A2D4E
:101A3800E60B1A2D00320230F1009230F2018831A3
:101A480036208831E830FC000330FD008031C920A1
:101A580088317D08A5007C08A4000B30E7002630FB
:101A6800E6006630E500E50B372DE60B372DE70B72
:101A7800372D00328430F100F20188313620883168
:101A8800E830FC000330FD008031C92088317D0832
:101A9800A5007C08A40000302502033003192402A5
:101AA800031C612DD630F8009230F900DE30FA00C0
:101AB8009130FB0082313C22883134302000E6002E
:101AC800F130E500E50B662DE60B662D0032FE30A1
:101AD800F1008E30F201883136208831E830FC0080
:101AE8000330FD008031C92088317D08A5007C08BD
:101AF800A4001530E7004B30E600D130E500E50BD7
:101B0800832DE60B832DE70B832D00008430F10035
:101B1800F201883136208831E830FC000330FD00BE
:101B28008031C92088317D08A5007C08A4000030D8
:101B380025020230031924020318AD2DD630F8000F
:101B48009230F9007230FA009230FB0082313C2268
:101B5800883120000C1C8C18BC2DD630F80092302F
:101B6800F9005230FA009130FB0082313C22883172
:101B780020000C1C8C1CCB2DD630F8009230F900BC
:101B88006030FA009130FB0082313C22883120001D
:101B98000C188C1CDA2DD630F8009230F9006E3013
:101BA800FA009130FB0082313C2288313430200029
:101BB800E600F130E500E50BDF2DE60BDF2D003206
:101BC8009230F101F10AF201883136208831E8308B
:101BD800FC000330FD008031C92088317D08A50054
:101BE8007C08A4000330E7000830E6007830E50000
:101BF800E50BFC2DE60BFC2DE70BFC2D0230F1006C
:101C08009330F201883136208831E830FC00033007
:101C1800FD008031C92088317D08A5007C08A4001A
:101C28000630E7001330E600B130E500E50B1A2E68
:101C3800E60B1A2EE70B1A2E003220000C1C8C180B
:101C4800302ED630F8009230F9005230FA00913038
:101C5800FB0082313C22883120000C188C183F2E62
:101C6800D630F8009230F9006030FA009130FB006D
:101C780082313C22883120000C188C1C4E2ED63024
:101C8800F8009230F9006E30FA009130FB00823192
:101C98003C22883134302000E600F130E500E50BC5
:101CA800532EE60B532E00328E30F101F2018831AB
:101CB80036208831E830FC000330FD008031C9202F
:101CC80088317D08A5007C08A4000330E7000830AF
:101CD800E6007830E500E50B6F2EE60B6F2EE70B7C
:101CE8006F2E9230F101F10AF201883136208831E5
:101CF800E830FC000330FD008031C92088317D08C0
:101D0800A5007C08A400C630F4009330F5004630E6
:101D1800F6009330F70082311A22883127000C161A
:101D28000B302000E7002630E6006630E500E50BC2
:101D38009B2EE60B9B2EE70B9B2E0032FC30F1000E
:101D4800F201883136208831D030FC000730FD00A0
:101D58008031C92088317D08A5007C08A4002403AF
:101D68002504031DC22E8030F8009330F900F230AC
:101D7800FA009130FB0082313C22883127000C1296
:101D88008C30F4009030F500F930F6009330F7000D
:101D980082311A22883122000D170D1604302000D6
:101DA800E7000C30E6003530E500E50BD92EE60BF0
:101DB800D92EE70BD92E003275308431862488312C
:101DC80071082000A3007008A200023023028230AC
:101DD80003192202031CFB2E1D30F8009330F90072
:101DE8007C30FA009030FB0082313C22883102308E
:101DF800200023026A300319220203180E2F1D3017
:101E0800F8009330F9003530FA009130FB00823148
:101E18003C228831FE302C009A00B8302000B800EF
:101E28000B30B9002000380839040319532F8431C6
:101E38005A2488316208A3006108A20001302302F5
:101E4800F53003192202031C362F2C009A01E230C8
:101E5800F8009230F900B430FA009130FB0082317A
:101E68003C22883120002308C9002208C800083015
:101E7800CA01CA0ACB01CC00CD01CD0A8131992112
:101E8800883103302000E7000830E6007830E500AC
:101E9800E50B4C2FE60B4C2FE70B4C2F162F003081
:101EA8002302C830031922020318672F2C009A0155
:101EB800E230F8009230F9009930FA009230FB00D5
:101EC80082313C2288312C009A0103302000E7003F
:101ED8000830E6007830E500E50B702FE60B702F30
:101EE800E70B702F22000D120D1709302000E700B4
:101EF8001E30E600EB30E500E50B802FE60B802F67
:101F0800E70B802F000034302000E600F130E500B8
:101F1800E50B8C2FE60B8C2F003229009513063029
:101F28002000E6003030E500E50B982FE60B982FEF
:101F3800000029009517FD30F100F20188313620A4
:101F48008831E830FC000330FD008031C920883139
:101F58007D08A5007C08A4000B30E7002630E600C9
:101F68006630E500E50BB62FE60BB62FE70BB62F6C
:101F780000325A30F4009330F500F930F60093300F
:101F8800F70082311A228831043084312B248831B9
:101F9800F4302000A6000130A70022008E168E1A09
:101FA800D32F05302000E7000F30E600F430E500BD
:101FB800E50BDC2FE60BDC2FE70BDC2FF4302000E1
:101FC800A6000130A70022008E168E1AE92F0530D0
:101FD8002000E7000F30E600F430E500E50BF22FB3
:101FE800E60BF22FE70BF22FE8302000A6000330B3
:101FF800A70022008E16FF2F2D343E34203449349A
:102008006E34733465347234743420345034433449
:1020180042342034263420345334743461347234D6
:102028007434003444344334423441342034523418
:102038006F346C346C342D3475347034203450342F
:10204800613473347334003449346E347334653412
:102058007234743420344E34653477342034423446
:102068006F346134723464340034543465347334F6
:1020780074342D344A34693467347C3453347434BA
:1020880061347234743475347034003454346834C0
:1020980065346E3420345034723465347334733498
:1020A800203453347434613472347434003420343A
:1020B80074346F3420347234653473347434613456
:1020C80072347434203474346534733474340034A2
:1020D8004434433442344134203452346F346C3401
:1020E8006C342D3475347034203454344A3400340C
:1020F80056346F346C347434613467346534203446
:1021080074346F34203448346934673468340034A4
:10211800543465347334743469346E346734203419
:10212800433468346134723467346534723400344B
:102138004D3465346D345F3443346F3470346934EE
:102148006534723420345034613473347334003459
:1021580050347234653473347334203444346F34F7
:1021680077346E3420344234753474347434003423
:102178004234753474347434203444346F347734CE
:102188006E34203449346E34703475347434003409
:1021980050346F3477346534723469346E3467344C
:1021A800203442346F34613472346434003443343C
:1021B80068346134723467346534203444346934A3
:1021C8007334613462346C346534003456343134D9
:1021D800203456346F346C34743461346734653465
:1021E8002D344A3469346734003443346F346E34E0
:1021F80064346F3433342034543465347334743471
:102208006A346934673400344234653461346D3477
:10221800203449346E347034753474342034453481
:1022280072347234003443346F346D346D34733423
:102238005F3444346134743461345F344534723407
:10224800723400344D346534613473347534723407
:1022580069346E346734203433342E34333476346E
:10226800003456346F346C347434613467346534F4
:10227800203474346F3420344C346F347734003461
:10228800503472346F346734723461346D346D3461
:1022980069346E3467342E342E3400344334693450
:1022A8007234633475346934743420344534723488
:1022B8007234203431340034433469347234633432
:1022C80075346934743420344534723472342034AB
:1022D80032340034433469347234633475346934C5
:1022E8007434203445347234723420343334003436
:1022F80041346C346C3420344C3465346434733475
:1023080020344F34663466343F3400342D343E3440
:10231800203449346E347334653472347434203460
:1023280050344334423400344D34653461347334AA
:102338007534723469346E3467342034323434344A
:10234800563400342034523465346D346F34763466
:102358006534203462346F34613472346434003448
:102368004334753472347234203474346F346F34B7
:1023780020346834693467346834003441346C3448
:102388006C34203469346F3427347334203468341F
:1023980069346734683400344D346F3474346F34BE
:1023A8007234203443346934723463347534693494
:1023B80074340034433469347234633475346934A2
:1023C80074342034533468346F34723474340034C1
:1023D80043346F346D346D34733420345434693479
:1023E8006D3465346F347534743400344234753464
:1023F80074347434203455347034203449346E3491
:10240800703475347434003445346E3463346F3446
:10241800643465347234203449346E34703475341D
:10242800743400344534633461346E3420345234A7
:102438007834203449346E3470347534743400344C
:102448004D346534613473347534723469346E34A0
:102458006734203456343134003441346C346C34AD
:1024680020344C3465346434733420344F346E343F
:102478003F34003456343134203456346F346C349D
:10248800743461346734653420346234003442343F
:102498006134743474346534723479342034443497
:1024A80069347334633400344E346F3474342034F4
:1024B800723465346C34653461347334653464342F
:1024C800003433342E3433345634203456346F3495
:1024D8006C3474346134673465340034433469349B
:1024E8007234633475346934743420344F3470343E
:1024F80065346E3400344434433442344134203437
:1025080052346F346C346C342D3475347034003478
:102518004D346534613473347534723469346E34CF
:1025280067342034353476340034433475347234A7
:102538007234203474346F346F3420346C346F3414
:10254800773400345034723465347334733420343F
:1025580053345434413452345434003432343434DF
:102568005634203456346F346C34743461346734E0
:102578006534003452345834333420345434653498
:10258800733474346A3469346734003450347234C0
:102598006F346734723461346D346D3469346E3439
:1025A800673400344534723472346F3472342034F2
:1025B8004D346F3474346F347234003443346834B7
:1025C800613472346734653472342034453472347B
:1025D8007234003443346F346E3464346F343334BB
:1025E8002034503461347334733400344D346F34D0
:1025F80074346F3472342034533468346F34723422
:10260800743400344C3469346D346934743420348F
:1026180049346E3470347534743400343534563477
:10262800203456346F346C34743461346734653410
:102638000034433468346134723467346534203488
:102648004534723472340034423475347A347A340E
:1026580020344F34663466343F34003432343434F2
:1026680056342034533445344E34533445340034CE
:102678004D346534613473347534723469346E346E
:102688006734003452347834203453347934733412
:10269800743465346D340034553470342034423425
:1026A8007534743474346F346E340034543465348F
:1026B80073347434203450346134733473340034D4
:1026C80051342034433475347234723465346E3482
:1026D80074340034423475347A347A3420344F34C4
:1026E8006E343F3400345634323420345334453455
:1026F8004E345334453400344534723472346F34B4
:1027080072342034523446340034423479347034CC
:102718006134733473346534643400344434653458
:102728007434653463347434653464340034543434
:102738006F346F3420344834693467346834003473
:10274800523458343334203450346134733473344D
:10275800003442347434203449346E34703475345F
:102768007434003443346F346E3464346F34333427
:10277800203400344F346E34203441344334203410
:1027880032340034543465347334743469346E34F8
:102798006734003454346F346F3420344C346F341D
:1027A8007734003456342034483469346734683414
:1027B80000344534523452344F34523400344534A2
:1027C800723472346F347234003450347234653475
:1027D800733473340034563420344C346F347734C3
:1027E80000345234583433342034003444346F3491
:0627F8006E34653400346C
:102800008031D0288031D6288031E6288031F228E6
:102810008031FE2881310A298131162981313E29F2
:102820008131482980318128803136288031402803
:10283000803148288031532880317D28803192288A
:1028400020302900960090309500083097009401C0
:10285000673093000800203023009E0090309D00D8
:1028600008309F009C0167309B00080083302200E5
:102870009700013021009D00A3309E009C019B0128
:0228800008004E
:102BC600A3006108A200003023025B300319220231
:102BD600031CF82D6430F8009330F9009B30FA009E
:102BE6009330FB0082313C2295312430F400923040
:102BF600F500F930F6009330F70082311A2295314C
:102C0600693084318624953171082000A30070084C
:102C1600A20002302302B5300319220203181E2E29
:102C2600EA30F8009030F900CE30FA009330FB001D
:102C360082313C2295319830F4009130F500F9301C
:102C4600F6009330F70082311A2295315D308431D7
:102C56008624953171082000A3007008A200023076
:102C660023021530031922020318442EB230F8004D
:102C76009230F900CE30FA009330FB0082313C22CC
:102C860095310230200023023D3003192202031C35
:102C9600572EB230F8009230F9009B30FA0093308C
:102CA600FB0082313C2295318C30F4009230F500E5
:102CB600F930F6009330F70082311A2295316130EF
:102CC60084318624710887316B2F27000D12073057
:102CD6002000E7001730E6006F30E500E50B712EA7
:102CE600E60B712EE70B712E00008530F100F20124
:102CF600883136209631E830FC000330FD00803103
:102D0600C92096317D08A5007C08A4000330250261
:102D1600F2300319240203189B2E0830F800913074
:102D2600F9005830FA009230FB0082313C2296318D
:102D360027000D1607302000E7001730E6006F3039
:102D4600E500E50BA42EE60BA42EE70BA42E00004F
:102D56008530F100F201883136209631E830FC00EA
:102D66000330FD008031C92096317D08A5007C081E
:102D7600A400003025021D3003192402031CCE2EA8
:102D86000830F8009130F900D630FA009330FB0095
:102D960082313C2296310030200025021230031980
:102DA60024020318E12E0830F8009130F900EF30C4
:102DB600FA009330FB0082313C22963127000D1237
:102DC600C630F4009330F500C230F6009130F700BB
:102DD60082311A2294308631DD2E2000A600013081
:102DE600A70022008E166C30F4009030F5000030FB
:102DF600F6009030F70082311A22963125008C1A9F
:102E0600102FD530F4009030F5009230F600933054
:102E1600F70082311A2296311C2F6C30F400903064
:102E2600F5000030F6009030F70082311A22963114
:102E36001B2FCC30F4009030F500BE30F6009330F6
:102E4600F70082311A22963122008F1604302000B4
:102E5600E7000C30E6003530E500E50B302FE60BD9
:102E6600302FE70B302F003222000F1629302000BA
:102E7600E7009630E600A630E500E50B402FE60BAE
:102E8600402FE70B402F003084312B2496310B3036
:102E96002000E7002630E6006630E500E50B512FFE
:102EA600E60B512FE70B512F003220000C1C5D2F33
:102EB6008C18682FE330F8009330F900FA30FA00E6
:102EC6009230FB0082313C2296313C30F400933044
:102ED600F5006430F6009330F70082311A229631FD
:102EE60084315A2462089531E32D7A302100990005
:102EF600D0309500200095010B118B160B30210068
:102F06008C000F308D001A308E008F308F00F63017
:102F160090002B3026008C00E6308D0020008C01BE
:102F26008D018E0140308F00900125008C018D01AE
:102F360024008D018F01900123008C010C308D003F
:102F46000F308F0006309000013028008C008D0174
:102F5600043084312B2497319431362497318831CB
:102F66000A20973106302000C1008C12C830F000CC
:102F7600F1018331FD23973120008C1688311F2003
:102F860097313830F10008308231C82297317F30CE
:102F9600F4009230F5003930F6009030F7008231B7
:102FA6001A22973120000C168B170330E7000830E1
:102FB600E6007830E500E50BDE2FE60BDE2FE70BAB
:102FC600DE2FAA30F000F1008331FE2397318530E1
:102FD6002000E500E50BED2F5530F000F1008331C0
:102FE600FE23973185302000E500E50BF82F0430ED
:0A2FF60084312B24F4309631F02EC4
:020000040001F9
:04000E004CCFFFDBF9
:00000001FF
